:1000000099C000000C94AC13B6C00000B4C000004E
:10001000B2C00000B0C00000AEC00000ACC0000024
:10002000AAC00000A8C00000A6C00000A4C0000034
:10003000A2C00000A0C000009EC000009CC0000044
:100040009AC000000C94CB0E0C94F80E0C94250F63
:100050000C949E0E90C000008EC000008CC000006A
:100060008AC0000088C0000086C0000084C0000074
:1000700082C0000080C000007EC000007CC0000084
:100080000C947F0F0C94AC0F0C94D90F0C94520F5E
:100090007CC3000070C000006EC000006CC0000097
:1000A0006AC0000068C000000C9433100C9460100B
:1000B0000C948D100C9406105EC000000C94E71098
:1000C0000C9414110C9441110C94BA1054C00000FB
:1000D00052C0000050C000004EC000004CC00000E4
:1000E0004AC0000048C0000046C0000044C00000F4
:1000F00042C0000040C000003EC000003CC0000004
:100100003AC0000038C0000036C0000034C0000013
:1001100032C0000030C000002EC000002CC0000023
:100120002AC0000028C0000026C0000024C0000033
:1001300022C0000011241FBECFEFD1E8DEBFCDBF2B
:1001400000E00CBF12E0A0E0B2E0E0E4FDE200E07D
:100150000BBF02C007900D92A231B107D9F728E07A
:10016000A2E1B2E001C01D92A53DB207E1F70E94F5
:1001700038130C949E1644CF0E94460E209116020E
:100180002223D9F04091CA0830E020911602642F52
:10019000732F0E944314FB018FEF9FEF642F732F87
:1001A0000E94431430E0629FC001639F900D729FD4
:1001B000900D11248E0F9F1F08956091CA0870E062
:1001C0000E944314CB0108950E944B0E0E946F0EB3
:1001D0001092120210921302109214021092150241
:1001E00010921802109217020C947C0E0E94590E65
:1001F000109216020895E8DFF9DF0C94600E0F9359
:100200001F93CF93DF93EC010E94460E8C01BE0139
:1002100080E090E02091CA0830E040E050E00E9489
:100220003414DC01CB01A80160E070E0480F591FD5
:100230006A1F7B1F409312025093130260931402B3
:1002400070931502409112025091130260911402B2
:1002500070911502AB0166277727409312025093E5
:100260001302609314027093150240911202509190
:100270001302609114027091150241155105610538
:10028000710591F040911202509113026091140295
:10029000709115020196080F191F10931802009310
:1002A00017020E944B0E08C0080F191F1093180266
:1002B000009317020E94520E80911702909118022B
:1002C0008436910530F48C599F4F90931802809397
:1002D000170280911702909118020E94640EDF911C
:1002E000CF911F910F910895109216020E947E0ED9
:1002F0008093CA0808958091120290911302A091F0
:100300001402B09115020097A105B105C9F08091C2
:10031000120290911302A0911402B091150201975C
:10032000A109B1098093120290931302A0931402C1
:10033000B09315020097A105B10511F40E94520E69
:10034000809116028F5F809316029091CA088917D8
:1003500048F010921602E0911902F0911A023097BB
:1003600009F0199508950E944B0EE0911B02F0913F
:100370001C02309709F01995089590931A02809302
:100380001902089590931C0280931B02089564E063
:1003900080E02DD084B1866084B98CB580658CBD39
:1003A0008DB58DBD80E28AB95D9A08958EBD0DB47C
:1003B00007FEFDCF8EB50895CF93DF931F92CDB783
:1003C000DEB78FEF80936400809365008FB78983D9
:1003D000F89489815F9350E85093610050E0509306
:1003E00061005F918FBF0F90DF91CF910895CF9300
:1003F000DF931F92CDB7DEB79FB79983F8949981A9
:10040000823040F4E82FF0E0EC59FF4F6095808196
:10041000682360839FBF0F90DF91CF910895CF93A2
:10042000DF931F92CDB7DEB79FB79983F894998178
:10043000823038F4E82FF0E0EC59FF4F8081682BD0
:1004400060839FBF0F90DF91CF910895EF92FF924D
:100450000F931F93CF93DF937C018B01EA012097C9
:1004600039F0F80161918F01C70154D02197C9F784
:1004700080E0DF91CF911F910F91FF90EF90089551
:10048000EF92FF920F931F93CF93DF937C018B0129
:10049000EA01209739F0C70144D0F80181938F0118
:1004A0002197C9F780E0DF91CF911F910F91FF90C5
:1004B000EF900895CF93DF931F92CDB7DEB7809171
:1004C0009B0890919C08E0919708F0919808BE01D4
:1004D0006F5F7F4F19958981082E000C990B0F9043
:1004E000DF91CF910895682F80919B0890919C088F
:1004F000E0919908F0919A08199599231CF081E0F0
:1005000090E008958FEF9FEF08952C9A249A6C98AD
:10051000749A0895FC01908195FFFDCF668380E079
:100520000895FC0190819923ECF7868108958F92BC
:100530009F92AF92BF92CF92DF92EF92FF920F9372
:100540001F93CF93DF93EC016A017B01C901B801CE
:10055000689412F896958795779567951694D1F7D4
:100560006C157D058E059F0578F148015901689449
:1005700013F8B694A794979487941694D1F78C1493
:100580009D04AE04BF0420F5E881E260E88320C04A
:10059000288121FF0AC0A70196010E945714DA01A1
:1005A000C9010197A109B1090BC0C501B401A70197
:1005B00096010E945714DA01C9010197A109B109F6
:1005C0009D838C8381E013C080E011C080E00FC068
:1005D0000F2EF3E13695279517950795FA95D1F7E4
:1005E000F02DC016D106E206F30690F6EFCFDF91AC
:1005F000CF911F910F91FF90EF90DF90CF90BF9020
:10060000AF909F908F9008950F931F93CF93DF9398
:10061000EC018B01803C910521F462E080E0E7DE93
:1006200006C0883C910519F461E081E0E0DE8A8132
:100630008F738A83F8012681358184819A81482FBE
:100640004370440F997F942B9A8399818470880F0B
:10065000880F9B7F892B89838A818F7C832B8A8358
:100660009A81977F822F880F880F880F892B8A8322
:10067000408151816281738100E014E224EF30E017
:10068000CE0155DF99819860998399819061998312
:10069000DF91CF911F910F910895CF93DF93EB01DD
:1006A00040DF8883DF91CF91089534CF08950F9371
:1006B0001F93CF93DF93CDB7DEB727970FB6F8948C
:1006C000DEBF0FBECDBF08EC10E010939C08009376
:1006D0009B0885E593E090939A08809399088DE4B0
:1006E00093E09093980880939708EAE0F2E0848181
:1006F0008D8385818E8386818F8380819181A28184
:10070000B38189839A83AB83BC83BE016F5F7F4FC4
:1007100088EC90E079DF6AE572E083E792E00E947E
:10072000F014F80181818068818327960FB6F894D0
:10073000DEBF0FBECDBFDF91CF911F910F91089506
:10074000FF920F931F93CF93DF938C01F62EC62F4A
:10075000D0E0AE01B80188EC90E078DE8111F9CFED
:100760008F2DDF91CF911F910F91FF900895CF931F
:10077000DF931F92CDB7DEB7898361E0CE0101968A
:10078000DFDF0F90DF91CF9108951F920F920FB688
:100790000F9211240BB60F922F933F934F935F93B9
:1007A0006F937F938F939F93AF93BF93EF93FF9339
:1007B000CF93DF931F92CDB7DEB741E050E0BE018B
:1007C0006F5F7F4F88EC90E05BDEF89480911D02B4
:1007D000E82FF0E0E25EFD4F998190838B3919F4A8
:1007E00010921D0203C08F5F80931D0278940F90BA
:1007F000DF91CF91FF91EF91BF91AF919F918F9139
:100800007F916F915F914F913F912F910F900BBE10
:100810000F900FBE0F901F901895EDE9F8E014822D
:1008200015821182108217A216A2E3EAF8E083EC87
:1008300098E011921192E817F907D9F73CD659D3ED
:100840000DD140D08BC1089590939E0880939D0850
:100850000C946A0C08959093A00880939F080C94C0
:10086000580C0895E82FF0E0EE0FFF1FED55F74FFD
:1008700071836083089585D31DD74DC00895E0919D
:10088000BA02F091BB023097D9F0228133818217EE
:10089000930789F405C0228133812817390759F459
:1008A000DC01AD57BF4F2C91278713962C91208BDD
:1008B00022E0248305C00190F081E02D309759F7A4
:1008C0000AC108951092BB021092BA020895FC0169
:1008D0001482178613821282ADE9B8E096968D9144
:1008E0009C919797019697969C938E93969780915B
:1008F000BA029091BB02009739F411821082F093F2
:10090000BB02E093BA02089591838083F093BB0207
:10091000E093BA0208950F931F93CF93DF93E09172
:10092000BA02F091BB02309709F493C0EF018C81B9
:10093000882321F0823009F466C085C096D08C01EE
:10094000009721F482E08C838F8783C09B838A8306
:1009500081E08C83F801E957FF4F8FE394E09183A6
:1009600080833197898582FB882780F980839985E8
:10097000D8011B968C911B9790FB80F91B968C934A
:100980001B97998593FB992790F990FB82F91B9609
:100990008C931B97EDE9F8E084818F5F84831C962C
:1009A0008C931C97808191811E969C938E931D97AA
:1009B0008D819E8150969C938E931F978885982F4A
:1009C0009F7051968C915197807F892B51968C9373
:1009D00051979F819295907F8F70892B51968C9320
:1009E000F801EF57FF4F4C8550E06A857B85808189
:1009F00091810E94E714F80191818C85890F818390
:100A0000C8017CD526C0EC17FD0741F48081918197
:100A10009093BB028093BA020AC0FC01808191814D
:100A20008C179D07D1F78881998191838083EDE9A7
:100A3000F8E086A197A1019797A386A3ED85FE858F
:100A4000CE01199506C00990D881C02D209709F0D4
:100A50006ECFDF91CF911F910F9108951092BC023C
:100A6000109245031092CE0308958091BC02882312
:100A700071F080914503882339F08091CE03811174
:100A800027C082E090E005C081E090E002C080E0F5
:100A900090E049E8489F9001499F300D1124C90119
:100AA00084549D4FFC0111924A95E9F740E1FC0105
:100AB0004183EF57FF4F22533D4F31832083EDE9B0
:100AC000F8E026A137A12F5F3F4F37A326A3089553
:100AD00080E090E00895FC011082EDE9F8E086A145
:100AE00097A1019797A386A30895009741F0FC0171
:100AF000E757FF4F84E0E735F80718F012C0ECEB3A
:100B0000F2E08081882321F00FC0808181110FC025
:100B1000E757FF4F84E0E735F807B8F380E090E04F
:100B2000089580E090E008958E2F9F2F08958E2FD6
:100B30009F2F0895FC01DC01AD57BF4F1C92ADE91A
:100B4000B8E014969C9114979F5F14969C93149709
:100B500094878D919C91968785870895A8E5B4E048
:100B600080E090E04FEF5FEF11965C934E93FC01B5
:100B7000EE0FFF1FEE0FFF1FEE0FFF1FE81BF90B1D
:100B8000E95AFB4F20812E7F208314961C921497E4
:100B9000019617968436910539F708950F931F93A0
:100BA000CF93DF93E8E5F4E020E030E0062F10E09B
:100BB0004081518148175907B1F4D901AA0FBB1FD1
:100BC000AA0FBB1FAA0FBB1FA21BB30BA95ABB4F77
:100BD0004C9146954170C42F40E0D42FC017D107E7
:100BE00011F4CD0108C02F5F3F4F379624363105F1
:100BF000F9F680E090E0DF91CF911F910F91089579
:100C0000A0E0B0E0E7E5F4E0808180FD0DC08581E3
:100C1000882381F0109739F015969C9115978917C4
:100C200018F4DF0101C0DF01379687E0E331F807F0
:100C300059F7FD0180818D708063808380E8858312
:100C4000CF010895FC01808180FD05C08FEF9FEFEB
:100C50009283818315820895A1DF009721F0FC0122
:100C60008381948108958FEF9FEF089597DF009718
:100C700009F0E8CF08950F931F93CF93DF93FC0102
:100C80000185128511232CF485859685081719078F
:100C9000E1F5858196810196C1F1EF0160E08585DE
:100CA00096857CDFFC01892BA1F08F8198850196C8
:100CB000F9F420919D0830919E088F859889281716
:100CC0003907B1F41483038380818F70806380833C
:100CD0000AC096DFFC018D859E859283818389857C
:100CE0009A8594838383CD57DF4F888186830DC097
:100CF0008381948108171907B1F39681DE01AD57FE
:100D0000BF4F8C919817F0F2EECFDF91CF911F91EA
:100D10000F910895CF93DF93FC01878590898F3FD2
:100D20002FEF9207D9F1EF01638563FB662760F926
:100D300035DFDC01892B91F18C9180FD2FC0FE0104
:100D4000ED57FF4F8081811119C08C918F708063A6
:100D50008C9315968C9115978F5F15968C938F3F7A
:100D6000E9F4ECE5F4E028E137E0808186958F5FD7
:100D700080833796E217F307C1F710C09C91892F43
:100D800082958F70815F8F70282F2295207F9F70B2
:100D9000922B9C93811102C0CD0154DFDF91CF9142
:100DA0000895CF93DF93FC01878590898F3F2FEFC4
:100DB000920729F48FEF9FEF908787830EC02385DA
:100DC00022FF03C09087878308C0EF01638563FB20
:100DD000662760F941DF98878F83DF91CF9108956F
:100DE000AF92BF92CF92DF92EF92FF921F93CF9379
:100DF000DF93EC011B8513FB112710F9CF84D888F2
:100E0000612FC60129DF019659F0FE01E957FF4F16
:100E100011821082319782E08083CE016FD322C08D
:100E2000AD84BE8422DE7C010097D1F083DEF70121
:100E300081818A5F8183E957FF4F11821082F70118
:100E4000B08AA786EF57FF4F0190F081E02D81E037
:100E50008083B282A182D482C3821583C7014ED31C
:100E6000CE0139DEDF91CF911F91FF90EF90DF909F
:100E7000CF90BF90AF900895FC012185263049F4B2
:100E80000780F085E02D658183819481EFDE81E02C
:100E9000089580E00895DC0119962C91199722237A
:100EA00071F01796ED91FC9118972081222319F08B
:100EB000213019F006C0B6C30895DECF089580E052
:100EC000089580E00895BC01E5E2F7E027E537E00A
:100ED00040E051E09081992319F091509083452F83
:100EE0003596E217F307B1F7442311F0CB0150C652
:100EF0000895E5E2F7E087E597E010823596E81778
:100F0000F907D9F7E3E1F7E084E690E0A0E0B0E08C
:100F100086839783A087B187128683E697E09487BC
:100F200083876BE477E080E09DCC0895CF93DF93D7
:100F3000DC01ED91FC91119721812838F9F4208191
:100F40002F7D2134D9F412962C912031B8F0EC0188
:100F50008CDD009799F020E2FC0120832A81218317
:100F60002B81ED57FF4F20832C81319620834A81BE
:100F700050E06881798102960E94E714DF91CF9159
:100F800008952F923F924F925F926F927F928F922D
:100F90009F92AF92BF92CF92DF92EF92FF920F9308
:100FA0001F93CF93DF93CDB7DEB72C970FB6F8948E
:100FB000DEBF0FBECDBF00E010E00F2EF4E2BF2E6B
:100FC000F02D0F2EFDE9EF2EF8E0FF2EF02D552429
:100FD00053946894AA24A4F86894772473F86894C6
:100FE000662462F8312C212C0F2EFFE14F2EF02DBC
:100FF000CC24C394D12CDAC1D8018C91823209F46B
:1010000005C118F4803241F0D1C1833209F4C9C15D
:10101000843209F4C9C1CAC1F801B0828385982F0E
:101020009A7009F0C3C1258136812F3F3F4F91F45B
:10103000D8011F968D919C915097F70120813181A5
:101040002817390719F0019609F0B0C1E2E2D8017A
:10105000EC93ACC1D8011F962D913C9150972F3F36
:101060003F4F11F480FDA2C1F70120813181D801E9
:101070001D968D919C911E972817390709F496C1EA
:10108000C801F9DDE1E2F7E080E090E0832C922CEA
:101090009C014481442309F474C0D8011D966D91CC
:1010A0007C911E97408151816417750709F06AC0D1
:1010B0001C968C911C97F901EE0FFF1FEE0FFF1F7E
:1010C000E20FF31FEF5DF84F9281981B983008F004
:1010D0003EC0F901EE0FFF1FEE0FFF1FE20FF31FDF
:1010E000EF5DF84F8381482F50E0092E02C05595DF
:1010F00047950A94E2F740FF17C0F701208131813C
:1011000017968D919C9118972817390709F04EC1B1
:101110001B966C911B9763FB662760F91F968D9158
:101120009C915097A3DD42C1F901EE0FFF1FEE0F16
:10113000FF1F2E0F3F1FF901EF5DF84F960102C010
:10114000220F331F9A95E2F7822B838336C1F90170
:10115000EE0FFF1FEE0FFF1F2E0F3F1FF901EF5D78
:10116000F84F82838381282F30E09195A90102C036
:10117000440F551F9A95E2F7CA0181608383448228
:101180001CC14F01019635968A30910509F080CF38
:101190008114910409F40AC1D8011D968D919C9186
:1011A0001E97F401918380831C968C9182835382D5
:1011B000448283E197E0ECD400C1D7012D913C91AA
:1011C000F801878590892817390781F0438542FD0A
:1011D0000BC0C801E2D1D7012D913C91F801878560
:1011E00090892817390711F0019621F4E2E2D8011D
:1011F000EC93DCC0D80117968D919C9118978217BB
:10120000930709F0D3C0E3E2EC93D0C0109220071B
:10121000D80151968C91519782958F70E82FF0E00C
:10122000EE0FFF1FED55F74F0190F081E02D309745
:1012300009F460C01D962D913C911E973A83298335
:101240001F964D915C9150975C834B8351969C9176
:1012500051979F709D838E83AF57BF4F8D919C9107
:1012600099878887B8016E5F7F4F861B970BD801DF
:1012700011969C911197981B9A87AD57BF4F8C91EF
:101280008B8711968C918C87D8011B969C91692F26
:10129000637092FD02C080E001C080E2862B93FD66
:1012A00002C090E001C090E4892B4F3F5F4F11F0E6
:1012B00090E001C0962D892BD80119964D915C9133
:1012C0001A972417350711F090E001C0972D892B4C
:1012D0008F83D80115962D913C9116972F3F3F4F44
:1012E00011F090E001C09A2D892B8F83CE010196D9
:1012F000199501C080E0F801938590FF80E0D80146
:1013000017962D913C9118972F3F3F4F69F4F701A5
:1013100040815181D8011F962D913C9150974217E1
:10132000530711F493FF852DF801258136812F3F56
:101330003F4FA1F1D7012D913C912F3F3F4F71F1CC
:10134000882361F192DB4C01009741F1F3DBF4015A
:1013500081818D5F8183E957FF4F11821082D8010F
:101360001B968C911B9786958170F401938580FB69
:1013700091F993871D968D919C911E97908B8787ED
:10138000EF57FF4F0190F081E02D108280912007F0
:1013900082831C968C918183C401B0D0D801BC9209
:1013A00005C0C8011DDD02C0C80195DBC8019DDB79
:1013B0008C01892B09F020CE07C0F8018781908528
:1013C000019609F008CFF9CE2C960FB6F894DEBF3F
:1013D0000FBECDBFDF91CF911F910F91FF90EF9086
:1013E000DF90CF90BF90AF909F908F907F906F9045
:1013F0005F904F903F902F900895EF92FF920F9340
:101400001F93CF937C0110E080E090E001E0C3E106
:1014100013C0FC012081213179F4EC57FF4F20816A
:1014200031812150310931832083232B21F4FC01A8
:10143000C083102F01C0102F58DB009751F71123E4
:1014400011F0C701A5D3CF911F910F91FF90EF909D
:101450000895EF92FF920F931F93CF93DF937C0138
:1014600010E080E090E001E0D7E1C0E116C0FC01AF
:101470002081263191F4EC57FF4F2081318121509A
:10148000310931832083232B39F4FC01D083ED57BC
:10149000FF4FC083102F01C0102F27DB009739F7B3
:1014A000112311F0C70174D3DF91CF911F910F91D8
:1014B000FF90EF90089510926E0710926D07E0E68E
:1014C000F7E082E390E0A0E0B0E086839783A08716
:1014D000B187128689E29AE094878387E3E5F7E093
:1014E0008AE090E0A0E0B0E086839783A087B18790
:1014F00012868DEF99E0948783870895CF93DF93C9
:10150000EC01FC01EA57FF4F808181FF03C092E1AB
:10151000988302C092E19883FE01ED57FF4F10823D
:1015200080FF05C02FEF3FEF3E832D8306C0209143
:101530009F083091A0083E832D83857019F4CE0159
:1015400030DC04C08F85988998878F83EDE9F8E0B7
:10155000808191819A87898785818F5F85838C833C
:101560008F819885019671F481E498E89B838A8342
:101570000E94D914CC57DF4F877099270196998321
:10158000888308C081E698E89B838A83CC57DF4F25
:1015900019821882DF91CF9108950F931F93CF93F3
:1015A000DF938C0162DAEC01892BB9F182E1888347
:1015B000F80181818983FE01ED57FF4F10820E945F
:1015C000D914FE01EC57FF4F87709927019691833C
:1015D0008083339611821082F801418150E0B80176
:1015E0006E5F7F4FCE0102960E94E71481E498E877
:1015F0009B838A838FEF9FEF98878F83F801858184
:1016000096819E838D83EDE9F8E0808191819A87B0
:10161000898785818F5F85838C83DF91CF911F912F
:101620000F910895CF93DF93FC0121852330D9F4E6
:1016300010C0FC012081263189F4348529813213C0
:101640000DC027E120832A81EA57FF4F208381E0E4
:101650000BC0FC01C781D08580E090E046DA00979E
:1016600041F780E001C080E0DF91CF910895E091E3
:101670006D07F0916E07813021F048F0823019F04B
:1016800004C080E205C081E203C081E001C080E0C7
:10169000DF01AD57BF4F8C9385E1808310926E07B9
:1016A00010926D07EDE9F8E086A197A1019797A345
:1016B00086A308959F92AF92BF92CF92DF92EF924E
:1016C000FF920F931F93CF93DF93C0E0D0E00F2ED4
:1016D000F4E1AF2EF02D0DE918E00F2EF7E1DF2E2B
:1016E000F02D0F2EF6E19F2EF02D0F2EF5E1EF2EAF
:1016F000F12CF02D0F2EF3E1CF2EF02D0F2EF1E176
:10170000BF2EF02D5FC088818331C1F018F4823183
:1017100039F058C0853141F1873109F444C052C0D5
:10172000FE01EC57FF4F80819181892B29F0B8820F
:1017300083E597E02DD246C0C88244C080916D07F2
:1017400090916E07892B09F03DC0D0936E07C0932E
:101750006D07FE01A192CF01D4D0F80186A197A117
:10176000019697A386A32EC0FE01ED57FF4F8081FF
:10177000811117C02D853E85F80180819181281740
:10178000390769F48B8580FF0AC09882FE01EC5707
:10179000FF4FF182E08280E697E0FAD113C0D88251
:1017A00011C0D8820FC0CE01B5DAFE01E957FF4F54
:1017B0000190F081E02D309719F4CE018CD902C050
:1017C000CE011995CE0191D9EC01892B09F09BCF5F
:1017D000DF91CF911F910F91FF90EF90DF90CF900D
:1017E000BF90AF909F90089580916F07982F9F7042
:1017F000E4E5F1E08081807F892B808380916F0711
:10180000882329F080917007809353010895809177
:101810007007982F9F71E8E4F1E08081807E892B2A
:1018200080830895A2E4B1E023E0E1E4F1E02C93A9
:1018300090819F719830D9F7A2E4B1E0E1E4F1E042
:101840008C9390819F718913FBCF089588E0EADF24
:101850008FEF80934F0180917107882311F086E10B
:10186000E1CF089560E481E00E94F701E9E3F1E04F
:101870008081816080831092710710926F0781E0F0
:101880008093F20788E0CEDF8BEE80935601ECE484
:10189000F1E0808180688083808183608083089507
:1018A00080937107D3CF0895809370079DCF0895DB
:1018B000CF93DF931F921F92CDB7DEB79A838983B0
:1018C000809362018A81809363010F900F90DF9172
:1018D000CF910895CF93DF931F921F92CDB7DEB7BC
:1018E0009A838983809360018A81809361019981C1
:1018F0008A81890F80936D010F900F90DF91CF91B6
:101900000895CF93DF93EC0189E18CDF8FEF809313
:101910004F0188818E5F809380018881882381F0C8
:1019200020E0822F90E0FC01EF57FE4FDE01A80F70
:10193000B91F11968C9180832F5F8881281788F3B7
:1019400083E08093F20782E080934201DF91CF91A0
:1019500008951F93CF93DF9300D01F921F92CDB7AE
:10196000DEB78091F207823009F465C080914F01A3
:1019700083FF3EC0A0917B016A2F70E0AB014F5FF7
:101980005F4F80E090E020E0FC01E058FE4F3081A6
:10199000FC01EE58F84F30832F5F822F90E08417C0
:1019A000950794F382E797E09A838983A250AB83EB
:1019B000FB01EE58F84F80818C83809147018A5556
:1019C0008D83CE010196B2DAE1E4F1E080818F717E
:1019D0008631E1F7EFE4F1E0808188608083ECE418
:1019E000F1E080818F77808380818068808323C04D
:1019F00080914F0186FF1FC0809141018F71893115
:101A0000A9F41091420112951695177049F0133000
:101A100021F0153021F013E003C011E001C012E005
:101A200015DF81E08093F207812F21DEEFE4F1E002
:101A30008081806480830F900F900F900F900F90A3
:101A4000DF91CF911F91089578D076D50BDF0C945C
:101A50000D0408957EDF0E943B04A5C008950F93F6
:101A60001F93CF93DF93EC018091F3079091F407DC
:101A7000009709F445C04E815F8168857985FC0136
:101A80000281138124813581401751076207730752
:101A900060F0DC0117C00281138124813581401779
:101AA00051076207730768F403C0FC01A0E0B0E0CF
:101AB000041B150B260B370B0283138324833583FA
:101AC0000AC0DF01401B510B620B730BED91FC91BF
:101AD0001197309701F74A835B836C837D8310975E
:101AE00041F08D919C91119799838883CD93DC93DC
:101AF00015C099838883D093F407C093F3070EC071
:101B0000198218828E819F81A885B9858A839B83DB
:101B1000AC83BD83D093F407C093F307DF91CF91DB
:101B20001F910F9108958091C5088F5F8093C5081C
:101B300080E197E20C94FF0008951092C50883E9B4
:101B40009DE00E94C2010E94740180E197E20E9420
:101B5000FF001092F4071092F3070895E091F30745
:101B6000F091F407309771F0E817F90721F40CC0F1
:101B70008E179F0759F00190F081E02D3097C1F743
:101B800080E0089580E0089581E0089581E008955F
:101B9000CF93DF93EC01E2DF811102C0CE015FDF62
:101BA000DF91CF910895CF92DF92EF92FF920F9342
:101BB0001F93CF93DF931F92CDB7DEB78091C508F7
:101BC000882309F453C08FB78983F8948981C09022
:101BD000C5081092C5088FBFD12CE12CF12CCC0C7C
:101BE000DD1CEE1CFF1CD701C601880F991FAA1F20
:101BF000BB1F880F991FAA1FBB1FC80ED91EEA1E44
:101C0000FB1E1BC0C81AD90AEA0AFB0AD8018D912B
:101C10009C9111979093F4078093F3071A968C91F7
:101C2000813011F4C8011BDFD8011B96ED91FC91A6
:101C30001C97309711F0C80119950091F307109186
:101C4000F4070115110591F0F80182819381A481B7
:101C5000B581C816D906EA06FB06A0F68C199D09BF
:101C6000AE09BF0982839383A483B5830F90DF916C
:101C7000CF911F910F91FF90EF90DF90CF9008953B
:101C80000C947B0108950C94B30108958091840015
:101C9000909185000895EFE6F0E080818D7F80834C
:101CA000B19A0895B19AEFE6F0E080818260808376
:101CB0000895EFE6F0E0808181608083B09A089516
:101CC00080E890E082C30895E9E8F0E02081922B5B
:101CD0009083E8E8F0E09081892B80830895CF938A
:101CE000DF931F92CDB7DEB78FB78983F8948981D0
:101CF0000F90DF91CF9108958FBF0895CF93DF9319
:101D000080E890E0EBD260E47EE080E890E0D4D31D
:101D1000CFE6D0E088818160888363E47EE080E85C
:101D200090E0EAD388818D7F8883E1E8F0E08081CC
:101D30008160808380E1DF91CF9108951F920F929F
:101D40000FB60F9211240BB60F922F933F934F9320
:101D50005F936F937F938F939F93AF93BF93EF9313
:101D6000FF93E0911308F0911408309709F019954A
:101D7000FF91EF91BF91AF919F918F917F916F9163
:101D80005F914F913F912F910F900BBE0F900FBE1F
:101D90000F901F9018951F920F920FB60F9211245B
:101DA0000BB60F922F933F934F935F936F937F9355
:101DB0008F939F93AF93BF93EF93FF93E09111089D
:101DC000F0911208309709F01995FF91EF91BF91AA
:101DD000AF919F918F917F916F915F914F913F91C3
:101DE0002F910F900BBE0F900FBE0F901F90189564
:101DF0001F920F920FB60F9211240BB60F922F93D2
:101E00003F934F935F936F937F938F939F93AF9382
:101E1000BF93EF93FF93E0910F08F0911008309774
:101E200009F01995FF91EF91BF91AF919F918F911B
:101E30007F916F915F914F913F912F910F900BBECA
:101E40000F900FBE0F901F9018951F920F920FB614
:101E50000F9211240BB60F922F933F934F935F93E2
:101E60006F937F938F939F93AF93BF93EF93FF9362
:101E7000E0910D08F0910E08309709F01995FF9147
:101E8000EF91BF91AF919F918F917F916F915F91F2
:101E90004F913F912F910F900BBE0F900FBE0F905F
:101EA0001F9018951F920F920FB60F9211240BB628
:101EB0000F922F933F934F935F936F937F938F93E3
:101EC0009F93AF93BF93EF93FF93E0910B08F09133
:101ED0000C08309709F01995FF91EF91BF91AF91E0
:101EE0009F918F917F916F915F914F913F912F9132
:101EF0000F900BBE0F900FBE0F901F9018951F9262
:101F00000F920FB60F9211240BB60F922F933F939F
:101F10004F935F936F937F938F939F93AF93BF93F1
:101F2000EF93FF93E0910908F0910A08309709F0C8
:101F30001995FF91EF91BF91AF919F918F917F91F3
:101F40006F915F914F913F912F910F900BBE0F902A
:101F50000FBE0F901F9018951F920F920FB60F9201
:101F600011240BB60F922F933F934F935F936F9370
:101F70007F938F939F93AF93BF93EF93FF93E091E2
:101F80000708F0910808309709F01995FF91EF9133
:101F9000BF91AF919F918F917F916F915F914F9181
:101FA0003F912F910F900BBE0F900FBE0F901F907F
:101FB00018951F920F920FB60F9211240BB60F9225
:101FC0002F933F934F935F936F937F938F939F9341
:101FD000AF93BF93EF93FF93E0910508F09106084C
:101FE000309709F01995FF91EF91BF91AF919F91B3
:101FF0008F917F916F915F914F913F912F910F90B2
:102000000BBE0F900FBE0F901F9018951F920F924E
:102010000FB60F9211240BB60F922F933F934F934D
:102020005F936F937F938F939F93AF93BF93EF9340
:10203000FF93E0910308F0910408309709F0199597
:10204000FF91EF91BF91AF919F918F917F916F9190
:102050005F914F913F912F910F900BBE0F900FBE4C
:102060000F901F9018951F920F920FB60F92112488
:102070000BB60F922F933F934F935F936F937F9382
:102080008F939F93AF93BF93EF93FF93E0910108DA
:10209000F0910208309709F01995FF91EF91BF91E7
:1020A000AF919F918F917F916F915F914F913F91F0
:1020B0002F910F900BBE0F900FBE0F901F90189591
:1020C0001F920F920FB60F9211240BB60F922F93FF
:1020D0003F934F935F936F937F938F939F93AF93B0
:1020E000BF93EF93FF93E091FF07F09100083097C3
:1020F00009F01995FF91EF91BF91AF919F918F9149
:102100007F916F915F914F913F912F910F900BBEF7
:102110000F900FBE0F901F9018951F920F920FB641
:102120000F9211240BB60F922F933F934F935F930F
:102130006F937F938F939F93AF93BF93EF93FF938F
:10214000E091FD07F091FE07309709F01995FF9196
:10215000EF91BF91AF919F918F917F916F915F911F
:102160004F913F912F910F900BBE0F900FBE0F908C
:102170001F9018951F920F920FB60F9211240BB655
:102180000F922F933F934F935F936F937F938F9310
:102190009F93AF93BF93EF93FF93E091FB07F09171
:1021A000FC07309709F01995FF91EF91BF91AF911E
:1021B0009F918F917F916F915F914F913F912F915F
:1021C0000F900BBE0F900FBE0F901F9018951F928F
:1021D0000F920FB60F9211240BB60F922F933F93CD
:1021E0004F935F936F937F938F939F93AF93BF931F
:1021F000EF93FF93E091F907F091FA07309709F018
:102200001995FF91EF91BF91AF919F918F917F9120
:102210006F915F914F913F912F910F900BBE0F9057
:102220000FBE0F901F9018951F920F920FB60F922E
:1022300011240BB60F922F933F934F935F936F939D
:102240007F938F939F93AF93BF93EF93FF93E0910F
:10225000F707F091F807309709F01995FF91EF9182
:10226000BF91AF919F918F917F916F915F914F91AE
:102270003F912F910F900BBE0F900FBE0F901F90AC
:1022800018951F920F920FB60F9211240BB60F9252
:102290002F933F934F935F936F937F938F939F936E
:1022A000AF93BF93EF93FF93E091F507F091F6079B
:1022B000309709F01995FF91EF91BF91AF919F91E0
:1022C0008F917F916F915F914F913F912F910F90DF
:1022D0000BBE0F900FBE0F901F9018951F93CF93BA
:1022E000DF931F92CDB7DEB72FB72983F8941981FA
:1022F000009709F464C08837910549F461E080E0F3
:102300000E94F70160E180E00E94F70158C0803C24
:10231000910529F462E080E00E94F70150C08C34FE
:10232000910529F464E080E00E94F70148C08038FC
:10233000910529F468E080E00E94F70140C08434F0
:10234000910529F460E280E00E94F70138C0803BEB
:10235000910529F460E480E00E94F70130C0883BD9
:10236000910529F460E880E00E94F70128C0883CCC
:10237000910529F461E081E00E94F70120C08039D5
:10238000910529F468E081E00E94F70118C0803AC5
:10239000910529F460E181E00E94F70110C08032CC
:1023A00021E0920729F460E281E00E94F70107C072
:1023B0008334914021F460E481E00E94F7011FBF63
:1023C0000F90DF91CF911F9108951F93CF93DF93CB
:1023D0001F92CDB7DEB72FB72983F89419810097E4
:1023E00009F464C08837910549F461E080E00E94F7
:1023F0000F0260E180E00E940F0258C0803C91050E
:1024000029F462E080E00E940F0250C08C349105F4
:1024100029F464E080E00E940F0248C080389105F2
:1024200029F468E080E00E940F0240C084349105E6
:1024300029F460E280E00E940F0238C0803B9105E1
:1024400029F460E480E00E940F0230C0883B9105CF
:1024500029F460E880E00E940F0228C0883C9105C2
:1024600029F461E081E00E940F0220C080399105CB
:1024700029F468E081E00E940F0218C0803A9105BB
:1024800029F460E181E00E940F0210C0803221E057
:10249000920729F460E281E00E940F0207C08334B2
:1024A000914021F460E481E00E940F021FBF0F9071
:1024B000DF91CF911F9108958038910529F4709391
:1024C00014086093130808958039910529F47093D6
:1024D0000C0860930B080895803A910529F47093D5
:1024E00004086093030808958032914021F47093AA
:1024F000FC076093FB0708958038910529F47093D9
:1025000012086093110808958039910529F4709399
:102510000A08609309080895803A910529F4709398
:1025200002086093010808958032914021F470936D
:10253000FA076093F90708950895109285080895A1
:102540000F931F93CF93DC0119962C91222389F0CE
:102550008C01C0E0D8011796ED91FC911897EC0F13
:10256000F11D80810E94B703CF5FF8018185C817F4
:1025700088F381E0CF911F910F9108955D9886E4D3
:102580000E94D60182EF0E94D60180E00E94D6010F
:102590008BE80E94D60180EC0E94D60186E00E9462
:1025A000D6015D9A08955D9888E60E94D6015D9AED
:1025B00008958AB18AB9E9E6F0E0808180830895C0
:1025C000CF92DF92EF92FF920F931F93CF93DF93FF
:1025D00000D01F921F92CDB7DEB75D9887E40E94AE
:1025E000D60180E40E94D601898380E40E94D6014E
:1025F0008A8380E40E94D6018B8380E40E94D60106
:102600008C8380E40E94D6018D835D9ACE01019671
:102610007C016E0196E0C90ED11C00E0F70111911A
:102620007F01812F0E94B703163761F028F4112330
:1026300049F0163641F406C0103C21F0123F11F06B
:102640001B3809F40F5F053009F401E0EC14FD04B8
:1026500029F7802F0F900F900F900F900F90DF9120
:10266000CF911F910F91FF90EF90DF90CF90089541
:102670000E94DC010E948502E7D90E9457037894EA
:1026800080E090E00E94240487E695E40E942B04F9
:102690008FE00AD981E004D960EA72E181E00E940A
:1026A00032040E94C70185DF69DF8ADFE6E8F8E0CF
:1026B00081E090E0968385838783808782E08187AD
:1026C0008CE68487EF010F2EF8E1EF2EF8E0FF2E65
:1026D000F02D0DE912E1DD24D39423C08CB19D2DA2
:1026E000282F207184FD90E0809116089817A1F0A2
:1026F000809115088F5F80931508843090F0909337
:102700001608211102C0D092C908109215088091B4
:10271000C908811104C005C01092150802C0E89ACA
:1027200042DF8091C9088823C9F2809184088130F2
:1027300079F48091850881110BC0FB86EA861E879B
:102740000D87CE010E946704D092850810928408FC
:10275000F89478947FD9E5CF1F920F920FB60F921D
:1027600011240BB60F922F933F934F935F936F9368
:102770007F938F939F93AF93BF93EF93FF93F894BF
:102780005D9881E48EBD0DB407FEFDCF80E48EBD63
:102790000DB407FEFDCF8EB5E0911708F0E0E85EBE
:1027A000F74F808380E48EBD809117088F5F809300
:1027B00017080DB407FEFDCF5D9AE0911708ED36BE
:1027C000F1F41092170880918508811110C0E6E895
:1027D000F8E088E198E0938782878DE992E1968717
:1027E0008587CF010E94670481E0809385088EB5BC
:1027F000E0911708F0E0E85EF74F808321C081E0A8
:102800008E0F809317089EB5F0E0E85EF74F908337
:102810008D36B1F41092170880918508811110C08F
:10282000E6E8F8E088E198E0938782878DE992E115
:1028300096878587CF010E94670481E08093850891
:102840007894FF91EF91BF91AF919F918F917F917C
:102850006F915F914F913F912F910F900BBE0F9011
:102860000FBE0F901F901895DB018F939F9341D05F
:10287000BF91AF91A29F800D911DA39F900DB29F1C
:10288000900D11240895AA1BBB1B51E107C0AA1F7C
:10289000BB1FA617B70710F0A61BB70B881F991F01
:1028A0005A95A9F780959095BC01CD010895A1E2B4
:1028B0001A2EAA1BBB1BFD010DC0AA1FBB1FEE1FBA
:1028C000FF1FA217B307E407F50720F0A21BB30B05
:1028D000E40BF50B661F771F881F991F1A9469F781
:1028E00060957095809590959B01AC01BD01CF01DD
:1028F000089509D0A59F900DB49F900DA49F800DC1
:10290000911D11240895A29FB001B39FC001A39F00
:10291000700D811D1124911DB29F700D811D112418
:10292000911D08958F929F92AF92BF92CF92DF92A6
:10293000EF92FF92CF93DF93EC01688179818A81D6
:102940009B81611571058105910521F464E279EDA2
:102950008BE597E02DE133EF41E050E0CDD1490127
:102960005A019B01AC01A7EAB1E4C3DF6B017C0112
:10297000ACEEB4EFA5019401DDD1DC01CB018C0DEF
:102980009D1DAE1DBF1DB7FF03C00197A109B04833
:1029900088839983AA83BB839F77DF91CF91FF9030
:1029A000EF90DF90CF90BF90AF909F908F90089561
:1029B000B9CF80E092E0B6CFA0E0B0E08093000213
:1029C00090930102A0930202B09303020895FB01C9
:1029D000DC0102C001900D9241505040D8F708959B
:1029E0000F931F93CF93DF93009731F46115710517
:1029F00019F480E090E039C08B01EC016EE070E0EA
:102A000081E090E037D0FC01892B99F380E8838343
:102A10000115110571F01387028781E88383809186
:102A2000CB089091CC08892B21F4F093CC08E0934B
:102A3000CB082097C9F0D187C087838182608383C8
:102A40008091CD089091CE08892B71F4F093CE0837
:102A5000E093CD088091CF089091D008892B21F484
:102A6000F093D008E093CF08CF01DF91CF911F9171
:102A70000F9108950F931F93CF93DF93869F80014B
:102A8000879F100D969F100D1124C8010DD0EC01E9
:102A9000009721F0A80160E070E027D1CE01DF911E
:102AA000CF911F910F9108950F931F93CF93DF93B1
:102AB0008230910510F482E090E0E091D308F0912B
:102AC000D40820E030E0A0E0B0E0309719F1408178
:102AD00051810281138148175907C8F0841795075F
:102AE00069F4109731F012960C93129713961C9379
:102AF00027C00093D3081093D40822C021153105B4
:102B000019F04217530718F49A01BD01EF01DF01D4
:102B1000F801DBCF21153105F9F0281B390B2430E2
:102B2000310580F48A819B816115710521F0FB01DB
:102B30009383828304C09093D4088093D308FE01CA
:102B4000329644C0FE01E20FF31F8193919322500D
:102B50003109398328833AC02091D1083091D208B5
:102B6000232B41F420910602309107023093D208C2
:102B70002093D108209104023091050221153105DE
:102B800041F42DB73EB74091080250910902241B31
:102B9000350BE091D108F091D208E217F307A0F4C9
:102BA0002E1B3F0B2817390778F0AC014E5F5F4FA3
:102BB0002417350748F04E0F5F1F5093D2084093FB
:102BC000D1088193919302C0E0E0F0E0CF01DF9162
:102BD000CF911F910F910895CF93DF93009709F440
:102BE00081C0FC01329713821282A091D308B09168
:102BF000D408109781F420813181820F931F209196
:102C0000D1083091D2082817390751F5F093D2082E
:102C1000E093D10867C0ED0120E030E0CE17DF0778
:102C200040F44A815B819E0141155105F1F0EA01B2
:102C3000F5CFD383C28340815181840F951FC8177C
:102C4000D90759F488819981840F951F0296918341
:102C500080838A819B81938382832115310529F4A6
:102C6000F093D408E093D3083DC0E901FB83EA83E5
:102C700049915991C40FD51FEC17FD0761F480816C
:102C80009181840F951F0296E9019983888382813F
:102C900093819B838A83E0E0F0E012968D919C9172
:102CA0001397009719F0FD01DC01F7CF8D919C91EE
:102CB00011979D012E5F3F4F820F931F2091D108E6
:102CC0003091D2082817390769F4309729F4109207
:102CD000D4081092D30802C013821282B093D20893
:102CE000A093D108DF91CF910895DC0101C06D93CD
:102CF00041505040E0F70895052E97FB16F40094DC
:102D00000FD057FD05D0D3DD07FC02D046F408C034
:102D100050954095309521953F4F4F4F5F4F089507
:102D200090958095709561957F4F8F4F9F4F089537
:102D3000B7FFDFCDDEDD821B930B0895F894FFCF44
:102D4000010000000000D508200080841E00030060
:022D5000010080
:00000001FF
