:1000000099C00000B8C00000B6C00000B4C0000035
:10001000B2C00000B0C00000AEC00000ACC0000024
:10002000AAC00000A8C00000A6C00000A4C0000034
:10003000A2C00000A0C000009EC000009CC0000044
:100040009AC000000C94EF100C941C110C944911F0
:100050000C94C21090C000008EC000008CC0000044
:100060008AC0000088C0000086C0000084C0000074
:1000700082C0000079C200007EC000007CC0000089
:100080000C94A3110C94D0110C94FD110C947611C6
:10009000D1C3000070C000006EC000006CC0000042
:1000A0006AC0000068C000000C9457120C948412BF
:1000B0000C94B1120C942A125EC000000C940B1325
:1000C0000C9438130C9465130C94DE1254C0000089
:1000D00052C0000050C000004EC000004CC00000E4
:1000E0004AC0000048C0000046C0000044C00000F4
:1000F00042C0000040C000003EC000003CC0000004
:100100003AC0000038C0000036C0000034C0000013
:1001100032C0000030C000002EC000002CC0000023
:100120002AC0000028C0000026C0000024C0000033
:1001300022C0000011241FBECFEFD1E8DEBFCDBF2B
:1001400000E00CBF12E0A0E0B2E0E2E6F2E300E083
:100150000BBF02C007900D92A231B107D9F72AE078
:10016000A2E1B2E001C01D92A731B207E1F70E94FF
:10017000C7150C942F1944CF0E946A1020911602C3
:100180002223D9F040910C0A30E020911602642F0E
:10019000732F0E94D416FB018FEF9FEF642F732FF4
:1001A0000E94D41630E0629FC001639F900D729F41
:1001B000900D11248E0F9F1F089560910C0A70E01E
:1001C0000E94D416CB0108950E946F100E949310D4
:1001D0001092120210921302109214021092150241
:1001E00010921802109217020C94A0100E947D1019
:1001F000109216020895E8DFF9DF0C9484100F9333
:100200001F93CF93DF93EC010E946A108C01BE0113
:1002100080E090E020910C0A30E040E050E00E9445
:10022000C516DC01CB01A80160E070E0480F591F42
:100230006A1F7B1F409312025093130260931402B3
:1002400070931502409112025091130260911402B2
:1002500070911502AB0166277727409312025093E5
:100260001302609314027093150240911202509190
:100270001302609114027091150241155105610538
:10028000710591F040911202509113026091140295
:10029000709115020196080F191F10931802009310
:1002A00017020E946F1008C0080F191F1093180240
:1002B000009317020E947610809117029091180205
:1002C0008436910530F48C599F4F90931802809397
:1002D000170280911702909118020E948810DF91F6
:1002E000CF911F910F910895109216020E94A210B3
:1002F00080930C0A08958091120290911302A091AC
:100300001402B09115020097A105B105C9F08091C2
:10031000120290911302A0911402B091150201975C
:10032000A109B1098093120290931302A0931402C1
:10033000B09315020097A105B10511F40E94761043
:10034000809116028F5F8093160290910C0A891794
:1003500048F010921602E0911902F0911A023097BB
:1003600009F0199508950E946F10E0911B02F09119
:100370001C02309709F01995089590931A02809302
:100380001902089590931C0280931B020895CF9345
:10039000DF931F92CDB7DEB78FEF80936400809319
:1003A00065008FB78983F89489815F9350E85093F3
:1003B000610050E0509361005F918FBF0F90DF911B
:1003C000CF910895CF93DF931F92CDB7DEB79FB73C
:1003D0009983F8949981823040F4E82FF0E0EC5949
:1003E000FF4F60958081682360839FBF0F90DF91EE
:1003F000CF910895CF93DF931F92CDB7DEB79FB70C
:100400009983F8949981823038F4E82FF0E0EC5920
:10041000FF4F8081682B60839FBF0F90DF91CF914A
:100420000895EF92FF920F931F93CF93DF937C0178
:100430008B01EA01209739F0F80161918F01C70122
:10044000BED02197C9F780E0DF91CF911F910F9126
:10045000FF90EF900895EF92FF920F931F93CF9329
:10046000DF937C018B01EA01209739F0C701AED000
:10047000F80181938F012197C9F780E0DF91CF9137
:100480001F910F91FF90EF900895CF93DF931F92EC
:10049000CDB7DEB78091CF099091D009E091CB091B
:1004A000F091CC09BE016F5F7F4F19958981082EAD
:1004B000000C990B0F90DF91CF910895682F8091D8
:1004C000CF099091D009E091CD09F091CE0919950D
:1004D00099231CF081E090E008958FEF9FEF08953D
:1004E0002C9A249A6C98749A0895DC0180911E02CB
:1004F00090911F02891728F0282F291B20931D0295
:1005000005C02DE6280F291B20931D0290911D0286
:10051000992331F19D3640F080931F028DE6809340
:100520001D026D3638F403C0961708F4692F611167
:1005300002C018C06DE690911F02262FE92FF0E04F
:10054000E05EFD4F30813D9321509C3611F09F5F5E
:1005500001C090E02111F2CF90931F02862F0895E1
:1005600080E0089580E008951F920F920FB60F92D9
:1005700011240BB60F928F939F93EF93FF93F894F0
:10058000909179009093D10980911E02E82FF0E0BC
:10059000E05EFD4F90838C3619F410921E0203C06A
:1005A0008F5F80931E027894FF91EF919F918F91BE
:1005B0000F900BBE0F900FBE0F901F901895FC016F
:1005C000908195FFFDCF668380E00895FC019081C6
:1005D0009923ECF7868108958F929F92AF92BF92F4
:1005E000CF92DF92EF92FF920F931F93CF93DF93FF
:1005F000EC016A017B01C901B801689412F8969573
:100600008795779567951694D1F76C157D058E05BE
:100610009F0578F148015901689413F8B694A7949E
:10062000979487941694D1F78C149D04AE04BF045C
:1006300020F5E881E260E88320C0288121FF0AC01C
:10064000A70196010E94E816DA01C9010197A109E4
:10065000B1090BC0C501B401A70196010E94E816BB
:10066000DA01C9010197A109B1099D838C8381E059
:1006700013C080E011C080E00FC00F2EF3E136956B
:10068000279517950795FA95D1F7F02DC016D10645
:10069000E206F30690F6EFCFDF91CF911F910F9115
:1006A000FF90EF90DF90CF90BF90AF909F908F9092
:1006B00008950F931F93CF93DF93EC018B01803C40
:1006C000910521F462E080E07DDE06C0883C910562
:1006D00019F461E081E076DE8A818F738A83F80104
:1006E0002681358184819A81482F4370440F997FF8
:1006F000942B9A8399818470880F880F9B7F892B14
:1007000089838A818F7C832B8A839A81977F822F2A
:10071000880F880F880F892B8A83408151816281DD
:10072000738100E014E224EF30E0CE0155DF9981BF
:1007300098609983998190619983DF91CF911F91FE
:100740000F910895CF93DF93EB0140DF8883DF9112
:10075000CF91089534CF08950F931F93CF93DF93D4
:10076000CDB7DEB727970FB6F894DEBF0FBECDBF6B
:1007700008EC10E01093D0090093CF098AEA93E0C7
:100780009093CE098093CD0982EA93E09093CC09AF
:100790008093CB09EAE0F2E084818D8385818E83AA
:1007A00086818F8380819181A281B38189839A839D
:1007B000AB83BC83BE016F5F7F4F88EC90E079DF35
:1007C00065E472E08EE592E00E948117F801818174
:1007D0008068818327960FB6F894DEBF0FBECDBF29
:1007E000DF91CF911F910F910895FF920F931F9367
:1007F000CF93DF938C01F62EC62FD0E0AE01B80167
:1008000088EC90E00EDE8111F9CF8F2DDF91CF9132
:100810001F910F91FF900895CF93DF931F92CDB753
:10082000DEB7898361E0CE010196DFDF0F90DF91B3
:10083000CF9108951F920F920FB60F9211240BB60D
:100840000F922F933F934F935F936F937F938F9369
:100850009F93AF93BF93EF93FF93CF93DF931F9239
:10086000CDB7DEB741E050E0BE016F5F7F4F88EC4F
:1008700090E0F1DDF89480918D02E82FF0E0E257EE
:10088000FD4F998190838B3919F410928D0203C02A
:100890008F5F80938D0278940F90DF91CF91FF91BD
:1008A000EF91BF91AF919F918F917F916F915F91E8
:1008B0004F913F912F910F900BBE0F900FBE0F9055
:1008C0001F901895E2EDF9E01482158211821082D2
:1008D00017AA16AAE8EDF9E088EF99E011921192B3
:1008E000E817F907D9F7ADD765D318D143D096D11A
:1008F00004C608959093D3098093D2090C94400EB6
:1009000008959093D5098093D4090C942E0E0895E0
:10091000E82FF0E0EE0FFF1FE852F64F718360837F
:1009200008959AD30E942A0D4ED03EC60895E091B4
:100930002A03F0912B033097D9F02281338182175B
:10094000930789F405C0228133812817390759F4A8
:10095000DC01AD57BF4F2C91278713962C91208B2C
:1009600022E0248305C00190F081E02D309759F7F3
:1009700012C1089510922B0310922A030895FC01CE
:100980001482178613821282A2EDB9E0D6968D9159
:100990009C91D7970196D7969C938E93D6978091EA
:1009A0002A0390912B03009739F411821082F0935F
:1009B0002B03E0932A03089591838083F0932B0304
:1009C000E0932A0308950F931F93CF93DF93E09151
:1009D0002A03F0912B03309709F49BC0EF018C811F
:1009E000882321F0823009F46EC08DC09ED08C0126
:1009F000009721F482E08C838F878BC09B838A834E
:100A000081E08C83F801E957FF4F87E994E09183F7
:100A100080833197898582FB882780F98083998537
:100A2000D8011B968C911B9790FB80F91B968C9399
:100A30001B97998593FB992790F990FB82F91B9658
:100A40008C931B9799859695917090FB81F91B96D5
:100A50008C931B97E2EDF9E084818F5F84831C9671
:100A60008C931C97808191811E969C938E931D97E9
:100A70008D819E8150969C938E931F978885982F89
:100A80009F7051968C915197807F892B51968C93B2
:100A900051979F819295907F8F70892B51968C935F
:100AA000F801EF57FF4F4C8550E06A857B858081C8
:100AB00091810E947817F80191818C85890F81833B
:100AC000C801E2D626C0EC17FD0741F48081918170
:100AD00090932B0380932A030AC0FC0180819181AB
:100AE0008C179D07D1F78881998191838083E2EDEE
:100AF000F9E086A997A9019797AB86ABED85FE85AE
:100B0000CE01199506C00990D881C02D209709F013
:100B100066CFDF91CF911F910F91089510922C0312
:100B20001092B50310923E04089580912C038823FF
:100B300071F08091B503882339F080913E048111D2
:100B400027C082E090E005C081E090E002C080E034
:100B500090E049E8489F9001499F300D1124C90158
:100B6000845D9C4FFC0111924A95E9F740E1FC013C
:100B70004183EF57FF4F225C3C4F31832083E2EDEE
:100B8000F9E026A937A92F5F3F4F37AB26AB089571
:100B900080E090E00895FC011082E2EDF9E086A982
:100BA00097A9019797AB86AB0895009741F0FC0198
:100BB000E757FF4F84E0E73CF80718F012C0ECE27B
:100BC000F3E08081882321F00FC0808181110FC064
:100BD000E757FF4F84E0E73CF807B8F380E090E088
:100BE000089580E090E008958E2F9F2F08958E2F16
:100BF0009F2F0895FC01DC01AD57BF4F1C92A2ED61
:100C0000B9E014969C9114979F5F14969C93149747
:100C100094878D919C91968785870895A8ECB4E080
:100C200080E090E04FEF5FEF11965C934E93FC01F4
:100C3000EE0FFF1FEE0FFF1FEE0FFF1FE81BF90B5C
:100C4000E953FB4F20812E7F208314961C9214972A
:100C5000019617968436910539F708950F931F93DF
:100C6000CF93DF93E8ECF4E020E030E0062F10E0D3
:100C70004081518148175907B1F4D901AA0FBB1F10
:100C8000AA0FBB1FAA0FBB1FA21BB30BA953BB4FBD
:100C90004C9146954170C42F40E0D42FC017D10726
:100CA00011F4CD0108C02F5F3F4F37962436310530
:100CB000F9F680E090E0DF91CF911F910F910895B8
:100CC000A0E0B0E0E7ECF4E0808180FD0DC085811C
:100CD000882381F0109739F015969C911597891704
:100CE00018F4DF0101C0DF01379687E0E338F80729
:100CF00059F7FD0180818D708063808380E8858352
:100D0000CF010895FC01808180FD05C08FEF9FEF2A
:100D10009283818315820895A1DF009721F0FC0161
:100D20008381948108958FEF9FEF089597DF009757
:100D300009F0E8CF08950F931F93CF93DF93FC0141
:100D40000185128511232CF48585968508171907CE
:100D5000E1F5858196810196C1F1EF0160E085851D
:100D600096857CDFFC01892BA1F08F819885019607
:100D7000F9F42091D2093091D3098F8598892817E9
:100D80003907B1F41483038380818F70806380837B
:100D90000AC096DFFC018D859E85928381838985BB
:100DA0009A8594838383CD57DF4F888186830DC0D6
:100DB0008381948108171907B1F39681DE01AD573D
:100DC000BF4F8C919817F0F2EECFDF91CF911F912A
:100DD0000F910895CF93DF93FC01878590898F3F12
:100DE0002FEF9207D9F1EF01638563FB662760F966
:100DF00035DFDC01892B91F18C9180FD2FC0FE0144
:100E0000ED57FF4F8081811119C08C918F708063E5
:100E10008C9315968C9115978F5F15968C938F3FB9
:100E2000E9F4ECECF4E028E837E0808186958F5F08
:100E300080833796E217F307C1F710C09C91892F82
:100E400082958F70815F8F70282F2295207F9F70F1
:100E5000922B9C93811102C0CD0154DFDF91CF9181
:100E60000895CF93DF93FC01878590898F3F2FEF03
:100E7000920729F48FEF9FEF908787830EC0238519
:100E800022FF03C09087878308C0EF01638563FB5F
:100E9000662760F941DF98878F83DF91CF910895AE
:100EA000AF92BF92CF92DF92EF92FF921F93CF93B8
:100EB000DF93EC011B8513FB112710F9CF84D88831
:100EC000612FC60129DF019659F0FE01E957FF4F56
:100ED00011821082319782E08083CE01D5D422C066
:100EE000AD84BE8422DE7C010097D1F083DEF70161
:100EF00081818A5F8183E957FF4F11821082F70158
:100F0000B08AA786EF57FF4F0190F081E02D81E076
:100F10008083B282A182D482C3821583C701B4D4F4
:100F2000CE0139DEDF91CF911F91FF90EF90DF90DE
:100F3000CF90BF90AF900895FC012185263049F4F1
:100F40000780F085E02D658183819481EFDE81E06B
:100F5000089580E00895DC0119962C9119972223B9
:100F600071F01796ED91FC9118972081222319F0CA
:100F7000213019F006C022C50895DECF089580E023
:100F8000089580E00895BC01E5E9F7E027EC37E03B
:100F900040E051E09081992319F091509083452FC2
:100FA0003596E217F307B1F7442319F0CB010C94FF
:100FB000EC0F0895E5E9F7E087EC97E010823596AD
:100FC000E817F907D9F7E3E8F7E084E690E0A0E056
:100FD000B0E086839783A087B187128683EC97E081
:100FE000948783876BEA77E080E092CC0895CF9373
:100FF000DF93DC01ED91FC91119721812838F9F400
:1010000020812F7D2134D9F412962C912031B8F013
:10101000EC018BDD009799F020E2FC0120832A810E
:1010200021832B81ED57FF4F20832C813196208324
:101030004A8150E06881798102960E947817DF9199
:10104000CF910895662321F022E2FC0120830895C8
:1010500024E2FC01208308952F923F924F925F92E9
:101060006F927F928F929F92AF92BF92CF92DF92B8
:10107000EF92FF920F931F93CF93DF93CDB7DEB71D
:101080002C970FB6F894DEBF0FBECDBF00E010E086
:101090000F2EF4E2BF2EF02D0F2EF2EDEF2EF9E021
:1010A000FF2EF02DAA24A3946894662464F8689413
:1010B000552453F86894442442F8212C312C0F2EE7
:1010C000FFE17F2EF02DCC24C394D12CEFC1D801A9
:1010D0008C91823209F41AC130F4803259F0813295
:1010E00009F410C1E3C1833209F4DBC1843209F48D
:1010F000DBC1DCC1F801B082838583FDD7C12581C6
:1011000036812F3F3F4FC9F4D8011F962D913C9156
:101110005097F701408151814217530721F02F3F2B
:101120003F4F09F0C3C181FF04C0E1E2D801EC9355
:10113000BDC1E2E2D801EC93B9C1D8011F962D914F
:101140003C9150972F3F3F4F11F480FDAFC1F70105
:1011500020813181D8011D968D919C911E97281771
:10116000390709F4A3C1C801E6DDE1E9F7E080E051
:1011700090E0822C932C9C014481442309F474C098
:10118000D8011D966D917C911E9740815181641705
:10119000750709F06AC01C968C911C97F901EE0F37
:1011A000FF1FEE0FFF1FE20FF31FEF56F84F928164
:1011B000981B983008F03EC0F901EE0FFF1FEE0FAC
:1011C000FF1FE20FF31FEF56F84F8381482F50E0C7
:1011D000092E02C0559547950A94E2F740FF17C0C3
:1011E000F7012081318117968D919C9118972817CE
:1011F000390709F05BC11B966C911B9763FB66274F
:1012000060F91F968D919C91509790DD4FC1F90127
:10121000EE0FFF1FEE0FFF1F2E0F3F1FF901EF56BE
:10122000F84F960102C0220F331F9A95E2F7822BE6
:10123000838343C1F901EE0FFF1FEE0FFF1F2E0F37
:101240003F1FF901EF56F84F82838381282F30E04A
:101250009195A90102C0440F551F9A95E2F7CA0162
:1012600081608383748229C14F01019635968A304B
:10127000910509F080CF8114910409F417C1D801B8
:101280001D968D919C911E97F401918380831C96ED
:101290008C918283A382748283E897E09DD60DC1EE
:1012A000D7012D913C91F80187859089281739073E
:1012B00081F0438542FD0BC0C8013BD3D7012D917E
:1012C0003C91F801878590892817390711F001961C
:1012D00069F4D8011B968C911B9781FF03C0E1E252
:1012E000EC93E4C0E2E2D801EC93E0C0D801179699
:1012F0008D919C9118978217930709F0D7C0E3E26C
:10130000EC93D4C060E0C801FFD0D0C01092900729
:10131000D80151968C91519782958F70E82FF0E00B
:10132000EE0FFF1FE852F64F0190F081E02D30974D
:1013300009F460C01D962D913C911E973A83298334
:101340001F964D915C9150975C834B8351969C9175
:1013500051979F709D838E83AF57BF4F8D919C9106
:1013600099878887B8016E5F7F4F861B970BD801DE
:1013700011969C911197981B9A87AD57BF4F8C91EE
:101380008B8711968C918C87D8011B969C91692F25
:10139000637092FD02C080E001C080E2862B93FD65
:1013A00002C090E001C090E4892B4F3F5F4F11F0E5
:1013B00090E001C0942D892BD80119964D915C9134
:1013C0001A972417350711F090E001C0952D892B4D
:1013D0008F83D80115962D913C9116972F3F3F4F43
:1013E00011F090E001C0962D892B8F83CE010196DC
:1013F000199501C080E0F801938590FF80E0D80145
:1014000017962D913C9118972F3F3F4F69F4F701A4
:1014100040815181D8011F962D913C9150974217E0
:10142000530711F493FF8A2DF801258136812F3F50
:101430003F4FA1F1D7012D913C912F3F3F4F71F1CB
:10144000882361F172DB4C01009741F1D3DBF40199
:1014500081818D5F8183E957FF4F11821082D8010E
:101460001B968C911B9786958170F401938580FB68
:1014700091F993871D968D919C911E97908B8787EC
:10148000EF57FF4F0190F081E02D1082809190077F
:1014900082831C968C918183C401F6D1D801BC92C1
:1014A00005C0C801FDDC02C0C80175DBC8017DDBD9
:1014B0008C01892B09F00BCE07C0F801878190853C
:1014C000019609F0FBCEECCE2C960FB6F894DEBF59
:1014D0000FBECDBFDF91CF911F910F91FF90EF9085
:1014E000DF90CF90BF90AF909F908F907F906F9044
:1014F0005F904F903F902F9008951092D8071092D0
:10150000D7071092D6070895662321F020E3FC0147
:10151000208303C021E3FC0120838091D8078F5FE3
:101520008093D8070895CF93DF93C091D607D091C9
:10153000D707FE01EF57FF4FA081B1817091D4070B
:10154000872F90E05091D507652F513108F060E169
:101550006623D1F04091D307E3ECF7E0A80FB91F61
:101560002FEF260F30E02C53384F9C918081892734
:101570008D93442311F0808303C090818927808359
:101580003196E217F30789F7760F7093D407561B4D
:101590005093D507552319F082E3888302C084E372
:1015A0008883DF91CF9108950F931F93CF93DF939B
:1015B0008091D807882309F4E1C0E091D607F09123
:1015C000D707309709F4D4C08081843309F055C01F
:1015D0008091D407DF01AF57BF4FCD91DC91C80F89
:1015E000D11DA3ECB7E00D911D912D913C91139766
:1015F00014964D915D916D917C9117970427152755
:101600002627372718964D915D916D917C911B97F8
:1016100004271527262737271C964D915D916D913C
:101620007C911F97D901C80184279527A627B72742
:101630002091D307222351F088839983AA83BB8307
:1016400081818C5F8183CF01DED10DC061E0088193
:1016500019812A813B81081719072A073B0709F0DE
:1016600060E0CF01EFDC1092D7071092D60780918F
:10167000D80781508093D80781C0823309F07EC09B
:1016800083E3808368EF79E083EC97E0CCD376C086
:10169000DC012C912053223008F06CC09093D707C6
:1016A0008093D607E3ECF7E01C964C911C9750E032
:1016B00060E070E040835183628373831F964D9195
:1016C0005C91509760E070E0BA015527442751962D
:1016D0002C91519722952F70422B4483558366831A
:1016E00077831D964D915C911E9760E070E0BA0182
:1016F0005527442751962C9151972F70422B4087A4
:1017000051876287738715964D915C91169760E0BB
:1017100070E0BA01552744271B962C911B97422B4A
:1017200044875587668777876C91613331F41196CA
:101730002C911197245011962C93FC01EF57FF4FD9
:10174000408151819C012E5F3F4F421B530BFC0196
:101750002181241B2093D5071092D40721E0603308
:1017600009F020E02093D30722E3DC012C9306C08C
:1017700080E090E01ADA009709F08ACFDF91CF91EC
:101780001F910F910895EF92FF920F931F93CF93A4
:101790007C0110E080E090E001E0C3E113C0FC01B7
:1017A0002081213179F4EC57FF4F20813181215084
:1017B000310931832083232B21F4FC01C083102FB6
:1017C00001C0102FF2D9009751F7112311F0C70172
:1017D00003D4CF911F910F91FF90EF900895EF9256
:1017E000FF920F931F93CF93DF937C0110E080E073
:1017F00090E001E0D7E1C0E116C0FC012081263174
:1018000091F4EC57FF4F2081318121503109318310
:101810002083232B39F4FC01D083ED57FF4FC08385
:10182000102F01C0102FC1D9009739F7112311F0E3
:10183000C701D2D3DF91CF911F910F91FF90EF900D
:1018400008951092F4071092F307E6EEF7E082E3B2
:1018500090E0A0E0B0E086839783A087B1871286EE
:101860008FEE9BE094878387E9EDF7E08AE090E0D4
:10187000A0E0B0E086839783A087B187128683ECCF
:101880009BE0948783870895CF93DF93EC01FC015D
:10189000EA57FF4F808181FF03C092E1988308C01F
:1018A0009B8591FF03C090E1988302C092E19883E9
:1018B000FE01ED57FF4F108280FF05C02FEF3FEF75
:1018C0003E832D8306C02091D4093091D5093E83F3
:1018D0002D83857019F4CE01C4DA04C08F859889F0
:1018E00098878F83E2EDF9E0808191819A878987DB
:1018F00085818F5F85838C838F819885019671F4B4
:1019000081E498E89B838A830E946A17CC57DF4F53
:101910008770992701969983888308C081E698E8A3
:101920009B838A83CC57DF4F19821882DF91CF9136
:1019300008950F931F93CF93DF938C01F6D8EC019A
:10194000892BB9F182E18883F80181818983FE01C5
:10195000ED57FF4F10820E946A17FE01EC57FF4FB0
:101960008770992701969183808333961182108224
:10197000F801418150E0B8016E5F7F4FCE010296C1
:101980000E94781781E498E89B838A838FEF9FEF0A
:1019900098878F83F801858196819E838D83E2ED00
:1019A000F9E0808191819A87898785818F5F85831E
:1019B0008C83DF91CF911F910F910895CF93DF9387
:1019C000FC0121852330D9F410C0FC01208126318F
:1019D00089F43485298132130DC027E120832A81BF
:1019E000EA57FF4F208381E00BC0FC01C781D085FF
:1019F00080E090E0DAD8009741F780E001C080E015
:101A0000DF91CF91089522E1FC0120830895E091B8
:101A1000F307F091F407813021F048F0823019F09B
:101A200004C080E205C081E203C081E001C080E023
:101A3000DF01AD57BF4F8C9385E180831092F4078F
:101A40001092F307E2EDF9E086A997A9019797AB09
:101A500086AB08959F92AF92BF92CF92DF92EF92A2
:101A6000FF920F931F93CF93DF93C0E0D0E00F2E30
:101A7000F4E1AF2EF02D02ED19E00F2EF7E1DF2E8D
:101A8000F02D0F2EF6E19F2EF02D0F2EF5E1EF2E0B
:101A9000F12CF02D0F2EF3E1CF2EF02D0F2EF1E1D2
:101AA000BF2EF02D65C088818331F1F028F480319C
:101AB00049F0823159F05CC0853161F1873109F418
:101AC00048C056C061E0CE011FDD52C0FE01EC5798
:101AD000FF4F80819181892B29F0B88289ED97E0B1
:101AE0007BD246C0C88244C08091F3079091F4072E
:101AF000892B09F03DC0D093F407C093F307FE0192
:101B0000A192CF01D4D0F80186A997A9019697ABED
:101B100086AB2EC0FE01ED57FF4F8081811117C0AB
:101B20002D853E85F801808191812817390769F458
:101B30008B8580FF0AC09882FE01EC57FF4FF1822F
:101B4000E08286EE97E048D213C0D88211C0D882D6
:101B50000FC0CE013FD9FE01E957FF4F0190F08140
:101B6000E02D309719F4CE0116D802C0CE01199598
:101B7000CE011BD8EC01892B09F095CFDF91CF91D5
:101B80001F910F91FF90EF90DF90CF90BF90AF909B
:101B90009F9008958091F507982F9F70E4E5F1E0FC
:101BA0008081807F892B80838091F507882329F0AD
:101BB0008091F6078093530108958091F607982F3E
:101BC0009F71E8E4F1E08081807E892B8083089515
:101BD000A2E4B1E023E0E1E4F1E02C9390819F7175
:101BE0009830D9F7A2E4B1E0E1E4F1E08C93908180
:101BF0009F718913FBCF089588E0EADF8FEF809310
:101C00004F018091F707882311F086E1E1CF089515
:101C100060E481E00E94E201E9E3F1E0808181601B
:101C200080831092F7071092F50781E0809378087F
:101C300088E0CEDF8BEE80935601ECE4F1E080810A
:101C40008360808380818068808308958093F70714
:101C5000D3CF08958093F6079DCF0895CF93DF9358
:101C60001F921F92CDB7DEB79A838983809362015A
:101C70008A81809363010F900F90DF91CF91089537
:101C8000CF93DF931F921F92CDB7DEB79A838983DC
:101C9000809360018A818093610199818A81890F93
:101CA00080936D010F900F90DF91CF910895CF93A6
:101CB000DF93EC0189E18CDF8FEF80934F01888106
:101CC0008E5F809380018881882381F020E0822FBD
:101CD00090E0FC01EF57FE4FDE01A80FB91F1196EF
:101CE0008C9180832F5F8881281788F383E080930D
:101CF000780882E080934201DF91CF910895CF93DD
:101D0000DF93EC01CB0140E060E051D6CE0139D643
:101D1000CE01DBD6DF91CF9108951F93CF93DF9350
:101D200000D01F921F92CDB7DEB780917808823025
:101D300009F465C080914F0183FF3EC0A0917B01F3
:101D40006A2F70E0AB014F5F5F4F80E090E020E0D2
:101D5000FC01E058FE4F3081FC01E850F84F308321
:101D60002F5F822F90E08417950794F388EF97E018
:101D70009A838983A250AB83FB01E850F84F80819E
:101D80008C83809147018A558D83CE0101962FD98E
:101D9000E1E4F1E080818F718631E1F7EFE4F1E079
:101DA000808188608083ECE4F1E080818F7780839C
:101DB00080818068808323C080914F0186FF1FC08F
:101DC000809141018F718931A9F4109142011295DE
:101DD0001695177049F0133021F0153021F013E0FB
:101DE00003C011E001C012E007DF81E080937808B2
:101DF000812F0DDEEFE4F1E08081806480830F901D
:101E00000F900F900F900F90DF91CF911F91089539
:101E10007BD0B6D5FDDE0C94620408957EDF0E946F
:101E20009104E5C008956BDF7ECB08950F931F9357
:101E3000CF93DF93EC018091790890917A08009715
:101E400009F445C04E815F8168857985FC01028176
:101E5000138124813581401751076207730760F0B1
:101E6000DC0117C00281138124813581401751079D
:101E70006207730768F403C0FC01A0E0B0E0041B34
:101E8000150B260B370B02831383248335830AC07B
:101E9000DF01401B510B620B730BED91FC9111970D
:101EA000309701F74A835B836C837D83109741F001
:101EB0008D919C91119799838883CD93DC9315C064
:101EC00099838883D0937A08C09379080EC01982C9
:101ED00018828E819F81A885B9858A839B83AC8374
:101EE000BD83D0937A08C0937908DF91CF911F9179
:101EF0000F91089580910A0A8F5F80930A0A80E10A
:101F000097E20C94FF00089510920A0A8AE79FE076
:101F10000E94C2010E94740180E197E20E94FF00CA
:101F200010927A08109279080895CF93DF93A091C8
:101F30007908B0917A08109791F1A817B90751F56F
:101F40000AC08E179F0729F5109731F02081318143
:101F50002D933C9307C0FC012081318130937A0896
:101F6000209379080190F081E02D3097C1F04281F3
:101F7000538164817581EC018A819B81AC81BD8133
:101F8000840F951FA61FB71F82839383A483B583F5
:101F900006C0DF01ED91FC911197309791F6DF912A
:101FA000CF910895E0917908F0917A08309771F017
:101FB000E817F90721F40CC08E179F0759F001901C
:101FC000F081E02D3097C1F780E0089580E008951A
:101FD00081E0089581E00895CF93DF93EC01E2DF83
:101FE000811102C0CE0122DFDF91CF910895CF92FF
:101FF000DF92EF92FF920F931F93CF93DF931F9285
:10200000CDB7DEB780910A0A882309F453C08FB791
:102010008983F8948981C0900A0A10920A0A8FBFB6
:10202000D12CE12CF12CCC0CDD1CEE1CFF1CD701BB
:10203000C601880F991FAA1FBB1F880F991FAA1FCF
:10204000BB1FC80ED91EEA1EFB1E1BC0C81AD90A28
:10205000EA0AFB0AD8018D919C91119790937A0816
:10206000809379081A968C91813011F4C801DEDED4
:10207000D8011B96ED91FC911C97309711F0C80187
:1020800019950091790810917A080115110591F0C0
:10209000F80182819381A481B581C816D906EA0628
:1020A000FB06A0F68C199D09AE09BF0982839383B4
:1020B000A483B5830F90DF91CF911F910F91FF9073
:1020C000EF90DF90CF9008950C947B0108950C94CD
:1020D000B301089580918400909185000895EFE602
:1020E000F0E080818D7F8083B19A0895B19AEFE608
:1020F000F0E08081826080830895EFE6F0E08081E7
:1021000081608083B09A089580E890E082C308954A
:10211000E9E8F0E02081922B9083E8E8F0E09081FC
:10212000892B80830895CF93DF931F92CDB7DEB7BD
:102130008FB78983F89489810F90DF91CF910895AB
:102140008FBF0895CF93DF9380E890E0EBD264E6F1
:1021500070E180E890E0D4D3CFE6D0E08881816060
:10216000888367E670E180E890E0EAD388818D7F1C
:102170008883E1E8F0E080818160808380E1DF9105
:10218000CF9108951F920F920FB60F9211240BB6A4
:102190000F922F933F934F935F936F937F938F9300
:1021A0009F93AF93BF93EF93FF93E0919908F091C2
:1021B0009A08309709F01995FF91EF91BF91AF916F
:1021C0009F918F917F916F915F914F913F912F914F
:1021D0000F900BBE0F900FBE0F901F9018951F927F
:1021E0000F920FB60F9211240BB60F922F933F93BD
:1021F0004F935F936F937F938F939F93AF93BF930F
:10220000EF93FF93E0919708F0919808309709F0C9
:102210001995FF91EF91BF91AF919F918F917F9110
:102220006F915F914F913F912F910F900BBE0F9047
:102230000FBE0F901F9018951F920F920FB60F921E
:1022400011240BB60F922F933F934F935F936F938D
:102250007F938F939F93AF93BF93EF93FF93E091FF
:102260009508F0919608309709F01995FF91EF9134
:10227000BF91AF919F918F917F916F915F914F919E
:102280003F912F910F900BBE0F900FBE0F901F909C
:1022900018951F920F920FB60F9211240BB60F9242
:1022A0002F933F934F935F936F937F938F939F935E
:1022B000AF93BF93EF93FF93E0919308F09194084D
:1022C000309709F01995FF91EF91BF91AF919F91D0
:1022D0008F917F916F915F914F913F912F910F90CF
:1022E0000BBE0F900FBE0F901F9018951F920F926C
:1022F0000FB60F9211240BB60F922F933F934F936B
:102300005F936F937F938F939F93AF93BF93EF935D
:10231000FF93E0919108F0919208309709F0199598
:10232000FF91EF91BF91AF919F918F917F916F91AD
:102330005F914F913F912F910F900BBE0F900FBE69
:102340000F901F9018951F920F920FB60F921124A5
:102350000BB60F922F933F934F935F936F937F939F
:102360008F939F93AF93BF93EF93FF93E0918F0869
:10237000F0919008309709F01995FF91EF91BF9176
:10238000AF919F918F917F916F915F914F913F910D
:102390002F910F900BBE0F900FBE0F901F901895AE
:1023A0001F920F920FB60F9211240BB60F922F931C
:1023B0003F934F935F936F937F938F939F93AF93CD
:1023C000BF93EF93FF93E0918D08F0918E083097C3
:1023D00009F01995FF91EF91BF91AF919F918F9166
:1023E0007F916F915F914F913F912F910F900BBE15
:1023F0000F900FBE0F901F9018951F920F920FB65F
:102400000F9211240BB60F922F933F934F935F932C
:102410006F937F938F939F93AF93BF93EF93FF93AC
:10242000E0918B08F0918C08309709F01995FF9195
:10243000EF91BF91AF919F918F917F916F915F913C
:102440004F913F912F910F900BBE0F900FBE0F90A9
:102450001F9018951F920F920FB60F9211240BB672
:102460000F922F933F934F935F936F937F938F932D
:102470009F93AF93BF93EF93FF93E0918908F091FF
:102480008A08309709F01995FF91EF91BF91AF91AC
:102490009F918F917F916F915F914F913F912F917C
:1024A0000F900BBE0F900FBE0F901F9018951F92AC
:1024B0000F920FB60F9211240BB60F922F933F93EA
:1024C0004F935F936F937F938F939F93AF93BF933C
:1024D000EF93FF93E0918708F0918808309709F017
:1024E0001995FF91EF91BF91AF919F918F917F913E
:1024F0006F915F914F913F912F910F900BBE0F9075
:102500000FBE0F901F9018951F920F920FB60F924B
:1025100011240BB60F922F933F934F935F936F93BA
:102520007F938F939F93AF93BF93EF93FF93E0912C
:102530008508F0918608309709F01995FF91EF9181
:10254000BF91AF919F918F917F916F915F914F91CB
:102550003F912F910F900BBE0F900FBE0F901F90C9
:1025600018951F920F920FB60F9211240BB60F926F
:102570002F933F934F935F936F937F938F939F938B
:10258000AF93BF93EF93FF93E0918308F09184089A
:10259000309709F01995FF91EF91BF91AF919F91FD
:1025A0008F917F916F915F914F913F912F910F90FC
:1025B0000BBE0F900FBE0F901F9018951F920F9299
:1025C0000FB60F9211240BB60F922F933F934F9398
:1025D0005F936F937F938F939F93AF93BF93EF938B
:1025E000FF93E0918108F0918208309709F01995E6
:1025F000FF91EF91BF91AF919F918F917F916F91DB
:102600005F914F913F912F910F900BBE0F900FBE96
:102610000F901F9018951F920F920FB60F921124D2
:102620000BB60F922F933F934F935F936F937F93CC
:102630008F939F93AF93BF93EF93FF93E0917F08A6
:10264000F0918008309709F01995FF91EF91BF91B3
:10265000AF919F918F917F916F915F914F913F913A
:102660002F910F900BBE0F900FBE0F901F901895DB
:102670001F920F920FB60F9211240BB60F922F9349
:102680003F934F935F936F937F938F939F93AF93FA
:10269000BF93EF93FF93E0917D08F0917E08309710
:1026A00009F01995FF91EF91BF91AF919F918F9193
:1026B0007F916F915F914F913F912F910F900BBE42
:1026C0000F900FBE0F901F9018951F920F920FB68C
:1026D0000F9211240BB60F922F933F934F935F935A
:1026E0006F937F938F939F93AF93BF93EF93FF93DA
:1026F000E0917B08F0917C08309709F01995FF91E3
:10270000EF91BF91AF919F918F917F916F915F9169
:102710004F913F912F910F900BBE0F900FBE0F90D6
:102720001F9018951F93CF93DF931F92CDB7DEB7FD
:102730002FB72983F8941981009709F464C088376A
:10274000910549F461E080E00E94E20160E180E0EF
:102750000E94E20158C0803C910529F462E080E0CB
:102760000E94E20150C08C34910529F464E080E0BD
:102770000E94E20148C08038910529F468E080E0B9
:102780000E94E20140C08434910529F460E280E0B7
:102790000E94E20138C0803B910529F460E480E0AA
:1027A0000E94E20130C0883B910529F460E880E096
:1027B0000E94E20128C0883C910529F461E081E093
:1027C0000E94E20120C08039910529F468E081E08F
:1027D0000E94E20118C0803A910529F460E181E08D
:1027E0000E94E20110C0803221E0920729F460E2E9
:1027F00081E00E94E20107C08334914021F460E44B
:1028000081E00E94E2011FBF0F90DF91CF911F91E5
:1028100008951F93CF93DF931F92CDB7DEB72FB7E5
:102820002983F8941981009709F464C088379105C9
:1028300049F461E080E00E94FA0160E180E00E94DA
:10284000FA0158C0803C910529F462E080E00E94C2
:10285000FA0150C08C34910529F464E080E00E94B4
:10286000FA0148C08038910529F468E080E00E94B0
:10287000FA0140C08434910529F460E280E00E94AE
:10288000FA0138C0803B910529F460E480E00E94A1
:10289000FA0130C0883B910529F460E880E00E948D
:1028A000FA0128C0883C910529F461E081E00E948A
:1028B000FA0120C08039910529F468E081E00E9486
:1028C000FA0118C0803A910529F460E181E00E9484
:1028D000FA0110C0803221E0920729F460E281E021
:1028E0000E94FA0107C08334914021F460E481E042
:1028F0000E94FA011FBF0F90DF91CF911F910895A1
:102900008038910529F470939A0860939908089586
:102910008039910529F47093920860939108089585
:10292000803A910529F470938A0860938908089584
:102930008032914021F47093820860938108089559
:102940008038910529F4709398086093970808954A
:102950008039910529F47093900860938F08089549
:10296000803A910529F47093880860938708089548
:102970008032914021F47093800860937F0808951D
:102980000895FC019C01205F3F4FAEE3B1E08191CF
:102990008C93E217F307D9F78091BB088068809386
:1029A0003C01EDE3F1E0808180FFFDCF08950F93BE
:1029B0001F93CF93DF93CDB7DEB760970FB6F89430
:1029C000DEBF0FBECDBF062F142F0097C9F01092A7
:1029D000BC0822E02093110220E1FC01ABEAB8E040
:1029E00001900D922A95E1F7DC01AC01405F5F4F49
:1029F0002FE331E09D91F90190834A175B07D1F7EE
:102A0000112319F0113089F048C0809111028130F2
:102A100079F5EBEAF8E02BEB38E0AFE3B1E0819138
:102A20008C932E173F07D9F723C080911102813074
:102A3000B1F18091BC08811136C01092BB08109290
:102A40003C01CE0101969DDFEBE9F8E02BEA38E08E
:102A5000AFE3B1E08C9181932E173F07D9F781E066
:102A60008093BC0820C081918C932E173F07D9F723
:102A7000109311020230A8F4F0E20F9FC00111245C
:102A8000082F0072110F110F110F1870102B1093D7
:102A9000BB0810933C0181E00DC080E00BC080E0DA
:102AA00009C080E007C0EBE9F8E02BEA38E0AFE3CB
:102AB000B1E0D9CF60960FB6F894DEBF0FBECDBFA0
:102AC000DF91CF911F910F910895FC019C01205F30
:102AD0003F4FAEE3B1E08C918193E217F307D9F752
:102AE00008951092970908950F931F93CF93DC01D7
:102AF00019962C91222389F08C01C0E0D8011796F9
:102B0000ED91FC911897EC0FF11D80810E940C044F
:102B1000CF5FF8018185C81788F380E183B981E030
:102B2000CF911F910F910895CF93DF9380919709D3
:102B3000811128C0C091C408CC2321F14C2F50E052
:102B400065EC78E08EE299E0D3D1E8E9F9E081E044
:102B500090E096838583D1E0D783D08782E0818718
:102B60008EE299E093878287C48781E795E1968713
:102B70008587CF010E94BF041092C408D0939709A3
:102B800080E183B9DF91CF910895CECF08950E945F
:102B9000C7010E9470023CD90E94AC0361E080E052
:102BA0000E94E20184E880937A00EBE7F0E0808104
:102BB0008823ECF7A7E7B0E08AE08C93EAE7F0E03F
:102BC000808188608083808180628083CBE7D0E0D1
:102BD0008881887F8883ECE7F0E08081806C808347
:102BE0008081807E9881977F988380838C91806C90
:102BF0008C932C91808180628083229526952695E6
:102C0000237030E0245F3F4F22953295307F32278A
:102C1000207F3227032E000C440B550B60E074E23A
:102C200084EF90E0D5D02093BF083093C008409344
:102C3000C1085093C2087894E8ECF0E081818F7B62
:102C4000818381818F77818381818F7D81830F2E25
:102C5000F9EACF2EF9E0DF2EF02D0F2EF4E18F2EC2
:102C6000912CA12CB12CF02D0F2EF5EC4F2EF5E16F
:102C70005F2EF02D0F2EFAE76F2E712CF02D312CD8
:102C8000CDD88091B609811124C080E090E00E94E7
:102C90007A0487E695E40E9481048FE00E942A0E60
:102CA00081E00E94260E64E775E181E00E948804BD
:102CB000D60116968D929D92AD92BC9219971A9656
:102CC0001C921A971C965C924E921B9781E08093FF
:102CD000B6098CB191E0282F207184FD932D80914D
:102CE000BE08981789F08091BD088F5F8093BD085A
:102CF000843060F09093BE08211103C081E080937E
:102D00000B0A3092BD0802C03092BD0880910B0AB8
:102D1000882369F030920B0AF301808180648083FC
:102D200064E187EB99E00E9475028093C30880916B
:102D3000C308882309F4A4CFC7EBD9E000E010E072
:102D40007E0188810E940C048091C408893609F4B0
:102D5000EBDEE091C408E93650F481E08E0F8093F9
:102D6000C408F0E0EB53F74FD7018C9180830F5FDD
:102D70001F4F21968091C30890E00817190700F3B0
:102D8000C601D3D8C60128D97BCFDB018F939F938F
:102D900041D0BF91AF91A29F800D911DA39F900D37
:102DA000B29F900D11240895AA1BBB1B51E107C0CF
:102DB000AA1FBB1FA617B70710F0A61BB70B881FCB
:102DC000991F5A95A9F780959095BC01CD0108955A
:102DD000A1E21A2EAA1BBB1BFD010DC0AA1FBB1F1F
:102DE000EE1FFF1FA217B307E407F50720F0A21B91
:102DF000B30BE40BF50B661F771F881F991F1A94FE
:102E000069F760957095809590959B01AC01BD0127
:102E1000CF01089509D0A59F900DB49F900DA49F58
:102E2000800D911D11240895A29FB001B39FC00190
:102E3000A39F700D811D1124911DB29F700D811DE6
:102E40001124911D08958F929F92AF92BF92CF92BD
:102E5000DF92EF92FF92CF93DF93EC01688179814B
:102E60008A819B81611571058105910521F464E2D8
:102E700079ED8BE597E02DE133EF41E050E0CDD1E6
:102E800049015A019B01AC01A7EAB1E4C3DF6B0120
:102E90007C01ACEEB4EFA5019401DDD1DC01CB01E6
:102EA0008C0D9D1DAE1DBF1DB7FF03C00197A1096D
:102EB000B04888839983AA83BB839F77DF91CF91A2
:102EC000FF90EF90DF90CF90BF90AF909F908F904A
:102ED0000895B9CF80E092E0B6CFA0E0B0E0809353
:102EE000000290930102A0930202B093030208959E
:102EF000FB01DC0102C001900D9241505040D8F717
:102F000008950F931F93CF93DF93009731F46115CA
:102F1000710519F480E090E039C08B01EC016EE09E
:102F200070E081E090E037D0FC01892B99F380E8D4
:102F300083830115110571F01387028781E883836C
:102F400080910D0A90910E0A892B21F4F0930E0ABC
:102F5000E0930D0A2097C9F0D187C08783818260F2
:102F6000838380910F0A9091100A892B71F4F0935A
:102F7000100AE0930F0A8091110A9091120A892B8E
:102F800021F4F093120AE093110ACF01DF91CF915F
:102F90001F910F9108950F931F93CF93DF93869FF7
:102FA0008001879F100D969F100D1124C8010DD030
:102FB000EC01009721F0A80160E070E027D1CE017C
:102FC000DF91CF911F910F9108950F931F93CF938E
:102FD000DF938230910510F482E090E0E091150AD1
:102FE000F091160A20E030E0A0E0B0E0309719F14F
:102FF000408151810281138148175907C8F0841715
:10300000950769F4109731F012960C931297139666
:103010001C9327C00093150A1093160A22C021158D
:10302000310519F04217530718F49A01BD01EF0159
:10303000DF01F801DBCF21153105F9F0281B390B31
:103040002430310580F48A819B816115710521F05E
:10305000FB019383828304C09093160A8093150A20
:10306000FE01329644C0FE01E20FF31F819391935B
:1030700022503109398328833AC02091130A3091B4
:10308000140A232B41F42091060230910702309359
:10309000140A2093130A209104023091050221158D
:1030A000310541F42DB73EB7409108025091090215
:1030B000241B350BE091130AF091140AE217F30771
:1030C000A0F42E1B3F0B2817390778F0AC014E5F98
:1030D0005F4F2417350748F04E0F5F1F5093140AB7
:1030E0004093130A8193919302C0E0E0F0E0CF0196
:1030F000DF91CF911F910F910895CF93DF930097A8
:1031000009F481C0FC01329713821282A091150A42
:10311000B091160A109781F420813181820F931F9C
:103120002091130A3091140A2817390751F5F093AA
:10313000140AE093130A67C0ED0120E030E0CE17D7
:10314000DF0740F44A815B819E0141155105F1F092
:10315000EA01F5CFD383C28340815181840F951F4B
:10316000C817D90759F488819981840F951F029651
:10317000918380838A819B8193838283211531058A
:1031800029F4F093160AE093150A3DC0E901FB8388
:10319000EA8349915991C40FD51FEC17FD0761F4DB
:1031A00080819181840F951F0296E901998388831C
:1031B000828193819B838A83E0E0F0E012968D9177
:1031C0009C911397009719F0FD01DC01F7CF8D91C9
:1031D0009C9111979D012E5F3F4F820F931F20916D
:1031E000130A3091140A2817390769F4309729F423
:1031F0001092160A1092150A02C013821282B0931E
:10320000140AA093130ADF91CF910895DC0101C045
:103210006D9341505040E0F70895052E97FB16F44A
:1032200000940FD057FD05D0D3DD07FC02D046F443
:1032300008C050954095309521953F4F4F4F5F4FB7
:10324000089590958095709561957F4F8F4F9F4F12
:103250000895B7FFDFCDDEDD821B930B0895F89450
:02326000FFCF9E
:10326200010000000000170A200080841E000300F5
:02327200000258
:00000001FF
