S01A0000504545523250454552315F7370695F534C562E7372656350
S113000099C00000B8C00000B6C00000B4C0000031
S1130010B2C00000B0C00000AEC00000ACC0000020
S1130020AAC00000A8C00000A6C00000A4C0000030
S1130030A2C00000A0C000009EC000009CC0000040
S11300409AC00000AEC70000D9C700000C942B086A
S11300507BC7000090C000008EC000008CC0000070
S1130060D2C1000088C0000086C0000084C0000027
S113007082C0000080C000007EC000007CC0000080
S11300800C9485080C94B2080C94DF080C9458085E
S11300902AC4000070C000006EC000006CC00000E4
S11300A06AC0000068C000000C9439090C94660909
S11300B00C9493090C940C095EC000000C94ED0997
S11300C00C941A0A0C94470A0C94C00954C00000FA
S11300D052C0000050C000004EC000004CC00000E0
S11300E04AC0000048C0000046C0000044C00000F0
S11300F042C0000040C000003EC000003CC0000000
S11301003AC0000038C0000036C0000034C000000F
S113011032C0000030C000002EC000002CC000001F
S11301202AC0000028C0000026C0000024C000002F
S113013022C0000011241FBECFEFD1E8DEBFCDBF27
S113014000E00CBF12E0A0E0B2E0E0E6FBE100E07A
S11301500BBF02C007900D92AE30B107D9F728E06B
S1130160AEE0B2E001C01D92AB3EB207E1F70E94DF
S1130170A20B0C94AE0D44CF8FD6209112022223F1
S1130180D9F04091E00830E020911202642F732FDF
S11301900E94D30BFB018FEF9FEF642F732F0E94FC
S11301A0D30B30E0629FC001639F900D729F900D4E
S11301B011248E0F9F1F08956091E00870E00E9443
S11301C0D30BCB0108956DD690D610920E021092E7
S11301D00F02109210021092110210921402109247
S11301E0130290C66CD6109212020895ECDFFADF67
S11301F06DC60F931F93CF93DF93EC014DD68C0103
S1130200BE0180E090E02091E00830E040E050E062
S11302100E94C40BDC01CB01A80160E070E0480F30
S1130220591F6A1F7B1F40930E0250930F02609365
S113023010027093110240910E0250910F026091CE
S1130240100270911102AB016627772740930E02CA
S113025050930F02609310027093110240910E02AA
S113026050910F02609110027091110241155105D5
S11302706105710589F040910E0250910F02609161
S11302801002709111020196080F191F10931402A5
S11302900093130206D607C0080F191F1093140207
S11302A00093130205D680911302909114028436B0
S11302B0910530F48C599F4F90931402809313024C
S11302C0809113029091140205D6DF91CF911F9172
S11302D00F9108951092120217D68093E0080895A2
S11302E080910E0290910F02A0911002B091110220
S11302F00097A105B105C1F080910E0290910F0203
S1130300A0911002B09111020197A109B109809343
S11303100E0290930F02A0931002B0931102009763
S1130320A105B10509F4C4D5809112028F5F8093B1
S113033012029091E008891748F010921202E0919D
S11303401502F0911602309709F019950895A9D570
S1130350E0911702F0911802309709F01995089569
S11303609093160280931502089590931802809337
S11303701702089564E080E0CBD0239A83EC8CBD0F
S11303808DB581608DBD0895DC0180911D02909131
S11303901C02891728F0282F291B20931B0205C053
S11303A02CE9280F291B20931B0290911B029923EF
S11303B031F19C3940F080931C028CE980931B023C
S11303C06C3938F403C0961708F4692F611102C020
S11303D018C06CE990911C02262FE92FF0E0E25E30
S11303E0FD4F30813D9321509B3911F09F5F01C037
S11303F090E02111F2CF90931C02862F089580E0A3
S1130400089580E008951F920F920FB60F92112461
S11304100BB60F928F939F93EF93FF939EB5F8942F
S1130420973419F481E0809319028091190288238A
S1130430C9F180911A028230D9F028F4882349F056
S1130440813079F02FC0843019F1D0F0853041F13A
S113045029C082EF8EBD80911A028F5F80931A02A9
S113046021C01EBC80911A028F5F80931A021AC0A9
S11304708BE88EBD80911A028F5F80931A0212C09E
S113048080EC8EBD80911A028F5F80931A020AC09D
S113049086E08EBD80911A028F5F80931A0202C09B
S11304A085EA8EBD80911D02E82FF0E0E25EFD4FEB
S11304B090838B3919F410921D0203C08F5F8093CF
S11304C01D027894FF91EF919F918F910F900BBE35
S11304D00F900FBE0F901F901895CF93DF931F922C
S11304E0CDB7DEB78FEF80936400809365008FB73C
S11304F08983F89489815F9350E85093610050E0B8
S1130500509361005F918FBF0F90DF91CF91089559
S1130510CF93DF931F92CDB7DEB79FB79983F8943B
S11305209981823040F4E82FF0E0EC59FF4F609558
S11305308081682360839FBF0F90DF91CF910895DE
S1130540CF93DF931F92CDB7DEB79FB79983F8940B
S11305509981823038F4E82FF0E0EC59FF4F808124
S1130560682B60839FBF0F90DF91CF910895EF9226
S1130570FF920F931F93CF93DF937C018B01EA01CA
S1130580209739F0F80161918F01C70154D0219768
S1130590C9F780E0DF91CF911F910F91FF90EF9009
S11305A00895EF92FF920F931F93CF93DF937C01F3
S11305B08B01EA01209739F0C70144D0F8018193F7
S11305C08F012197C9F780E0DF91CF911F910F919F
S11305D0FF90EF900895CF93DF931F92CDB7DEB7CE
S11305E08091A5089091A608E091A108F091A20835
S11305F0BE016F5F7F4F19958981082E000C990BFE
S11306000F90DF91CF910895682F8091A508909164
S1130610A608E091A308F091A408199599231CF069
S113062081E090E008958FEF9FEF08952C9A249A2B
S11306306C98749A0895FC01908195FFFDCF6683B0
S113064080E00895FC0190819923ECF78681089558
S11306504F925F926F927F928F929F92AF92BF92CE
S1130660CF92DF92EF92FF920F931F93CF93DF937A
S1130670EC016A017B0128013901689412F876942F
S11306806794579447941694D1F7888181FD0EC0DE
S113069048015901072E73E1B694A794979487945F
S11306A07A95D1F7702DD301C20115C0D901C801C3
S11306B0689413F8B695A795979587951694D1F7EE
S11306C048015901072E74E1B694A794979487942E
S11306D07A95D1F7702D8C159D05AE05BF0578F17F
S11306E0C814D904EA04FB0460F1888181FF10C0B6
S11306F0A7019601220F331F441F551FC301B201E6
S11307000E94E70BDA01C9010197A109B10913C0DD
S1130710C901B801689413F89695879577956795FC
S11307201694D1F7A70196010E94E70BDA01C901DB
S11307300197A109B1099D838C8381E003C080E006
S113074001C080E0DF91CF911F910F91FF90EF9056
S1130750DF90CF90BF90AF909F908F907F906F90DD
S11307605F904F9008950F931F93CF93DF93EC0105
S11307708B01803C910521F462E080E0C9DE06C073
S1130780883C910519F461E081E0C2DE8A818F73AF
S11307908A83F8012681358184819A81482F4370A8
S11307A0440F997F942B9A8399818470880F880FC2
S11307B09B7F892B89838A818F7C832B8A839A816F
S11307C0977F822F880F880F880F892B8A83408117
S11307D051816281738100E014E224EF30E0CE01A4
S11307E037DF998198609983998190619983DF912A
S11307F0CF911F910F910895CF93DF93EB0122DFE7
S11308008883DF91CF91089516CF08950F931F9396
S1130810CF93DF93CDB7DEB727970FB6F894DEBF3B
S11308200FBECDBF08EC10E01093A6080093A508F6
S113083084E094E09093A4088093A3088CEF93E061
S11308409093A2088093A108E6E0F2E084818D836E
S113085085818E8386818F8380819181A281B381FA
S113086089839A83AB83BC83BE016F5F7F4F88EC1F
S113087090E079DF6BEE72E084E093E0E3D7F80177
S113088081818068818327960FB6F894DEBF0FBEFE
S1130890CDBFDF91CF911F910F910895FF920F93D8
S11308A01F93CF93DF938C01F62EC62FD0E0AE01B9
S11308B0B80188EC90E05BDE8111F9CF8F2DDF91D8
S11308C0CF911F910F91FF900895CF93DF931F92C3
S11308D0CDB7DEB7898361E0CE010196DFDF0F90EB
S11308E0DF91CF9108951F920F920FB60F921124AA
S11308F00BB60F922F933F934F935F936F937F9316
S11309008F939F93AF93BF93EF93FF93CF93DF9313
S11309101F92CDB7DEB741E050E0BE016F5F7F4F5D
S113092088EC90E03EDEF8948091BA02E82FF0E083
S1130930E554FD4F998190838B3919F41092BA02D2
S113094003C08F5F8093BA0278940F90DF91CF91A8
S1130950FF91EF91BF91AF919F918F917F916F9193
S11309605F914F913F912F910F900BBE0F900FBE4F
S11309700F901F901895E7EAF8E01482158211820F
S1130980108217AA16AAEDEAF8E08DEC98E011920D
S11309901192E817F907D9F760D1DDD012D00CD045
S11309A03CD0F6C00895E82FF0E0EE0FFF1FE355AA
S11309B0F74F718360830895109258031092570380
S11309C00895109259031092E20310926B04089553
S11309D0009741F0FC01E757FF4F84E0E43FF8073C
S11309E018F012C0E9E5F3E08081882321F00FC0FC
S11309F0808181110FC0E757FF4F84E0E43FF8077F
S1130A00B8F380E090E0089580E090E008958E2FA0
S1130A109F2F08958E2F9F2F0895A5EFB4E080E0B7
S1130A2090E04FEF5FEF11965C934E93FC01EE0F55
S1130A30FF1FEE0FFF1FEE0FFF1FE81BF90BEC501B
S1130A40FB4F20812E7F208314961C9214970196CD
S1130A5017968436910539F708950F931F93CF9312
S1130A60DF93E5EFF4E020E030E0062F10E0408172
S1130A70518148175907B1F4D901AA0FBB1FAA0F16
S1130A80BB1FAA0FBB1FA21BB30BAC50BB4F4C9197
S1130A9046954170C42F40E0D42FC017D10711F4FC
S1130AA0CD0108C02F5F3F4F379624363105F9F644
S1130AB080E090E0DF91CF911F910F910895FC01A8
S1130AC0808180FD05C08FEF9FEF92838183158223
S1130AD00895C3DF009709F0F2CF0895FC01218542
S1130AE0263049F40780F085E02D65818381948167
S1130AF0F0DF81E0089580E00895DC0119962C91DF
S1130B001997222371F01796ED91FC911897208183
S1130B10222319F0213019F006C0C2C00895DECF97
S1130B20089580E0089580E00895BC01E1ECF7E0C9
S1130B3023EF37E040E051E09081992319F0915080
S1130B409083452F3596E217F307B1F7442311F04C
S1130B50CB0193C10895E1ECF7E083EF97E01082B5
S1130B603596E817F907D9F7E0EBF7E084E690E06B
S1130B70A0E0B0E086839783A087B187128685E9D9
S1130B8095E0948783876DE775E080E00CCF089546
S1130B901092F1071092F0071092EF070895EF9268
S1130BA0FF920F931F93CF937C0110E080E090E0BD
S1130BB001E0C3E113C0FC012081213179F4EC5739
S1130BC0FF4F208131812150310931832083232B30
S1130BD021F4FC01C083102F01C0102FF9DE00970F
S1130BE051F7112311F0C70148D1CF911F910F91F3
S1130BF0FF90EF900895EF92FF920F931F93CF937E
S1130C00DF937C0110E080E090E001E0D7E1C0E1F7
S1130C1016C0FC012081263191F4EC57FF4F20814E
S1130C2031812150310931832083232B39F4FC0194
S1130C30D083ED57FF4FC083102F01C0102FC8DEA3
S1130C40009739F7112311F0C70117D1DF91CF9124
S1130C501F910F91FF90EF90089510920D0810923C
S1130C600C08EFEFF7E082E390E0A0E0B0E08683C9
S1130C709783A087B18712868BEF95E0948783874B
S1130C80E2EFF7E08AE090E0A0E0B0E086839783AB
S1130C90A087B18712868FEC95E0948783870895A7
S1130CA0CF93DF93FC0121852330D9F410C0FC01DC
S1130CB02081263189F43485298132130DC027E13E
S1130CC020832A81EA57FF4F208381E00BC0FC0177
S1130CD0C781D08580E090E07BDE009741F780E01B
S1130CE001C080E0DF91CF910895A2E4B1E023E058
S1130CF0E1E4F1E02C9390819F719830D9F7A2E45C
S1130D00B1E0E1E4F1E08C9390819F718913FBCF12
S1130D10089560E481E0FCDBE9E3F1E08081816037
S1130D20808310920F0810920E0881E080931008BF
S1130D3088E0DBDF8BEE80935601ECE4F1E0808108
S1130D4080688083089571D0FCD4E3DF14CE0895C5
S1130D500F931F93CF93DF93EC018091110890912F
S1130D601208009709F445C04E815F816885798532
S1130D70FC010281138124813581401751076207E8
S1130D80730760F0DC0117C002811381248135816F
S1130D90401751076207730768F403C0FC01A0E021
S1130DA0B0E0041B150B260B370B0283138324833B
S1130DB035830AC0DF01401B510B620B730BED91AD
S1130DC0FC911197309701F74A835B836C837D8391
S1130DD0109741F08D919C91119799838883CD93BD
S1130DE0DC9315C099838883D0931208C0931108AB
S1130DF00EC0198218828E819F81A885B9858A8345
S1130E009B83AC83BD83D0931208C0931108DF91F8
S1130E10CF911F910F9108958091DF088F5F809388
S1130E20DF0880E197E2E5C908951092DF088CE0BD
S1130E3097E09BDA4FDA80E197E2DBD9109212084F
S1130E40109211080895E0911108F091120830975A
S1130E5071F0E817F90721F40CC08E179F0759F0B9
S1130E600190F081E02D3097C1F780E0089580E093
S1130E70089581E0089581E00895CF93DF93EC0114
S1130E80E2DF811102C0CE0163DFDF91CF910895CB
S1130E9027CA08955CCA08958091840090918500C2
S1130EA00895EFE6F0E080818D7F8083B19A089504
S1130EB0B19AEFE6F0E08081826080830895EFE6E6
S1130EC0F0E0808181608083B09A089580E890E0AA
S1130ED081C30895E9E8F0E02081922B9083E8E84B
S1130EE0F0E09081892B80830895CF93DF931F9244
S1130EF0CDB7DEB78FB78983F89489810F90DF91DE
S1130F00CF9108958FBF0895CF93DF9380E890E049
S1130F10EBD268E477E080E890E0D3D3CFE6D0E08A
S1130F208881816088836AE477E080E890E0E9D38F
S1130F3088818D7F8883E1E8F0E08081816080830F
S1130F4080E1DF91CF9108951F920F920FB60F9217
S1130F5011240BB60F922F933F934F935F936F938C
S1130F607F938F939F93AF93BF93EF93FF93E091FE
S1130F703108F0913208309709F01995FF91EF91FB
S1130F80BF91AF919F918F917F916F915F914F919D
S1130F903F912F910F900BBE0F900FBE0F901F909B
S1130FA018951F920F920FB60F9211240BB60F9241
S1130FB02F933F934F935F936F937F938F939F935D
S1130FC0AF93BF93EF93FF93E0912F08F091300814
S1130FD0309709F01995FF91EF91BF91AF919F91CF
S1130FE08F917F916F915F914F913F912F910F90CE
S1130FF00BBE0F900FBE0F901F9018951F920F926B
S11310000FB60F9211240BB60F922F933F934F9369
S11310105F936F937F938F939F93AF93BF93EF935C
S1131020FF93E0912D08F0912E08309709F019955F
S1131030FF91EF91BF91AF919F918F917F916F91AC
S11310405F914F913F912F910F900BBE0F900FBE68
S11310500F901F9018951F920F920FB60F921124A4
S11310600BB60F922F933F934F935F936F937F939E
S11310708F939F93AF93BF93EF93FF93E0912B08CC
S1131080F0912C08309709F01995FF91EF91BF91D9
S1131090AF919F918F917F916F915F914F913F910C
S11310A02F910F900BBE0F900FBE0F901F901895AD
S11310B01F920F920FB60F9211240BB60F922F931B
S11310C03F934F935F936F937F938F939F93AF93CC
S11310D0BF93EF93FF93E0912908F0912A0830978A
S11310E009F01995FF91EF91BF91AF919F918F9165
S11310F07F916F915F914F913F912F910F900BBE14
S11311000F900FBE0F901F9018951F920F920FB65D
S11311100F9211240BB60F922F933F934F935F932B
S11311206F937F938F939F93AF93BF93EF93FF93AB
S1131130E0912708F0912808309709F01995FF915C
S1131140EF91BF91AF919F918F917F916F915F913B
S11311504F913F912F910F900BBE0F900FBE0F90A8
S11311601F9018951F920F920FB60F9211240BB671
S11311700F922F933F934F935F936F937F938F932C
S11311809F93AF93BF93EF93FF93E0912508F09162
S11311902608309709F01995FF91EF91BF91AF910F
S11311A09F918F917F916F915F914F913F912F917B
S11311B00F900BBE0F900FBE0F901F9018951F92AB
S11311C00F920FB60F9211240BB60F922F933F93E9
S11311D04F935F936F937F938F939F93AF93BF933B
S11311E0EF93FF93E0912308F0912408309709F0DE
S11311F01995FF91EF91BF91AF919F918F917F913D
S11312006F915F914F913F912F910F900BBE0F9073
S11312100FBE0F901F9018951F920F920FB60F924A
S113122011240BB60F922F933F934F935F936F93B9
S11312307F938F939F93AF93BF93EF93FF93E0912B
S11312402108F0912208309709F01995FF91EF9148
S1131250BF91AF919F918F917F916F915F914F91CA
S11312603F912F910F900BBE0F900FBE0F901F90C8
S113127018951F920F920FB60F9211240BB60F926E
S11312802F933F934F935F936F937F938F939F938A
S1131290AF93BF93EF93FF93E0911F08F091200861
S11312A0309709F01995FF91EF91BF91AF919F91FC
S11312B08F917F916F915F914F913F912F910F90FB
S11312C00BBE0F900FBE0F901F9018951F920F9298
S11312D00FB60F9211240BB60F922F933F934F9397
S11312E05F936F937F938F939F93AF93BF93EF938A
S11312F0FF93E0911D08F0911E08309709F01995AD
S1131300FF91EF91BF91AF919F918F917F916F91D9
S11313105F914F913F912F910F900BBE0F900FBE95
S11313200F901F9018951F920F920FB60F921124D1
S11313300BB60F922F933F934F935F936F937F93CB
S11313408F939F93AF93BF93EF93FF93E0911B0809
S1131350F0911C08309709F01995FF91EF91BF9116
S1131360AF919F918F917F916F915F914F913F9139
S11313702F910F900BBE0F900FBE0F901F901895DA
S11313801F920F920FB60F9211240BB60F922F9348
S11313903F934F935F936F937F938F939F93AF93F9
S11313A0BF93EF93FF93E0911908F0911A083097D7
S11313B009F01995FF91EF91BF91AF919F918F9192
S11313C07F916F915F914F913F912F910F900BBE41
S11313D00F900FBE0F901F9018951F920F920FB68B
S11313E00F9211240BB60F922F933F934F935F9359
S11313F06F937F938F939F93AF93BF93EF93FF93D9
S1131400E0911708F0911808309709F01995FF91A9
S1131410EF91BF91AF919F918F917F916F915F9168
S11314204F913F912F910F900BBE0F900FBE0F90D5
S11314301F9018951F920F920FB60F9211240BB69E
S11314400F922F933F934F935F936F937F938F9359
S11314509F93AF93BF93EF93FF93E0911508F0919F
S11314601608309709F01995FF91EF91BF91AF914C
S11314709F918F917F916F915F914F913F912F91A8
S11314800F900BBE0F900FBE0F901F9018951F92D8
S11314900F920FB60F9211240BB60F922F933F9316
S11314A04F935F936F937F938F939F93AF93BF9368
S11314B0EF93FF93E0911308F0911408309709F02B
S11314C01995FF91EF91BF91AF919F918F917F916A
S11314D06F915F914F913F912F910F900BBE0F90A1
S11314E00FBE0F901F9018951F93CF93DF931F92F9
S11314F0CDB7DEB72FB72983F8941981009709F483
S113150063C08837910541F461E080E001D860E16F
S113151080E00E94880258C0803C910529F462E072
S113152080E00E94880250C08C34910529F464E064
S113153080E00E94880248C08038910529F468E060
S113154080E00E94880240C08434910529F460E25E
S113155080E00E94880238C0803B910529F460E451
S113156080E00E94880230C0883B910529F460E83D
S113157080E00E94880228C0883C910529F461E03B
S113158081E00E94880220C08039910529F468E036
S113159081E00E94880218C0803A910529F460E134
S11315A081E00E94880210C0803221E0920729F471
S11315B060E281E00E94880207C08334914021F4F4
S11315C060E481E00E9488021FBF0F90DF91CF91F9
S11315D01F9108951F93CF93DF931F92CDB7DEB76A
S11315E02FB72983F8941981009709F464C08837C8
S11315F0910549F461E080E00E94A00260E180E08E
S11316000E94A00258C0803C910529F462E080E069
S11316100E94A00250C08C34910529F464E080E05B
S11316200E94A00248C08038910529F468E080E057
S11316300E94A00240C08434910529F460E280E055
S11316400E94A00238C0803B910529F460E480E048
S11316500E94A00230C0883B910529F460E880E034
S11316600E94A00228C0883C910529F461E081E031
S11316700E94A00220C08039910529F468E081E02D
S11316800E94A00218C0803A910529F460E181E02B
S11316900E94A00210C0803221E0920729F460E287
S11316A081E00E94A00207C08334914021F460E4E9
S11316B081E00E94A0021FBF0F90DF91CF911F9184
S11316C008958038910529F47093320860933108A5
S11316D008958039910529F470932A0860932908A4
S11316E00895803A910529F47093220860932108A3
S11316F008958032914021F470931A086093190878
S113170008958038910529F47093300860932F0868
S113171008958039910529F4709328086093270867
S11317200895803A910529F47093200860931F0866
S113173008958032914021F470931808609317083B
S1131740089508950E946D020E941603FCDA5ED883
S11317500E94BA0178946DE684E398E00E94C40183
S1131760809333088823B9F304E318E0C0E0D0E0A1
S1131770F80181918F01A9D821968091330890E0D6
S1131780C817D907A8F3E7CFDB018F939F9341D004
S1131790BF91AF91A29F800D911DA39F900DB29F09
S11317A0900D11240895AA1BBB1B51E107C0AA1F69
S11317B0BB1FA617B70710F0A61BB70B881F991FEE
S11317C05A95A9F780959095BC01CD010895A1E2A1
S11317D01A2EAA1BBB1BFD010DC0AA1FBB1FEE1FA7
S11317E0FF1FA217B307E407F50720F0A21BB30BF2
S11317F0E40BF50B661F771F881F991F1A9469F76E
S113180060957095809590959B01AC01BD01CF01C9
S1131810089509D0A59F900DB49F900DA49F800DAD
S1131820911D11240895A29FB001B39FC001A39FED
S1131830700D811D1124911DB29F700D811D112405
S1131840911D08950F931F93CF93DF93009731F465
S11318506115710519F480E090E039C08B01EC0149
S11318606EE070E081E090E037D0FC01892B99F3C1
S113187080E883830115110571F01387028781E8DD
S113188083838091E1089091E208892B21F4F093FD
S1131890E208E093E1082097C9F0D187C0878381EB
S11318A0826083838091E3089091E408892B71F42A
S11318B0F093E408E093E3088091E5089091E6084A
S11318C0892B21F4F093E608E093E508CF01DF913A
S11318D0CF911F910F9108950F931F93CF93DF938F
S11318E0869F8001879F100D969F100D1124C801BB
S11318F00DD0EC01009721F0A80160E070E027D141
S1131900CE01DF91CF911F910F9108950F931F93F3
S1131910CF93DF938230910510F482E090E0E09160
S1131920E908F091EA0820E030E0A0E0B0E0309768
S113193019F1408151810281138148175907C8F078
S11319408417950769F4109731F012960C93129747
S113195013961C9327C00093E9081093EA0822C049
S11319602115310519F04217530718F49A01BD01E6
S1131970EF01DF01F801DBCF21153105F9F0281B58
S1131980390B2430310580F48A819B8161157105FE
S113199021F0FB019383828304C09093EA0880932F
S11319A0E908FE01329644C0FE01E20FF31F819361
S11319B0919322503109398328833AC02091E70852
S11319C03091E808232B41F4209102023091030264
S11319D03093E8082093E708209100023091010237
S11319E02115310541F42DB73EB7409104025091C1
S11319F00502241B350BE091E708F091E808E21793
S1131A00F307A0F42E1B3F0B2817390778F0AC011D
S1131A104E5F5F4F2417350748F04E0F5F1F5093FA
S1131A20E8084093E7088193919302C0E0E0F0E076
S1131A30CF01DF91CF911F910F910895CF93DF9341
S1131A40009709F481C0FC01329713821282A0919D
S1131A50E908B091EA08109781F420813181820F5E
S1131A60931F2091E7083091E8082817390751F5AA
S1131A70F093E808E093E70867C0ED0120E030E068
S1131A80CE17DF0740F44A815B819E014115510561
S1131A90F1F0EA01F5CFD383C28340815181840FF1
S1131AA0951FC817D90759F488819981840F951F08
S1131AB00296918380838A819B81938382832115FB
S1131AC0310529F4F093EA08E093E9083DC0E901FF
S1131AD0FB83EA8349915991C40FD51FEC17FD0785
S1131AE061F480819181840F951F0296E9019983A5
S1131AF08883828193819B838A83E0E0F0E012965D
S1131B008D919C911397009719F0FD01DC01F7CF9B
S1131B108D919C9111979D012E5F3F4F820F931FD2
S1131B202091E7083091E8082817390769F43097BD
S1131B3029F41092EA081092E90802C01382128272
S1131B40B093E808A093E708DF91CF910895DC01F2
S1131B5001C06D9341505040E0F70895F894FFCFD1
S1111B600000EB0820008025000003000100B7
S9030000FC
