S02200004D43555F6374726C5F4144435F73657269616C324D61746C61622E7372656380
S113000099C00000E5C60000B5C00000B3C0000000
S1130010B1C00000AFC00000ADC00000ABC0000024
S1130020A9C00000A7C00000A5C00000A3C0000034
S1130030A1C000009FC000009DC000009BC0000044
S113004099C0000064C300008FC30000BAC300005D
S113005031C300008FC000008DC000008BC00000C1
S1130060E7C0000087C0000085C0000083C0000016
S113007081C000007FC000007DC000007BC0000084
S1130080FAC3000025C4000050C40000C7C3000028
S1130090C9C200006FC000006DC000006BC000004A
S11300A069C0000067C000009AC40000C5C4000015
S11300B0F0C4000067C400005DC0000044C5000037
S11300C06FC500009AC5000011C5000053C00000B0
S11300D051C000004FC000004DC000004BC00000E4
S11300E049C0000047C0000045C0000043C00000F4
S11300F041C000003FC000003DC000003BC0000004
S113010039C0000037C0000035C0000033C0000013
S113011031C000002FC000002DC000002BC0000023
S113012029C0000027C0000025C0000023C0000033
S113013021C0000011241FBECFEFD1E8DEBFCDBF28
S113014000E00CBF12E0A0E0B2E0EAEAF1E100E076
S11301500BBF02C007900D92AE31B107D9F723E06F
S1130160AEE1B2E001C01D92A83CB207E1F7E0D5D0
S11301700C94D30845CF64E080E0A0D084B18660BD
S113018084B98CB580658CBD8DB581608DBD80E2F0
S11301908AB95D9A08951092B3038EBD8091B3031A
S11301A08823E1F308958EBD0DB407FEFDCF8EB50F
S11301B00895DC018091200290911F02891728F094
S11301C0282F291B20931E0205C024E6280F291B73
S11301D020931E0290911E02992331F1943640F02F
S11301E080931F0284E680931E02643638F403C0B1
S11301F0961708F4692F611102C018C064E6909143
S11302001F02262FE92FF0E0EF5DFD4F30813D9373
S11302102150933611F09F5F01C090E02111F2CF7D
S113022090931F02862F089580E0089580E008953A
S11302301F920F920FB60F9211240BB60F928F9349
S11302409F93EF93FF939EB5F89480912002E82F3B
S1130250F0E0EF5DFD4F9083833619F41092200295
S113026003C08F5F80932002789481E08093B3036E
S1130270FF91EF919F918F910F900BBE0F900FBE46
S11302800F901F901895CF93DF931F92CDB7DEB7D1
S11302908FEF80936400809365008FB78983F8940F
S11302A089815F9350E85093610050E0509361005E
S11302B05F918FBF0F90DF91CF910895CF93DF931C
S11302C01F92CDB7DEB79FB79983F8949981823096
S11302D040F4E82FF0E0EC59FF4F609580816823EB
S11302E060839FBF0F90DF91CF910895EF92FF92AB
S11302F00F931F93CF93DF937C018B01EA01209727
S113030039F0F80161918F01C70154D02197C9F7E1
S113031080E0DF91CF911F910F91FF90EF900895AE
S1130320EF92FF920F931F93CF93DF937C018B0186
S1130330EA01209739F0C70144D0F80181938F0175
S11303402197C9F780E0DF91CF911F910F91FF9022
S1130350EF900895CF93DF931F92CDB7DEB78091CE
S1130360B8039091B903E091B403F091B503BE01D1
S11303706F5F7F4F19958981082E000C990B0F90A0
S1130380DF91CF910895682F8091B8039091B903BC
S1130390E091B603F091B703199599231CF081E01D
S11303A090E008958FEF9FEF08952C9A249A6C980B
S11303B0749A0895FC01908195FFFDCF668380E0D7
S11303C00895FC0190819923ECF7868108958F921A
S11303D09F92AF92BF92CF92DF92EF92FF920F93D0
S11303E01F93CF93DF93EC016A017B01C901B8012C
S11303F0689412F896958795779567951694D1F732
S11304006C157D058E059F0568F1480159016894B6
S113041013F8B694A794979487941694D1F78C14F0
S11304209D04AE04BF0410F5E881E260E8831EC0B9
S1130430288121FF09C0A701960107D5DA01C90166
S11304400197A109B1090AC0C501B401A701960128
S1130450FCD4DA01C9010197A109B1099D838C83F8
S113046081E013C080E011C080E00FC00F2EF3E1E3
S11304703695279517950795FA95D1F7F02DC0165F
S1130480D106E206F306A0F6EFCFDF91CF911F91DC
S11304900F91FF90EF90DF90CF90BF90AF909F901F
S11304A08F9008950F931F93CF93DF93EC018B01EB
S11304B0803C910521F462E080E000DF06C0883CC6
S11304C0910519F461E081E0F9DE8A818F738A83F2
S11304D0F8012681358184819A81482F4370440F25
S11304E0997F942B9A8399818470880F880F9B7FBE
S11304F0892B89838A818F7C832B8A839A81977F36
S1130500822F880F880F880F892B8A83408151811D
S11305106281738100E014E224EF30E0CE0157DF02
S1130520998198609983998190619983DF91CF91A2
S11305301F910F910895CF93DF93EB0142DF8883DE
S1130540DF91CF91089536CF08950F931F93CF93E2
S1130550DF93CDB7DEB727970FB6F894DEBF0FBE93
S1130560CDBF08EC10E01093B9030093B80383EAFD
S113057092E09093B7038093B6038BE992E0909353
S1130580B5038093B403E6E0F2E084818D83858132
S11305908E8386818F8380819181A281B3818983B7
S11305A09A83AB83BC83BE016F5F7F4F88EC90E07E
S11305B079DF6AEA71E083EC91E069D4F801818122
S11305C08068818327960FB6F894DEBF0FBECDBF37
S11305D0DF91CF911F910F910895FF920F931F9375
S11305E0CF93DF938C01F62EC62FD0E0AE01B80175
S11305F088EC90E07BDE8111F9CF8F2DDF91CF91D4
S11306001F910F91FF900895CF93DF931F92CDB761
S1130610DEB7898361E0CE010196DFDF0F90DF91C1
S1130620CF9108951F920F920FB60F9211240BB61B
S11306300F922F933F934F935F936F937F938F9377
S11306409F93AF93BF93EF93FF93CF93DF931F9247
S1130650CDB7DEB741E050E0BE016F5F7F4F88EC5D
S113066090E05EDEF89480918502E82FF0E0EA578E
S1130670FD4F998190838B3919F41092850203C040
S11306808F5F8093850278940F90DF91CF91FF91D3
S1130690EF91BF91AF919F918F917F916F915F91F6
S11306A04F913F912F910F900BBE0F900FBE0F9063
S11306B01F9018951F920F920FB60F9211240BB62C
S11306C00F922F933F934F935F936F937F938F93E7
S11306D09F93AF93BF93EF93FF93E0914003F09107
S11306E04103309709F01995FF91EF91BF91AF91B4
S11306F09F918F917F916F915F914F913F912F9136
S11307000F900BBE0F900FBE0F901F9018951F9265
S11307100F920FB60F9211240BB60F922F933F93A3
S11307204F935F936F937F938F939F93AF93BF93F5
S1130730EF93FF93E0913E03F0913F03309709F06C
S11307401995FF91EF91BF91AF919F918F917F91F7
S11307506F915F914F913F912F910F900BBE0F902E
S11307600FBE0F901F9018951F920F920FB60F9205
S113077011240BB60F922F933F934F935F936F9374
S11307807F938F939F93AF93BF93EF93FF93E091E6
S11307903C03F0913D03309709F01995FF91EF91D7
S11307A0BF91AF919F918F917F916F915F914F9185
S11307B03F912F910F900BBE0F900FBE0F901F9083
S11307C018951F920F920FB60F9211240BB60F9229
S11307D02F933F934F935F936F937F938F939F9345
S11307E0AF93BF93EF93FF93E0913A03F0913B03F0
S11307F0309709F01995FF91EF91BF91AF919F91B7
S11308008F917F916F915F914F913F912F910F90B5
S11308100BBE0F900FBE0F901F9018951F920F9252
S11308200FB60F9211240BB60F922F933F934F9351
S11308305F936F937F938F939F93AF93BF93EF9344
S1130840FF93E0913803F0913903309709F019953B
S1130850FF91EF91BF91AF919F918F917F916F9194
S11308605F914F913F912F910F900BBE0F900FBE50
S11308700F901F9018951F920F920FB60F9211248C
S11308800BB60F922F933F934F935F936F937F9386
S11308908F939F93AF93BF93EF93FF93E0913603AE
S11308A0F0913703309709F01995FF91EF91BF91BB
S11308B0AF919F918F917F916F915F914F913F91F4
S11308C02F910F900BBE0F900FBE0F901F90189595
S11308D01F920F920FB60F9211240BB60F922F9303
S11308E03F934F935F936F937F938F939F93AF93B4
S11308F0BF93EF93FF93E0913403F0913503309766
S113090009F01995FF91EF91BF91AF919F918F914C
S11309107F916F915F914F913F912F910F900BBEFB
S11309200F900FBE0F901F9018951F920F920FB645
S11309300F9211240BB60F922F933F934F935F9313
S11309406F937F938F939F93AF93BF93EF93FF9393
S1130950E0913203F0913303309709F01995FF9138
S1130960EF91BF91AF919F918F917F916F915F9123
S11309704F913F912F910F900BBE0F900FBE0F9090
S11309801F9018951F920F920FB60F9211240BB659
S11309900F922F933F934F935F936F937F938F9314
S11309A09F93AF93BF93EF93FF93E0913003F09144
S11309B03103309709F01995FF91EF91BF91AF91F1
S11309C09F918F917F916F915F914F913F912F9163
S11309D00F900BBE0F900FBE0F901F9018951F9293
S11309E00F920FB60F9211240BB60F922F933F93D1
S11309F04F935F936F937F938F939F93AF93BF9323
S1130A00EF93FF93E0912E03F0912F03309709F0B9
S1130A101995FF91EF91BF91AF919F918F917F9124
S1130A206F915F914F913F912F910F900BBE0F905B
S1130A300FBE0F901F9018951F920F920FB60F9232
S1130A4011240BB60F922F933F934F935F936F93A1
S1130A507F938F939F93AF93BF93EF93FF93E09113
S1130A602C03F0912D03309709F01995FF91EF9124
S1130A70BF91AF919F918F917F916F915F914F91B2
S1130A803F912F910F900BBE0F900FBE0F901F90B0
S1130A9018951F920F920FB60F9211240BB60F9256
S1130AA02F933F934F935F936F937F938F939F9372
S1130AB0AF93BF93EF93FF93E0912A03F0912B033D
S1130AC0309709F01995FF91EF91BF91AF919F91E4
S1130AD08F917F916F915F914F913F912F910F90E3
S1130AE00BBE0F900FBE0F901F9018951F920F9280
S1130AF00FB60F9211240BB60F922F933F934F937F
S1130B005F936F937F938F939F93AF93BF93EF9371
S1130B10FF93E0912803F0912903309709F0199588
S1130B20FF91EF91BF91AF919F918F917F916F91C1
S1130B305F914F913F912F910F900BBE0F900FBE7D
S1130B400F901F9018951F920F920FB60F921124B9
S1130B500BB60F922F933F934F935F936F937F93B3
S1130B608F939F93AF93BF93EF93FF93E0912603EB
S1130B70F0912703309709F01995FF91EF91BF91F8
S1130B80AF919F918F917F916F915F914F913F9121
S1130B902F910F900BBE0F900FBE0F901F901895C2
S1130BA01F920F920FB60F9211240BB60F922F9330
S1130BB03F934F935F936F937F938F939F93AF93E1
S1130BC0BF93EF93FF93E0912403F09125033097B3
S1130BD009F01995FF91EF91BF91AF919F918F917A
S1130BE07F916F915F914F913F912F910F900BBE29
S1130BF00F900FBE0F901F9018951F920F920FB673
S1130C000F9211240BB60F922F933F934F935F9340
S1130C106F937F938F939F93AF93BF93EF93FF93C0
S1130C20E0912203F0912303309709F01995FF9185
S1130C30EF91BF91AF919F918F917F916F915F9150
S1130C404F913F912F910F900BBE0F900FBE0F90BD
S1130C501F9018955D9886E4A6DA80EFA4DA80E008
S1130C60A2DA8BE8A0DA80EC9EDA86E09CDA5D9A60
S1130C7008958CB58F778CBD5D9888E694DA5D9A7B
S1130C8008958AB18AB9E9E6F0E080818083089505
S1130C90CF92DF92FF920F931F93CF93DF935D98D0
S1130CA087E481DA8CB580688CBD80E474DA80E4F2
S1130CB072DA80E470DA80E46EDA80E46CDA5D9AE9
S1130CC06DE686E493E075DA80934503882331F179
S1130CD006E413E0C0E0D0E0F12C6801F801819152
S1130CE08F0192DCF6018081863751F028F4882345
S1130CF039F0863631F404C08B3811F0803F09F4A2
S1130D00F394F5E0FF1202C0FF24F394219680913E
S1130D10450390E0C817D90704F301C0F12C8F2DC7
S1130D20DF91CF911F910F91FF90DF90CF900895A5
S1130D30CF93DF93CDB7DEB760970FB6F894DEBFDD
S1130D400FBECDBFA0DA31DB7894FFDB14DA80E18B
S1130D50EDE0F2E0DE01119601900D928A95E1F743
S1130D6090DF4FE050E0BE016F5F7F4F88EC90E072
S1130D70BDDA70DF8DDF1092440311E000E023C080
S1130D808CB1912F282F207184FD902F80914303E3
S1130D909817A1F0809142038F5F809342038430BF
S1130DA090F090934303211102C01093BD0300936C
S1130DB042038091BD03882331F003C000934203B2
S1130DC002C0E89A56DF8091BD038823C9F2FDCFA3
S1130DD01F920F920FB60F9211240BB60F928F939E
S1130DE0AF93BF93EF93FF93F8945D9881E48EBD26
S1130DF00DB407FEFDCF80E48EBD0DB407FEFDCF1C
S1130E008EB58093BA0380E48EBD0DB407FEFDCF8A
S1130E108EB58093BC035D9AA8ECB0E08C91809170
S1130E20BA03EEECF0E080838C918091BC03808364
S1130E307894FF91EF91BF91AF918F910F900BBE7A
S1130E400F900FBE0F901F901895A1E21A2EAA1BA7
S1130E50BB1BFD010DC0AA1FBB1FEE1FFF1FA21766
S1130E60B307E407F50720F0A21BB30BE40BF50B63
S1130E70661F771F881F991F1A9469F760957095EC
S1130E80809590959B01AC01BD01CF0108950F930E
S1130E901F93CF93DF93009731F46115710519F413
S1130EA080E090E039C08B01EC016EE070E081E0FD
S1130EB090E037D0FC01892B99F380E883830115F6
S1130EC0110571F01387028781E883838091BE0343
S1130ED09091BF03892B21F4F093BF03E093BE03E9
S1130EE02097C9F0D187C0878381826083838091F2
S1130EF0C0039091C103892B71F4F093C103E09373
S1130F00C0038091C2039091C303892B21F4F09311
S1130F10C303E093C203CF01DF91CF911F910F91DF
S1130F2008950F931F93CF93DF93869F8001879F2C
S1130F30100D969F100D1124C8010DD0EC010097DF
S1130F4021F0A80160E070E027D1CE01DF91CF91BC
S1130F501F910F9108950F931F93CF93DF938230C6
S1130F60910510F482E090E0E091C603F091C7038C
S1130F7020E030E0A0E0B0E0309719F140815181E9
S1130F800281138148175907C8F08417950769F43B
S1130F90109731F012960C93129713961C9327C056
S1130FA00093C6031093C70322C02115310519F01D
S1130FB04217530718F49A01BD01EF01DF01F8014C
S1130FC0DBCF21153105F9F0281B390B243031050D
S1130FD080F48A819B816115710521F0FB01938363
S1130FE0828304C09093C7038093C603FE013296A4
S1130FF044C0FE01E20FF31F819391932250310903
S1131000398328833AC02091C4033091C503232B2C
S113101041F420910202309103023093C5032093DE
S1131020C40320910002309101022115310541F4DD
S11310302DB73EB74091040250910502241B350B95
S1131040E091C403F091C503E217F307A0F42E1B4B
S11310503F0B2817390778F0AC014E5F5F4F241718
S1131060350748F04E0F5F1F5093C5034093C403E8
S11310708193919302C0E0E0F0E0CF01DF91CF9142
S11310801F910F910895CF93DF93009709F481C0C6
S1131090FC01329713821282A091C603B091C70358
S11310A0109781F420813181820F931F2091C40312
S11310B03091C5032817390751F5F093C503E09320
S11310C0C40367C0ED0120E030E0CE17DF0740F431
S11310D04A815B819E0141155105F1F0EA01F5CF8A
S11310E0D383C28340815181840F951FC817D907C8
S11310F059F488819981840F951F02969183808386
S11311008A819B81938382832115310529F4F0938D
S1131110C703E093C6033DC0E901FB83EA83499119
S11311205991C40FD51FEC17FD0761F4808191819B
S1131130840F951F0296E9019983888382819381A4
S11311409B838A83E0E0F0E012968D919C91139743
S1131150009719F0FD01DC01F7CF8D919C91119757
S11311609D012E5F3F4F820F931F2091C403309146
S1131170C5032817390769F4309729F41092C70377
S11311801092C60302C013821282B093C503A093C7
S1131190C403DF91CF910895DC0101C06D934150E8
S10D11A05040E0F70895F894FFCFE3
S11311AA0000C803200080841E00030001436F6E00
S11111BA6669677572696E67204144430000E0
S9030000FC
