:1000000099C00000E4C60000B5C00000B3C0000005
:10001000B1C00000AFC00000ADC00000ABC0000028
:10002000A9C00000A7C00000A5C00000A3C0000038
:10003000A1C000009FC000009DC000009BC0000048
:1000400099C0000063C300008EC30000B9C3000064
:1000500030C300008FC000008DC000008BC00000C6
:10006000E6C0000087C0000085C0000083C000001B
:1000700081C000007FC000007DC000007BC0000088
:10008000F9C3000024C400004FC40000C6C3000030
:10009000C8C200006FC000006DC000006BC000004F
:1000A00069C0000067C0000099C40000C4C400001B
:1000B000EFC4000066C400005DC0000043C500003E
:1000C0006EC5000099C5000010C5000053C00000B7
:1000D00051C000004FC000004DC000004BC00000E8
:1000E00049C0000047C0000045C0000043C00000F8
:1000F00041C000003FC000003DC000003BC0000008
:1001000039C0000037C0000035C0000033C0000017
:1001100031C000002FC000002DC000002BC0000027
:1001200029C0000027C0000025C0000023C0000037
:1001300021C0000011241FBECFEFD1E8DEBFCDBF2C
:1001400000E00CBF12E0A0E0B2E0E2EBF1E100E081
:100150000BBF02C007900D92AE31B107D9F724E072
:10016000AEE1B2E001C01D92A130B207E1F7DFD5E8
:100170000C94D70845CF64E080E09FD084B18660BE
:1001800084B98CB580658CBD8DB58DBD80E28AB992
:100190005D9A08951092EC038EBD8091EC03882344
:1001A000E1F308958EBD0DB407FEFDCF8EB5089521
:1001B000DC018091200290911F02891728F0282FDE
:1001C000291B20931E0205C02CE9280F291B209310
:1001D0001E0290911E02992331F19C3940F08093C8
:1001E0001F028CE980931E026C3938F403C0961705
:1001F00008F4692F611102C018C06CE990911F02C8
:10020000262FE92FF0E0EF5DFD4F30813D93215027
:100210009B3911F09F5F01C090E02111F2CF9093C4
:100220001F02862F089580E0089580E008951F92B0
:100230000F920FB60F9211240BB60F928F939F93CC
:10024000EF93FF939EB5F89480912002E82FF0E0A1
:10025000EF5DFD4F90838B3919F41092200203C09B
:100260008F5F80932002789481E08093EC03FF916C
:10027000EF919F918F910F900BBE0F900FBE0F903B
:100280001F901895CF93DF931F92CDB7DEB78FEFF6
:1002900080936400809365008FB78983F894898187
:1002A0005F9350E85093610050E0509361005F917C
:1002B0008FBF0F90DF91CF910895CF93DF931F925F
:1002C000CDB7DEB79FB79983F8949981823040F417
:1002D000E82FF0E0EC59FF4F609580816823608340
:1002E0009FBF0F90DF91CF910895EF92FF920F93F0
:1002F0001F93CF93DF937C018B01EA01209739F0A4
:10030000F80161918F01C70154D02197C9F780E0AE
:10031000DF91CF911F910F91FF90EF900895EF9291
:10032000FF920F931F93CF93DF937C018B01EA0120
:10033000209739F0C70144D0F80181938F012197AC
:10034000C9F780E0DF91CF911F910F91FF90EF905F
:100350000895CF93DF931F92CDB7DEB78091F1035D
:100360009091F203E091ED03F091EE03BE016F5F17
:100370007F4F19958981082E000C990B0F90DF9102
:10038000CF910895682F8091F1039091F203E0914D
:10039000EF03F091F003199599231CF081E090E0B0
:1003A00008958FEF9FEF08952C9A249A6C98749A71
:1003B0000895FC01908195FFFDCF668380E008954C
:1003C000FC0190819923ECF7868108958F929F928A
:1003D000AF92BF92CF92DF92EF92FF920F931F9353
:1003E000CF93DF93EC016A017B01C901B8016894E6
:1003F00012F896958795779567951694D1F76C15B1
:100400007D058E059F0568F148015901689413F830
:10041000B694A794979487941694D1F78C149D045E
:10042000AE04BF0410F5E881E260E8831EC02881B5
:1004300021FF09C0A70196010CD5DA01C901019776
:10044000A109B1090AC0C501B401A701960101D5EE
:10045000DA01C9010197A109B1099D838C8381E06B
:1004600013C080E011C080E00FC00F2EF3E136957D
:10047000279517950795FA95D1F7F02DC016D10657
:10048000E206F306A0F6EFCFDF91CF911F910F9117
:10049000FF90EF90DF90CF90BF90AF909F908F90A4
:1004A00008950F931F93CF93DF93EC018B01803C52
:1004B000910521F462E080E000DF06C0883C9105F0
:1004C00019F461E081E0F9DE8A818F738A83F80193
:1004D0002681358184819A81482F4370440F997F0A
:1004E000942B9A8399818470880F880F9B7F892B26
:1004F00089838A818F7C832B8A839A81977F822F3D
:10050000880F880F880F892B8A83408151816281EF
:10051000738100E014E224EF30E0CE0157DF9981CF
:1005200098609983998190619983DF91CF911F9110
:100530000F910895CF93DF93EB0142DF8883DF9122
:10054000CF91089536CF08950F931F93CF93DF93E4
:10055000CDB7DEB727970FB6F894DEBF0FBECDBF7D
:1005600008EC10E01093F2030093F10382EA92E0AA
:100570009093F0038093EF038AE992E09093EE0367
:100580008093ED03E6E0F2E084818D8385818E83A4
:1005900086818F8380819181A281B38189839A83AF
:1005A000AB83BC83BE016F5F7F4F88EC90E079DF47
:1005B00069EA71E082EC91E06ED4F8018181806893
:1005C000818327960FB6F894DEBF0FBECDBFDF91B3
:1005D000CF911F910F910895FF920F931F93CF9387
:1005E000DF938C01F62EC62FD0E0AE01B80188EC67
:1005F00090E07BDE8111F9CF8F2DDF91CF911F919C
:100600000F91FF900895CF93DF931F92CDB7DEB780
:10061000898361E0CE010196DFDF0F90DF91CF91FA
:1006200008951F920F920FB60F9211240BB60F92DE
:100630002F933F934F935F936F937F938F939F93EA
:10064000AF93BF93EF93FF93CF93DF931F92CDB7F9
:10065000DEB741E050E0BE016F5F7F4F88EC90E075
:100660005EDEF8948091BD02E82FF0E0E254FD4F89
:10067000998190838B3919F41092BD0203C08F5F6A
:100680008093BD0278940F90DF91CF91FF91EF910D
:10069000BF91AF919F918F917F916F915F914F919A
:1006A0003F912F910F900BBE0F900FBE0F901F9098
:1006B00018951F920F920FB60F9211240BB60F923E
:1006C0002F933F934F935F936F937F938F939F935A
:1006D000AF93BF93EF93FF93E0917803F091790389
:1006E000309709F01995FF91EF91BF91AF919F91CC
:1006F0008F917F916F915F914F913F912F910F90CB
:100700000BBE0F900FBE0F901F9018951F920F9267
:100710000FB60F9211240BB60F922F933F934F9366
:100720005F936F937F938F939F93AF93BF93EF9359
:10073000FF93E0917603F0917703309709F01995D4
:10074000FF91EF91BF91AF919F918F917F916F91A9
:100750005F914F913F912F910F900BBE0F900FBE65
:100760000F901F9018951F920F920FB60F921124A1
:100770000BB60F922F933F934F935F936F937F939B
:100780008F939F93AF93BF93EF93FF93E091740385
:10079000F0917503309709F01995FF91EF91BF9192
:1007A000AF919F918F917F916F915F914F913F9109
:1007B0002F910F900BBE0F900FBE0F901F901895AA
:1007C0001F920F920FB60F9211240BB60F922F9318
:1007D0003F934F935F936F937F938F939F93AF93C9
:1007E000BF93EF93FF93E0917203F09173033097FF
:1007F00009F01995FF91EF91BF91AF919F918F9162
:100800007F916F915F914F913F912F910F900BBE10
:100810000F900FBE0F901F9018951F920F920FB65A
:100820000F9211240BB60F922F933F934F935F9328
:100830006F937F938F939F93AF93BF93EF93FF93A8
:10084000E0917003F0917103309709F01995FF91D1
:10085000EF91BF91AF919F918F917F916F915F9138
:100860004F913F912F910F900BBE0F900FBE0F90A5
:100870001F9018951F920F920FB60F9211240BB66E
:100880000F922F933F934F935F936F937F938F9329
:100890009F93AF93BF93EF93FF93E0916E03F0911B
:1008A0006F03309709F01995FF91EF91BF91AF91C8
:1008B0009F918F917F916F915F914F913F912F9178
:1008C0000F900BBE0F900FBE0F901F9018951F92A8
:1008D0000F920FB60F9211240BB60F922F933F93E6
:1008E0004F935F936F937F938F939F93AF93BF9338
:1008F000EF93FF93E0916C03F0916D03309709F053
:100900001995FF91EF91BF91AF919F918F917F9139
:100910006F915F914F913F912F910F900BBE0F9070
:100920000FBE0F901F9018951F920F920FB60F9247
:1009300011240BB60F922F933F934F935F936F93B6
:100940007F938F939F93AF93BF93EF93FF93E09128
:100950006A03F0916B03309709F01995FF91EF91BD
:10096000BF91AF919F918F917F916F915F914F91C7
:100970003F912F910F900BBE0F900FBE0F901F90C5
:1009800018951F920F920FB60F9211240BB60F926B
:100990002F933F934F935F936F937F938F939F9387
:1009A000AF93BF93EF93FF93E0916803F0916903D6
:1009B000309709F01995FF91EF91BF91AF919F91F9
:1009C0008F917F916F915F914F913F912F910F90F8
:1009D0000BBE0F900FBE0F901F9018951F920F9295
:1009E0000FB60F9211240BB60F922F933F934F9394
:1009F0005F936F937F938F939F93AF93BF93EF9387
:100A0000FF93E0916603F0916703309709F0199521
:100A1000FF91EF91BF91AF919F918F917F916F91D6
:100A20005F914F913F912F910F900BBE0F900FBE92
:100A30000F901F9018951F920F920FB60F921124CE
:100A40000BB60F922F933F934F935F936F937F93C8
:100A50008F939F93AF93BF93EF93FF93E0916403C2
:100A6000F0916503309709F01995FF91EF91BF91CF
:100A7000AF919F918F917F916F915F914F913F9136
:100A80002F910F900BBE0F900FBE0F901F901895D7
:100A90001F920F920FB60F9211240BB60F922F9345
:100AA0003F934F935F936F937F938F939F93AF93F6
:100AB000BF93EF93FF93E0916203F091630330974C
:100AC00009F01995FF91EF91BF91AF919F918F918F
:100AD0007F916F915F914F913F912F910F900BBE3E
:100AE0000F900FBE0F901F9018951F920F920FB688
:100AF0000F9211240BB60F922F933F934F935F9356
:100B00006F937F938F939F93AF93BF93EF93FF93D5
:100B1000E0916003F0916103309709F01995FF911E
:100B2000EF91BF91AF919F918F917F916F915F9165
:100B30004F913F912F910F900BBE0F900FBE0F90D2
:100B40001F9018951F920F920FB60F9211240BB69B
:100B50000F922F933F934F935F936F937F938F9356
:100B60009F93AF93BF93EF93FF93E0915E03F09158
:100B70005F03309709F01995FF91EF91BF91AF9105
:100B80009F918F917F916F915F914F913F912F91A5
:100B90000F900BBE0F900FBE0F901F9018951F92D5
:100BA0000F920FB60F9211240BB60F922F933F9313
:100BB0004F935F936F937F938F939F93AF93BF9365
:100BC000EF93FF93E0915C03F0915D03309709F0A0
:100BD0001995FF91EF91BF91AF919F918F917F9167
:100BE0006F915F914F913F912F910F900BBE0F909E
:100BF0000FBE0F901F9018951F920F920FB60F9275
:100C000011240BB60F922F933F934F935F936F93E3
:100C10007F938F939F93AF93BF93EF93FF93E09155
:100C20005A03F0915B03309709F01995FF91EF910A
:100C3000BF91AF919F918F917F916F915F914F91F4
:100C40003F912F910F900BBE0F900FBE0F901F90F2
:100C500018955D9886E4A6DA80EFA4DA80E0A2DA3F
:100C60008BE8A0DA80EC9EDA86E09CDA5D9A089543
:100C70008CB58F778CBD5D9888E694DA5D9A08957F
:100C80008AB18AB9E9E6F0E0808180830895CF9245
:100C9000DF92FF920F931F93CF93DF935D9887E4CA
:100CA00081DA8CB580688CBD80E474DA80E472DA15
:100CB00080E470DA80E46EDA80E46CDA5D9A6DE6E6
:100CC0008FE793E075DA80937E03882331F10FE795
:100CD00013E0C0E0D0E0F12C6801F80181918F01B0
:100CE00092DCF6018081863751F028F4882339F0B0
:100CF000863631F404C08B3811F0803F09F4F39448
:100D0000F5E0FF1202C0FF24F394219680917E0348
:100D100090E0C817D90704F301C0F12C8F2DDF91A3
:100D2000CF911F910F91FF90DF90CF900895CF93B7
:100D3000DF93CDB7DEB760970FB6F894DEBF0FBE76
:100D4000CDBFA0DA31DB7894FFDB15DA80E1EDE08E
:100D5000F2E0DE01119601900D928A95E1F790DFA5
:100D60004FE050E0BE016F5F7F4F88EC90E0BDDA4E
:100D700070DF8DDF10927C0311E000E023C08CB1A6
:100D8000912F282F207184FD902F80917B0398173D
:100D9000A1F080917A038F5F80937A03843090F082
:100DA00090937B03211102C01093F60300937A0302
:100DB0008091F603882331F003C000937A0302C0C8
:100DC000E89A56DF8091F6038823C9F2FDCF1F927F
:100DD0000F920FB60F9211240BB60F928F93AF9311
:100DE000BF93EF93FF93F8945D9881E48EBD0DB4AB
:100DF00007FEFDCF80E48EBD0DB407FEFDCF8EB59E
:100E00008093F30380E48EBD0DB407FEFDCF8EB555
:100E10008093F5035D9AA8ECB0E08C918091F30388
:100E2000EEECF0E080838C918091F50380838091DB
:100E30007D038F5F80937D037894FF91EF91BF9145
:100E4000AF918F910F900BBE0F900FBE0F901F9020
:100E50001895A1E21A2EAA1BBB1BFD010DC0AA1FEB
:100E6000BB1FEE1FFF1FA217B307E407F50720F013
:100E7000A21BB30BE40BF50B661F771F881F991F8E
:100E80001A9469F760957095809590959B01AC01D7
:100E9000BD01CF0108950F931F93CF93DF93009768
:100EA00031F46115710519F480E090E039C08B01CF
:100EB000EC016EE070E081E090E037D0FC01892B1E
:100EC00099F380E883830115110571F01387028778
:100ED00081E883838091F7039091F803892B21F4B3
:100EE000F093F803E093F7032097C9F0D187C08708
:100EF0008381826083838091F9039091FA03892B27
:100F000071F4F093FA03E093F9038091FB0390915D
:100F1000FC03892B21F4F093FC03E093FB03CF0146
:100F2000DF91CF911F910F9108950F931F93CF934E
:100F3000DF93869F8001879F100D969F100D1124CF
:100F4000C8010DD0EC01009721F0A80160E070E02D
:100F500027D1CE01DF91CF911F910F9108950F936B
:100F60001F93CF93DF938230910510F482E090E0DD
:100F7000E091FF03F091000420E030E0A0E0B0E059
:100F8000309719F140815181028113814817590727
:100F9000C8F08417950769F4109731F012960C93F6
:100FA000129713961C9327C00093FF03109300041D
:100FB00022C02115310519F04217530718F49A0180
:100FC000BD01EF01DF01F801DBCF21153105F9F09B
:100FD000281B390B2430310580F48A819B816115EF
:100FE000710521F0FB019383828304C09093000478
:100FF0008093FF03FE01329644C0FE01E20FF31F0F
:101000008193919322503109398328833AC02091EA
:10101000FD033091FE03232B41F420910202309115
:1010200003023093FE032093FD03209100023091D0
:1010300001022115310541F42DB73EB7409104025C
:1010400050910502241B350BE091FD03F091FE0346
:10105000E217F307A0F42E1B3F0B2817390778F08F
:10106000AC014E5F5F4F2417350748F04E0F5F1FEE
:101070005093FE034093FD038193919302C0E0E0FF
:10108000F0E0CF01DF91CF911F910F910895CF93A1
:10109000DF93009709F481C0FC013297138212821A
:1010A000A091FF03B0910004109781F42081318159
:1010B000820F931F2091FD033091FE0328173907FB
:1010C00051F5F093FE03E093FD0367C0ED0120E0CE
:1010D00030E0CE17DF0740F44A815B819E01411565
:1010E0005105F1F0EA01F5CFD383C28340815181EC
:1010F000840F951FC817D90759F488819981840FE7
:10110000951F0296918380838A819B81938382833A
:101110002115310529F4F0930004E093FF033DC04D
:10112000E901FB83EA8349915991C40FD51FEC175C
:10113000FD0761F480819181840F951F0296E9017A
:1011400099838883828193819B838A83E0E0F0E0A6
:1011500012968D919C911397009719F0FD01DC0177
:10116000F7CF8D919C9111979D012E5F3F4F820F7C
:10117000931F2091FD033091FE032817390769F46E
:10118000309729F4109200041092FF0302C01382DA
:101190001282B093FE03A093FD03DF91CF910895D7
:1011A000DC0101C06D9341505040E0F70895F89480
:0211B000FFCF6F
:1011B20000000104200080841E00030001436F6EC2
:0E11C2006669677572696E67204144430000DC
:00000001FF
