S01B0000504545523250454552315F7370695F4D5354522E73726563FE
S113000099C000000EC70000B5C00000B3C00000D6
S1130010B1C00000AFC00000ADC00000ABC0000024
S1130020A9C00000A7C00000A5C00000A3C0000034
S1130030A1C000009FC000009DC000009BC0000044
S113004099C0000081C30000ACC30000D7C3000006
S11300504EC300008FC000008DC000008BC00000A4
S1130060E6C0000087C0000085C0000083C0000017
S113007081C000007FC000007DC000007BC0000084
S113008017C4000042C400006DC40000E4C30000B3
S1130090E6C200006FC000006DC000006BC000002D
S11300A069C0000067C00000B7C40000E2C40000DB
S11300B00DC5000084C400005DC0000061C50000DF
S11300C08CC50000B7C500002EC5000053C0000059
S11300D051C000004FC000004DC000004BC00000E4
S11300E049C0000047C0000045C0000043C00000F4
S11300F041C000003FC000003DC000003BC0000004
S113010039C0000037C0000035C0000033C0000013
S113011031C000002FC000002DC000002BC0000023
S113012029C0000027C0000025C0000023C0000033
S113013021C0000011241FBECFEFD1E8DEBFCDBF28
S113014000E00CBF12E0A0E0B2E0E6E1F2E100E082
S11301500BBF02C007900D92AE31B107D9F723E06F
S1130160AEE1B2E001C01D92AE3FB207E1F7FFD5A8
S11301700C94090945CF64E080E09FD084B1866087
S113018084B98CB583658CBD8DB58DBD80E28AB98B
S11301905D9A08951092EB038EBD8091EB03882342
S11301A0E1F308958EBD0DB407FEFDCF8EB508951D
S11301B0DC018091200290911F02891728F0282FDA
S11301C0291B20931E0205C02CE9280F291B20930C
S11301D01E0290911E02992331F19C3940F08093C4
S11301E01F028CE980931E026C3938F403C0961701
S11301F008F4692F611102C018C06CE990911F02C4
S1130200262FE92FF0E0EF5DFD4F30813D93215023
S11302109B3911F09F5F01C090E02111F2CF9093C0
S11302201F02862F089580E0089580E008951F92AC
S11302300F920FB60F9211240BB60F928F939F93C8
S1130240EF93FF939EB5F89480912002E82FF0E09D
S1130250EF5DFD4F90838B3919F41092200203C097
S11302608F5F80932002789481E08093EB03FF9169
S1130270EF919F918F910F900BBE0F900FBE0F9037
S11302801F901895CF93DF931F92CDB7DEB78FEFF2
S113029080936400809365008FB78983F894898183
S11302A05F9350E85093610050E0509361005F9178
S11302B08FBF0F90DF91CF910895CF93DF931F925B
S11302C0CDB7DEB79FB79983F8949981823040F413
S11302D0E82FF0E0EC59FF4F60958081682360833C
S11302E09FBF0F90DF91CF910895EF92FF920F93EC
S11302F01F93CF93DF937C018B01EA01209739F0A0
S1130300F80161918F01C70154D02197C9F780E0AA
S1130310DF91CF911F910F91FF90EF900895EF928D
S1130320FF920F931F93CF93DF937C018B01EA011C
S1130330209739F0C70144D0F80181938F012197A8
S1130340C9F780E0DF91CF911F910F91FF90EF905B
S11303500895CF93DF931F92CDB7DEB78091F0035A
S11303609091F103E091EC03F091ED03BE016F5F16
S11303707F4F19958981082E000C990B0F90DF91FE
S1130380CF910895682F8091F0039091F103E0914B
S1130390EE03F091EF03199599231CF081E090E0AE
S11303A008958FEF9FEF08952C9A249A6C98749A6D
S11303B00895FC01908195FFFDCF668380E0089548
S11303C0FC0190819923ECF7868108954F925F9206
S11303D06F927F928F929F92AF92BF92CF92DF9251
S11303E0EF92FF920F931F93CF93DF93EC016A0177
S11303F07B0128013901689412F876946794579424
S113040047941694D1F7888181FD0EC048015901A3
S1130410072E73E1B694A794979487947A95D1F7AD
S1130420702DD301C20115C0D901C801689413F815
S1130430B695A795979587951694D1F748015901D4
S1130440072E74E1B694A794979487947A95D1F77C
S1130450702D8C159D05AE05BF0568F1C814D9042F
S1130460EA04FB0450F1888181FF0FC0A7019601C3
S1130470220F331F441F551FC301B2011CD5DA01DB
S1130480C9010197A109B10912C0C901B801689451
S113049013F896958795779567951694D1F7A701E4
S11304A0960109D5DA01C9010197A109B1099D8312
S11304B08C8381E003C080E001C080E0DF91CF91B4
S11304C01F910F91FF90EF90DF90CF90BF90AF906E
S11304D09F908F907F906F905F904F9008950F93AF
S11304E01F93CF93DF93EC018B01803C910521F4A2
S11304F062E080E0E2DE06C0883C910519F461E028
S113050081E0DBDE8A818F738A83F801268135815D
S113051084819A81482F4370440F997F942B9A8346
S113052099818470880F880F9B7F892B89838A81A6
S11305308F7C832B8A839A81977F822F880F880FE1
S1130540880F892B8A83408151816281738100E005
S113055014E224EF30E0CE0139DF99819860998369
S1130560998190619983DF91CF911F910F910895A3
S1130570CF93DF93EB0124DF8883DF91CF9108953C
S113058018CF08950F931F93CF93DF93CDB7DEB7A2
S113059027970FB6F894DEBF0FBECDBF08EC10E06E
S11305A01093F1030093F00380EC92E09093EF0337
S11305B08093EE0388EB92E09093ED038093EC0339
S11305C0E6E0F2E084818D8385818E8386818F834A
S11305D080819181A281B38189839A83AB83BC8317
S11305E0BE016F5F7F4F88EC90E079DF69EA71E0CC
S11305F082EC91E082D4F80181818068818327961E
S11306000FB6F894DEBF0FBECDBFDF91CF911F911F
S11306100F910895FF920F931F93CF93DF938C0153
S1130620F62EC62FD0E0AE01B80188EC90E05DDE76
S11306308111F9CF8F2DDF91CF911F910F91FF90F1
S11306400895CF93DF931F92CDB7DEB7898361E01E
S1130650CE010196DFDF0F90DF91CF9108951F92B5
S11306600F920FB60F9211240BB60F922F933F9354
S11306704F935F936F937F938F939F93AF93BF93A6
S1130680EF93FF93CF93DF931F92CDB7DEB741E093
S113069050E0BE016F5F7F4F88EC90E040DEF8943D
S11306A08091BD02E82FF0E0E254FD4F99819083E0
S11306B08B3919F41092BD0203C08F5F8093BD0281
S11306C078940F90DF91CF91FF91EF91BF91AF910B
S11306D09F918F917F916F915F914F913F912F9156
S11306E00F900BBE0F900FBE0F901F9018951F9286
S11306F00F920FB60F9211240BB60F922F933F93C4
S11307004F935F936F937F938F939F93AF93BF9315
S1130710EF93FF93E0917803F0917903309709F018
S11307201995FF91EF91BF91AF919F918F917F9117
S11307306F915F914F913F912F910F900BBE0F904E
S11307400FBE0F901F9018951F920F920FB60F9225
S113075011240BB60F922F933F934F935F936F9394
S11307607F938F939F93AF93BF93EF93FF93E09106
S11307707603F0917703309709F01995FF91EF9183
S1130780BF91AF919F918F917F916F915F914F91A5
S11307903F912F910F900BBE0F900FBE0F901F90A3
S11307A018951F920F920FB60F9211240BB60F9249
S11307B02F933F934F935F936F937F938F939F9365
S11307C0AF93BF93EF93FF93E0917403F09175039C
S11307D0309709F01995FF91EF91BF91AF919F91D7
S11307E08F917F916F915F914F913F912F910F90D6
S11307F00BBE0F900FBE0F901F9018951F920F9273
S11308000FB60F9211240BB60F922F933F934F9371
S11308105F936F937F938F939F93AF93BF93EF9364
S1130820FF93E0917203F0917303309709F01995E7
S1130830FF91EF91BF91AF919F918F917F916F91B4
S11308405F914F913F912F910F900BBE0F900FBE70
S11308500F901F9018951F920F920FB60F921124AC
S11308600BB60F922F933F934F935F936F937F93A6
S11308708F939F93AF93BF93EF93FF93E091700394
S1130880F0917103309709F01995FF91EF91BF91A1
S1130890AF919F918F917F916F915F914F913F9114
S11308A02F910F900BBE0F900FBE0F901F901895B5
S11308B01F920F920FB60F9211240BB60F922F9323
S11308C03F934F935F936F937F938F939F93AF93D4
S11308D0BF93EF93FF93E0916E03F0916F03309712
S11308E009F01995FF91EF91BF91AF919F918F916D
S11308F07F916F915F914F913F912F910F900BBE1C
S11309000F900FBE0F901F9018951F920F920FB665
S11309100F9211240BB60F922F933F934F935F9333
S11309206F937F938F939F93AF93BF93EF93FF93B3
S1130930E0916C03F0916D03309709F01995FF91E4
S1130940EF91BF91AF919F918F917F916F915F9143
S11309504F913F912F910F900BBE0F900FBE0F90B0
S11309601F9018951F920F920FB60F9211240BB679
S11309700F922F933F934F935F936F937F938F9334
S11309809F93AF93BF93EF93FF93E0916A03F0912A
S11309906B03309709F01995FF91EF91BF91AF91D7
S11309A09F918F917F916F915F914F913F912F9183
S11309B00F900BBE0F900FBE0F901F9018951F92B3
S11309C00F920FB60F9211240BB60F922F933F93F1
S11309D04F935F936F937F938F939F93AF93BF9343
S11309E0EF93FF93E0916803F0916903309709F066
S11309F01995FF91EF91BF91AF919F918F917F9145
S1130A006F915F914F913F912F910F900BBE0F907B
S1130A100FBE0F901F9018951F920F920FB60F9252
S1130A2011240BB60F922F933F934F935F936F93C1
S1130A307F938F939F93AF93BF93EF93FF93E09133
S1130A406603F0916703309709F01995FF91EF91D0
S1130A50BF91AF919F918F917F916F915F914F91D2
S1130A603F912F910F900BBE0F900FBE0F901F90D0
S1130A7018951F920F920FB60F9211240BB60F9276
S1130A802F933F934F935F936F937F938F939F9392
S1130A90AF93BF93EF93FF93E0916403F0916503E9
S1130AA0309709F01995FF91EF91BF91AF919F9104
S1130AB08F917F916F915F914F913F912F910F9003
S1130AC00BBE0F900FBE0F901F9018951F920F92A0
S1130AD00FB60F9211240BB60F922F933F934F939F
S1130AE05F936F937F938F939F93AF93BF93EF9392
S1130AF0FF93E0916203F0916303309709F0199535
S1130B00FF91EF91BF91AF919F918F917F916F91E1
S1130B105F914F913F912F910F900BBE0F900FBE9D
S1130B200F901F9018951F920F920FB60F921124D9
S1130B300BB60F922F933F934F935F936F937F93D3
S1130B408F939F93AF93BF93EF93FF93E0916003D1
S1130B50F0916103309709F01995FF91EF91BF91DE
S1130B60AF919F918F917F916F915F914F913F9141
S1130B702F910F900BBE0F900FBE0F901F901895E2
S1130B801F920F920FB60F9211240BB60F922F9350
S1130B903F934F935F936F937F938F939F93AF9301
S1130BA0BF93EF93FF93E0915E03F0915F0330975F
S1130BB009F01995FF91EF91BF91AF919F918F919A
S1130BC07F916F915F914F913F912F910F900BBE49
S1130BD00F900FBE0F901F9018951F920F920FB693
S1130BE00F9211240BB60F922F933F934F935F9361
S1130BF06F937F938F939F93AF93BF93EF93FF93E1
S1130C00E0915C03F0915D03309709F01995FF9131
S1130C10EF91BF91AF919F918F917F916F915F9170
S1130C204F913F912F910F900BBE0F900FBE0F90DD
S1130C301F9018951F920F920FB60F9211240BB6A6
S1130C400F922F933F934F935F936F937F938F9361
S1130C509F93AF93BF93EF93FF93E0915A03F09167
S1130C605B03309709F01995FF91EF91BF91AF9114
S1130C709F918F917F916F915F914F913F912F91B0
S1130C800F900BBE0F900FBE0F901F9018955D989C
S1130C9086E488DA80EF86DA80E084DA8BE882DA28
S1130CA080E880DA86E07EDA5D9A08958CB58F77E5
S1130CB08CBD5D9888E676DA5D9A08958AB18AB922
S1130CC0E9E6F0E0808180830895CF92DF92FF927D
S1130CD00F931F93CF93DF935D9887E463DA8CB50A
S1130CE080688CBD80E456DA80E454DA80E452DA19
S1130CF080E450DA80E44EDA5D9A6DE68EE793E0A4
S1130D0057DA80937D03882341F10EE713E0C0E0B6
S1130D10D0E0F12C6801F80181918F0192DCF60199
S1130D208081863761F028F4882349F0863641F4BF
S1130D3006C08B3821F0803F11F0803809F4F39419
S1130D40F5E0FF1202C0FF24F394219680917D0305
S1130D5090E0C817D907F4F201C0F12C8F2DDF9170
S1130D60CF911F910F91FF90DF90CF900895CF9373
S1130D70DF93CDB7DEB760970FB6F894DEBF0FBE32
S1130D80CDBF80DA11DB7894FDDBF5D980E1EDE0AD
S1130D90F2E0DE01119601900D928A95E1F78EDF63
S1130DA0F12C11E00F2D8CB1912F282F207184FD8F
S1130DB0902F80917B03981781F080917A038F5F45
S1130DC080937A03843058F090937B03211102C0FE
S1130DD01093F30300937A0302C000937A03809183
S1130DE0F303882301F3F092F30380917C038F5F74
S1130DF080937C03823071F0833081F0813099F6E6
S1130E004FE050E0BE016F5F7F4F88EC90E06DDAF9
S1130E103EDFC9CF5ADF8093F203C5CFE89A46DF9D
S1130E20C2CF1F920F920FB60F9211240BB60F92DE
S1130E301F932F933F934F935F936F937F938F935E
S1130E409F93AF93BF93CF93DF93EF93FF935D98FB
S1130E5080E4A8D95D9A833199F45D9881E4A2D99C
S1130E6080E4A0D9182F80E49DD9D82F80E49AD9A2
S1130E70C82F5D9A812FE5DB8D2FE3DB8C2FE1DB1F
S1130E8080E183B982E080937C03FF91EF91DF914D
S1130E90CF91BF91AF919F918F917F916F915F910E
S1130EA04F913F912F911F910F900BBE0F900FBE4A
S1130EB00F901F901895A1E21A2EAA1BBB1BFD01CF
S1130EC00DC0AA1FBB1FEE1FFF1FA217B307E40725
S1130ED0F50720F0A21BB30BE40BF50B661F771F7D
S1130EE0881F991F1A9469F760957095809590955D
S1130EF09B01AC01BD01CF0108950F931F93CF93C4
S1130F00DF93009731F46115710519F480E090E0E6
S1130F1039C08B01EC016EE070E081E090E037D0E5
S1130F20FC01892B99F380E883830115110571F085
S1130F301387028781E883838091F4039091F503FA
S1130F40892B21F4F093F503E093F4032097C9F07F
S1130F50D187C0878381826083838091F6039091D7
S1130F60F703892B71F4F093F703E093F603809170
S1130F70F8039091F903892B21F4F093F903E0939A
S1130F80F803CF01DF91CF911F910F9108950F9333
S1130F901F93CF93DF93869F8001879F100D969FA9
S1130FA0100D1124C8010DD0EC01009721F0A80107
S1130FB060E070E027D1CE01DF91CF911F910F91B6
S1130FC008950F931F93CF93DF938230910510F40C
S1130FD082E090E0E091FC03F091FD0320E030E03A
S1130FE0A0E0B0E0309719F1408151810281138172
S1130FF048175907C8F08417950769F4109731F01A
S113100012960C93129713961C9327C00093FC031B
S11310101093FD0322C02115310519F0421753071F
S113102018F49A01BD01EF01DF01F801DBCF2115AE
S11310303105F9F0281B390B2430310580F48A81FD
S11310409B816115710521F0FB019383828304C0A8
S11310509093FD038093FC03FE01329644C0FE018D
S1131060E20FF31F8193919322503109398328832E
S11310703AC02091FA033091FB03232B41F42091D1
S11310800202309103023093FB032093FA03209170
S11310900002309101022115310541F42DB73EB70C
S11310A04091040250910502241B350BE091FA0390
S11310B0F091FB03E217F307A0F42E1B3F0B281754
S11310C0390778F0AC014E5F5F4F2417350748F0BD
S11310D04E0F5F1F5093FB034093FA038193919348
S11310E002C0E0E0F0E0CF01DF91CF911F910F91BA
S11310F00895CF93DF93009709F481C0FC013297E0
S113110013821282A091FC03B091FD03109781F425
S113111020813181820F931F2091FA033091FB03C8
S11311202817390751F5F093FB03E093FA0367C0DE
S1131130ED0120E030E0CE17DF0740F44A815B8107
S11311409E0141155105F1F0EA01F5CFD383C28325
S113115040815181840F951FC817D90759F488819C
S11311609981840F951F0296918380838A819B8144
S1131170938382832115310529F4F093FD03E093D1
S1131180FC033DC0E901FB83EA8349915991C40FF3
S1131190D51FEC17FD0761F480819181840F951FA1
S11311A00296E90199838883828193819B838A8350
S11311B0E0E0F0E012968D919C911397009719F05E
S11311C0FD01DC01F7CF8D919C9111979D012E5F5C
S11311D03F4F820F931F2091FA033091FB0328178E
S11311E0390769F4309729F41092FD031092FC0337
S11311F002C013821282B093FB03A093FA03DF911F
S1131200CF910895DC0101C06D9341505040E0F747
S10912100895F894FFCFDD
S11312160000FE03200080250000030001436F6EDA
S11112266669677572696E6720414443000073
S9030000FC
