S01C0000576972656C6573735F776974685F7370695F72782E73726563AB
S113000099C000000C946D16B6C00000B4C0000086
S1130010B2C00000B0C00000AEC00000ACC0000020
S1130020AAC00000A8C00000A6C00000A4C0000030
S1130030A2C00000A0C000009EC000009CC0000040
S11300409AC000000C945D100C948A100C94B710A4
S11300500C94301090C000008EC000008CC00000D2
S11300608AC0000088C0000086C0000084C0000070
S113007082C0000080C000007EC000007CC0000080
S11300800C9411110C943E110C946B110C94E4100B
S11300907DC3000070C000006EC000006CC0000092
S11300A06AC0000068C000000C94C5110C94F211E1
S11300B00C941F120C9498115EC000000C947912D9
S11300C00C94A6120C94D3120C944C1254C000003D
S11300D052C0000050C000004EC000004CC00000E0
S11300E04AC0000048C0000046C0000044C00000F0
S11300F042C0000040C000003EC000003CC0000000
S11301003AC0000038C0000036C0000034C000000F
S113011032C0000030C000002EC000002CC000001F
S11301202AC0000028C0000026C0000024C000002F
S113013022C0000011241FBECFEFD1E8DEBFCDBF27
S113014000E00CBF12E0A0E0B2E0E8E3F2E300E07C
S11301500BBF02C007900D92A231B107D9F721E17C
S1130160A2E1B2E001C01D92AD34B207E1F70E94F2
S1130170AA150C941A1944CF0E94D80F2091160284
S11301802223D9F04091421130E020911602642FCD
S1130190732F0E94BF16FB018FEF9FEF642F732F05
S11301A00E94BF1630E0629FC001639F900D729F52
S11301B0900D11248E0F9F1F08956091421170E0DD
S11301C00E94BF16CB0108950E94DD0F0E9401100A
S11301D0109212021092130210921402109215023D
S11301E010921802109217020C940E100E94EB0F3A
S11301F0109216020895E8DFF9DF0C94F20F0F93C2
S11302001F93CF93DF93EC010E94D80F8C01BE01A2
S113021080E090E02091421130E040E050E00E9404
S1130220B016DC01CB01A80160E070E0480F591F53
S11302306A1F7B1F409312025093130260931402AF
S113024070931502409112025091130260911402AE
S113025070911502AB0166277727409312025093E1
S1130260130260931402709315024091120250918C
S11302701302609114027091150241155105610534
S1130280710591F040911202509113026091140291
S1130290709115020196080F191F1093180200930C
S11302A017020E94DD0F08C0080F191F10931802CF
S11302B0009317020E94E40F809117029091180294
S11302C08436910530F48C599F4F90931802809393
S11302D0170280911702909118020E94F60FDF9185
S11302E0CF911F910F910895109216020E94101041
S11302F08093421108958091120290911302A0916B
S11303001402B09115020097A105B105C9F08091BE
S1130310120290911302A0911402B0911502019758
S1130320A109B1098093120290931302A0931402BD
S1130330B09315020097A105B10511F40E94E40FD2
S1130340809116028F5F8093160290914211891753
S113035048F010921602E0911902F0911A023097B7
S113036009F0199508950E94DD0FE0911B02F091A8
S11303701C02309709F01995089590931A028093FE
S11303801902089590931C0280931B02089564E05F
S113039080E02ED084B1866084B98CB580658CBD34
S11303A08DB581608DBD80E28AB95D9A08958EBD58
S11303B00DB407FEFDCF8EB50895CF93DF931F9242
S11303C0CDB7DEB78FEF80936400809365008FB75D
S11303D08983F89489815F9350E85093610050E0D9
S11303E0509361005F918FBF0F90DF91CF9108957B
S11303F0CF93DF931F92CDB7DEB79FB79983F8945D
S11304009981823040F4E82FF0E0EC59FF4F609579
S11304108081682360839FBF0F90DF91CF910895FF
S1130420CF93DF931F92CDB7DEB79FB79983F8942C
S11304309981823038F4E82FF0E0EC59FF4F808145
S1130440682B60839FBF0F90DF91CF910895EF9247
S1130450FF920F931F93CF93DF937C018B01EA01EB
S1130460209739F0F80161918F01C70154D0219789
S1130470C9F780E0DF91CF911F910F91FF90EF902A
S11304800895EF92FF920F931F93CF93DF937C0114
S11304908B01EA01209739F0C70144D0F801819318
S11304A08F012197C9F780E0DF91CF911F910F91C0
S11304B0FF90EF900895CF93DF931F92CDB7DEB7EF
S11304C08091041190910511E0910011F0910111B6
S11304D0BE016F5F7F4F19958981082E000C990B1F
S11304E00F90DF91CF910895682F8091041190911E
S11304F00511E0910211F0910311199599231CF053
S113050081E090E008958FEF9FEF08952C9A249A4C
S11305106C98749A0895FC01908195FFFDCF6683D1
S113052080E00895FC0190819923ECF78681089579
S11305308F929F92AF92BF92CF92DF92EF92FF92EF
S11305400F931F93CF93DF93EC016A017B01C901E1
S1130550B801689412F896958795779567951694DF
S1130560D1F76C157D058E059F0578F14801590179
S1130570689413F8B694A794979487941694D1F733
S11305808C149D04AE04BF0420F5E881E260E88386
S113059020C0288121FF0AC0A70196010E94D3161A
S11305A0DA01C9010197A109B1090BC0C501B40160
S11305B0A70196010E94D316DA01C9010197A10986
S11305C0B1099D838C8381E013C080E011C080E079
S11305D00FC00F2EF3E13695279517950795FA95D9
S11305E0D1F7F02DC016D106E206F30690F6EFCF50
S11305F0DF91CF911F910F91FF90EF90DF90CF90FB
S1130600BF90AF909F908F9008950F931F93CF93B7
S1130610DF93EC018B01803C910521F462E080E0E2
S1130620E7DE06C0883C910519F461E081E0E0DE74
S11306308A818F738A83F8012681358184819A8126
S1130640482F4370440F997F942B9A839981847027
S1130650880F880F9B7F892B89838A818F7C832BCA
S11306608A839A81977F822F880F880F880F892B1E
S11306708A83408151816281738100E014E224EF16
S113068030E0CE0155DF998198609983998190611A
S11306909983DF91CF911F910F910895CF93DF93A9
S11306A0EB0140DF8883DF91CF91089534CF089523
S11306B00F931F93CF93DF93CDB7DEB727970FB672
S11306C0F894DEBF0FBECDBF08EC10E01093051107
S11306D00093041186E593E0909303118093021133
S11306E08EE493E09093011180930011EAE0F2E02C
S11306F084818D8385818E8386818F83808191819E
S1130700A281B38189839A83AB83BC83BE016F5F6B
S11307107F4F88EC90E079DF6BE572E084E792E04C
S11307200E946C17F80181818068818327960FB637
S1130730F894DEBF0FBECDBFDF91CF911F910F9113
S11307400895FF920F931F93CF93DF938C01F62E9E
S1130750C62FD0E0AE01B80188EC90E078DE8111BC
S1130760F9CF8F2DDF91CF911F910F91FF900895B5
S1130770CF93DF931F92CDB7DEB7898361E0CE01BB
S11307800196DFDF0F90DF91CF9108951F920F92B2
S11307900FB60F9211240BB60F922F933F934F93E2
S11307A05F936F937F938F939F93AF93BF93EF93D5
S11307B0FF93CF93DF931F92CDB7DEB741E050E0B4
S11307C0BE016F5F7F4F88EC90E05BDEF894809110
S11307D01D02E82FF0E0E25EFD4F998190838B3992
S11307E019F410921D0203C08F5F80931D02789448
S11307F00F90DF91CF91FF91EF91BF91AF919F91B6
S11308008F917F916F915F914F913F912F910F90B5
S11308100BBE0F900FBE0F901F901895E6E0F1E10C
S1130820148215821182108217AA16AAECE0F1E153
S11308308CE291E111921192E817F907D9F7ACD73C
S113084064D318D143D096D103C608959093071169
S1130850809306110C94EB0D0895909309118093E5
S113086008110C94D90D0895E82FF0E0EE0FFF1F46
S1130870E45FFE4E71836083089599D30E94D50C82
S11308804ED03DC60895E091BA02F091BB02309774
S1130890D9F0228133818217930789F405C022811C
S11308A033812817390759F4DC01AD57BF4F2C9118
S11308B0278713962C91208B22E0248305C0019076
S11308C0F081E02D309759F712C108951092BB02C0
S11308D01092BA020895FC011482178613821282C0
S11308E0A6E0B1E1D6968D919C91D7970196D796C3
S11308F09C938E93D6978091BA029091BB020097F5
S113090039F411821082F093BB02E093BA02089585
S113091091838083F093BB02E093BA0208950F930E
S11309201F93CF93DF93E091BA02F091BB0230970B
S113093009F49BC0EF018C81882321F0823009F4F3
S11309406EC08DC09ED08C01009721F482E08C8310
S11309508F878BC09B838A8381E08C83F801E9575E
S1130960FF4F83E494E0918380833197898582FBF0
S1130970882780F980839985D8011B968C911B97D1
S113098090FB80F91B968C931B97998593FB992771
S113099090F990FB82F91B968C931B9799859695F9
S11309A0917090FB81F91B968C931B97E6E0F1E123
S11309B084818F5F84831C968C931C9780819181A2
S11309C01E969C938E931D978D819E8150969C9329
S11309D08E931F978885982F9F7051968C9151976D
S11309E0807F892B51968C9351979F819295907F0C
S11309F08F70892B51968C93F801EF57FF4F4C85DC
S1130A0050E06A857B85808191810E946317F8019B
S1130A1091818C85890F8183C801E1D626C0EC17AA
S1130A20FD0741F4808191819093BB028093BA02C7
S1130A300AC0FC01808191818C179D07D1F78881C0
S1130A40998191838083E6E0F1E186A997A90197D2
S1130A5097AB86ABED85FE85CE01199506C009904E
S1130A60D881C02D209709F066CFDF91CF911F91D7
S1130A700F9108951092BC02109245031092CE0378
S1130A8008958091BC02882371F0809145038823E6
S1130A9039F08091CE03811127C082E090E005C037
S1130AA081E090E002C080E090E049E8489F900136
S1130AB0499F300D1124C90184549D4FFC011192AA
S1130AC04A95E9F740E1FC014183EF57FF4F225378
S1130AD03D4F31832083E6E0F1E126A937A92F5F5A
S1130AE03F4F37AB26AB089580E090E00895FC01BA
S1130AF01082E6E0F1E186A997A9019797AB86AB4E
S1130B000895009741F0FC01E757FF4F84E0E73573
S1130B10F80718F012C0ECEBF2E08081882321F092
S1130B200FC0808181110FC0E757FF4F84E0E73584
S1130B30F807B8F380E090E0089580E090E008952D
S1130B408E2F9F2F08958E2F9F2F0895FC01DC0177
S1130B50AD57BF4F1C92A6E0B1E114969C91149737
S1130B609F5F14969C93149794878D919C9196877C
S1130B7085870895A8E5B4E080E090E04FEF5FEF4B
S1130B8011965C934E93FC01EE0FFF1FEE0FFF1FB7
S1130B90EE0FFF1FE81BF90BE95AFB4F20812E7F54
S1130BA0208314961C921497019617968436910507
S1130BB039F708950F931F93CF93DF93E8E5F4E09B
S1130BC020E030E0062F10E040815181481759079A
S1130BD0B1F4D901AA0FBB1FAA0FBB1FAA0FBB1FD9
S1130BE0A21BB30BA95ABB4F4C9146954170C42F1D
S1130BF040E0D42FC017D10711F4CD0108C02F5FF6
S1130C003F4F379624363105F9F680E090E0DF91C6
S1130C10CF911F910F910895A0E0B0E0E7E5F4E0D3
S1130C20808180FD0DC08581882381F0109739F083
S1130C3015969C911597891718F4DF0101C0DF01FF
S1130C40379687E0E331F80759F7FD0180818D700D
S1130C508063808380E88583CF010895FC018081CF
S1130C6080FD05C08FEF9FEF9283818315820895E5
S1130C70A1DF009721F0FC018381948108958FEF17
S1130C809FEF089597DF009709F0E8CF08950F9339
S1130C901F93CF93DF93FC010185128511232CF45C
S1130CA08585968508171907E1F585819681019652
S1130CB0C1F1EF0160E0858596857CDFFC01892B1D
S1130CC0A1F08F8198850196F9F420910611309155
S1130CD007118F85988928173907B1F41483038382
S1130CE080818F70806380830AC096DFFC018D85CC
S1130CF09E859283818389859A8594838383CD5746
S1130D00DF4F888186830DC083819481081719077A
S1130D10B1F39681DE01AD57BF4F8C919817F0F275
S1130D20EECFDF91CF911F910F910895CF93DF9371
S1130D30FC01878590898F3F2FEF9207D9F1EF014E
S1130D40638563FB662760F935DFDC01892B91F14C
S1130D508C9180FD2FC0FE01ED57FF4F80818111E2
S1130D6019C08C918F7080638C9315968C91159714
S1130D708F5F15968C938F3FE9F4ECE5F4E028E15E
S1130D8037E0808186958F5F80833796E217F3077B
S1130D90C1F710C09C91892F82958F70815F8F70ED
S1130DA0282F2295207F9F70922B9C93811102C043
S1130DB0CD0154DFDF91CF910895CF93DF93FC01F0
S1130DC0878590898F3F2FEF920729F48FEF9FEF4C
S1130DD0908787830EC0238522FF03C09087878373
S1130DE008C0EF01638563FB662760F941DF9887DC
S1130DF08F83DF91CF910895AF92BF92CF92DF920C
S1130E00EF92FF921F93CF93DF93EC011B8513FBAB
S1130E10112710F9CF84D888612FC60129DF0196E4
S1130E2059F0FE01E957FF4F11821082319782E099
S1130E308083CE01D4D422C0AD84BE8422DE7C0162
S1130E400097D1F083DEF70181818A5F8183E957BE
S1130E50FF4F11821082F701B08AA786EF57FF4F28
S1130E600190F081E02D81E08083B282A182D4825E
S1130E70C3821583C701B3D4CE0139DEDF91CF918C
S1130E801F91FF90EF90DF90CF90BF90AF900895A7
S1130E90FC012185263049F40780F085E02D658129
S1130EA083819481EFDE81E0089580E00895DC0180
S1130EB019962C911997222371F01796ED91FC91B4
S1130EC018972081222319F0213019F006C021C57A
S1130ED00895DECF089580E0089580E00895BC0170
S1130EE0E5E2F7E027E537E040E051E0908199231F
S1130EF019F091509083452F3596E217F307B1F717
S1130F00442311F0CB01D6C70895E5E2F7E087E565
S1130F1097E010823596E817F907D9F7E3E1F7E08F
S1130F2084E690E0A0E0B0E086839783A087B18751
S1130F3012868FE697E09487838767E577E080E001
S1130F4093CC0895CF93DF93DC01ED91FC9111973D
S1130F5021812838F9F420812F7D2134D9F4129687
S1130F602C912031B8F0EC018CDD009799F020E24F
S1130F70FC0120832A8121832B81ED57FF4F20839D
S1130F802C81319620834A8150E0688179810296D0
S1130F900E946317DF91CF910895662321F022E226
S1130FA0FC012083089524E2FC01208308952F92FC
S1130FB03F924F925F926F927F928F929F92AF92E5
S1130FC0BF92CF92DF92EF92FF920F931F93CF9332
S1130FD0DF93CDB7DEB72C970FB6F894DEBF0FBE04
S1130FE0CDBF00E010E00F2EF4E2BF2EF02D0F2E47
S1130FF0F6E0EF2EF1E1FF2EF02DAA24A3946894DD
S1131000662464F86894552453F86894442442F898
S1131010212C312C0F2EFFE17F2EF02DCC24C394F4
S1131020D12CEFC1D8018C91823209F41AC130F469
S1131030803259F0813209F410C1E3C1833209F4DA
S1131040DBC1843209F4DBC1DCC1F801B0828385E1
S113105083FDD7C1258136812F3F3F4FC9F4D80185
S11310601F962D913C915097F70140815181421771
S1131070530721F02F3F3F4F09F0C3C181FF04C044
S1131080E1E2D801EC93BDC1E2E2D801EC93B9C12D
S1131090D8011F962D913C9150972F3F3F4F11F44B
S11310A080FDAFC1F70120813181D8011D968D915A
S11310B09C911E972817390709F4A3C1C801E7DDDD
S11310C0E1E2F7E080E090E0822C932C9C014481E3
S11310D0442309F474C0D8011D966D917C911E9728
S11310E0408151816417750709F06AC01C968C9180
S11310F01C97F901EE0FFF1FEE0FFF1FE20FF31F06
S1131100EF5DF84F9281981B983008F03EC0F901CA
S1131110EE0FFF1FEE0FFF1FE20FF31FEF5DF84FFF
S11311208381482F50E0092E02C0559547950A94B3
S1131130E2F740FF17C0F7012081318117968D91A6
S11311409C9118972817390709F05BC11B966C917D
S11311501B9763FB662760F91F968D919C915097AE
S113116091DD4FC1F901EE0FFF1FEE0FFF1F2E0F90
S11311703F1FF901EF5DF84F960102C0220F331FA4
S11311809A95E2F7822B838343C1F901EE0FFF1F87
S1131190EE0FFF1F2E0F3F1FF901EF5DF84F828303
S11311A08381282F30E09195A90102C0440F551F77
S11311B09A95E2F7CA0181608383748229C14F0141
S11311C0019635968A30910509F080CF81149104F7
S11311D009F417C1D8011D968D919C911E97F401B5
S11311E0918380831C968C918283A382748283E191
S11311F097E060D60DC1D7012D913C91F801878508
S113120090892817390781F0438542FD0BC0C80136
S11312103BD3D7012D913C91F801878590892817FC
S1131220390711F0019669F4D8011B968C911B972C
S113123081FF03C0E1E2EC93E4C0E2E2D801EC9365
S1131240E0C0D80117968D919C9118978217930747
S113125009F0D7C0E3E2EC93D4C060E0C801FFD04A
S1131260D0C010922007D80151968C915197829545
S11312708F70E82FF0E0EE0FFF1FE45FFE4E019049
S1131280F081E02D309709F460C01D962D913C91BA
S11312901E973A8329831F964D915C9150975C83E6
S11312A04B8351969C9151979F709D838E83AF572A
S11312B0BF4F8D919C9199878887B8016E5F7F4F4E
S11312C0861B970BD80111969C911197981B9A87AE
S11312D0AD57BF4F8C918B8711968C918C87D80119
S11312E01B969C91692F637092FD02C080E001C03F
S11312F080E2862B93FD02C090E001C090E4892B2C
S11313004F3F5F4F11F090E001C0942D892BD8011D
S113131019964D915C911A972417350711F090E0B6
S113132001C0952D892B8F83D80115962D913C9161
S113133016972F3F3F4F11F090E001C0962D892B57
S11313408F83CE010196199501C080E0F801938541
S113135090FF80E0D80117962D913C9118972F3F6C
S11313603F4F69F4F70140815181D8011F962D91B7
S11313703C9150974217530711F493FF8A2DF801BB
S1131380258136812F3F3F4FA1F1D7012D913C910B
S11313902F3F3F4F71F1882361F173DB4C010097BC
S11313A041F1D4DBF40181818D5F8183E957FF4FE3
S11313B011821082D8011B968C911B97869581709F
S11313C0F401938580FB91F993871D968D919C91EF
S11313D01E97908B8787EF57FF4F0190F081E02D88
S11313E010828091200782831C968C918183C40192
S11313F0F6D1D801BC9205C0C801FEDC02C0C80108
S113140076DBC8017EDB8C01892B09F00BCE07C08B
S1131410F80187819085019609F0FBCEECCE2C96DD
S11314200FB6F894DEBF0FBECDBFDF91CF911F91F1
S11314300F91FF90EF90DF90CF90BF90AF909F906F
S11314408F907F906F905F904F903F902F90089572
S11314501092680710926707109266070895662332
S113146021F020E3FC01208303C021E3FC0120835D
S1131470809168078F5F809368070895CF93DF9307
S1131480C0916607D0916707FE01EF57FF4FA08117
S1131490B18170916407872F90E050916507652FA3
S11314A0513108F060E16623D1F040916307E3E530
S11314B0F7E0A80FB91F2FEF260F30E02C5A384F52
S11314C09C91808189278D93442311F0808303C0EC
S11314D09081892780833196E217F30789F7760F85
S11314E070936407561B50936507552319F082E3E4
S11314F0888302C084E38883DF91CF9108950F939A
S11315001F93CF93DF9380916807882309F4E1C088
S1131510E0916607F0916707309709F4D4C08081A1
S1131520843309F055C080916407DF01AF57BF4F82
S1131530CD91DC91C80FD11DA3E5B7E00D911D91AC
S11315402D913C91139714964D915D916D917C91E1
S11315501797042715272627372718964D915D914D
S11315606D917C911B9704271527262737271C96F6
S11315704D915D916D917C911F97D901C80184278C
S11315809527A627B72720916307222351F0888344
S11315909983AA83BB8381818C5F8183CF01DED150
S11315A00DC061E0088119812A813B810817190760
S11315B02A073B0709F060E0CF01EFDC10926707D0
S11315C0109266078091680781508093680781C0F4
S11315D0823309F07EC083E380836CE271E183E5AA
S11315E097E0CCD376C0DC012C912053223008F054
S11315F06CC09093670780936607E3E5F7E01C9659
S11316004C911C9750E060E070E04083518362830A
S113161073831F964D915C91509760E070E0BA011E
S11316205527442751962C91519722952F70422B80
S113163044835583668377831D964D915C911E97F1
S113164060E070E0BA015527442751962C915197D8
S11316502F70422B408751876287738715964D916F
S11316605C91169760E070E0BA01552744271B96F9
S11316702C911B97422B44875587668777876C91FB
S1131680613331F411962C911197245011962C93B7
S1131690FC01EF57FF4F408151819C012E5F3F4F6A
S11316A0421B530BFC012181241B209365071092DC
S11316B0640721E0603309F020E02093630722E30C
S11316C0DC012C9306C080E090E01BDA009709F05F
S11316D08ACFDF91CF911F910F910895EF92FF92DE
S11316E00F931F93CF937C0110E080E090E001E022
S11316F0C3E113C0FC012081213179F4EC57FF4F81
S1131700208131812150310931832083232B21F41D
S1131710FC01C083102F01C0102FF3D9009751F79B
S1131720112311F0C701C6D3CF911F910F91FF90E0
S1131730EF900895EF92FF920F931F93CF93DF934F
S11317407C0110E080E090E001E0D7E1C0E116C048
S1131750FC012081263191F4EC57FF4F2081318127
S11317602150310931832083232B39F4FC01D083A8
S1131770ED57FF4FC083102F01C0102FC2D900971F
S113178039F7112311F0C70195D3DF91CF911F9140
S11317900F91FF90EF9008951092840710928307A1
S11317A0E6E7F7E082E390E0A0E0B0E08683978389
S11317B0A087B18712868AE99BE094878387E9E64C
S11317C0F7E08AE090E0A0E0B0E086839783A0870A
S11317D0B18712868EE69BE0948783870895CF9322
S11317E0DF93EC01FC01EA57FF4F808181FF03C0C6
S11317F092E1988308C09B8591FF03C090E1988390
S113180002C092E19883FE01ED57FF4F108280FFE2
S113181005C02FEF3FEF3E832D8306C020910811B2
S1131820309109113E832D83857019F4CE01C5DAF8
S113183004C08F85988998878F83E6E0F1E18081E1
S113184091819A87898785818F5F85838C838F8136
S11318509885019671F481E498E89B838A830E94B9
S11318605517CC57DF4F8770992701969983888342
S113187008C081E698E89B838A83CC57DF4F19829E
S11318801882DF91CF9108950F931F93CF93DF9325
S11318908C01F7D8EC01892BB9F182E18883F80136
S11318A081818983FE01ED57FF4F10820E945517F5
S11318B0FE01EC57FF4F877099270196918380832F
S11318C0339611821082F801418150E0B8016E5FB5
S11318D07F4FCE0102960E94631781E498E89B83B0
S11318E08A838FEF9FEF98878F83F8018581968194
S11318F09E838D83E6E0F1E1808191819A878987D7
S113190085818F5F85838C83DF91CF911F910F91A8
S11319100895CF93DF93FC0121852330D9F410C0BF
S1131920FC012081263189F43485298132130DC0CC
S113193027E120832A81EA57FF4F208381E00BC0EF
S1131940FC01C781D08580E090E0DBD8009741F7A7
S113195080E001C080E0DF91CF91089522E1FC0195
S113196020830895E0918307F0918407813021F06A
S113197048F0823019F004C080E205C081E203C05F
S113198081E001C080E0DF01AD57BF4F8C9385E15A
S113199080831092840710928307E6E0F1E186A920
S11319A097A9019797AB86AB08959F92AF92BF9288
S11319B0CF92DF92EF92FF920F931F93CF93DF9317
S11319C0C0E0D0E00F2EF4E1AF2EF02D06E011E1DF
S11319D00F2EF7E1DF2EF02D0F2EF6E19F2EF02DC6
S11319E00F2EF5E1EF2EF12CF02D0F2EF3E1CF2E7B
S11319F0F02D0F2EF1E1BF2EF02D65C088818331CB
S1131A00F1F028F4803149F0823159F05CC085311D
S1131A1061F1873109F448C056C061E0CE011FDD91
S1131A2052C0FE01EC57FF4F80819181892B29F030
S1131A30B88289E697E03ED246C0C88244C080910D
S1131A40830790918407892B09F03DC0D0938407C4
S1131A50C0938307FE01A192CF01D4D0F80186A9D7
S1131A6097A9019697AB86AB2EC0FE01ED57FF4FA9
S1131A708081811117C02D853E85F8018081918177
S1131A802817390769F48B8580FF0AC09882FE0104
S1131A90EC57FF4FF182E08286E797E00BD213C048
S1131AA0D88211C0D8820FC0CE0140D9FE01E957B7
S1131AB0FF4F0190F081E02D309719F4CE0117D833
S1131AC002C0CE011995CE011CD8EC01892B09F076
S1131AD095CFDF91CF911F910F91FF90EF90DF9001
S1131AE0CF90BF90AF909F90089580918507982FD5
S1131AF09F70E4E5F1E08081807F892B8083809171
S1131B008507882329F080918607809353010895DF
S1131B1080918607982F9F71E8E4F1E08081807EB0
S1131B20892B80830895A2E4B1E023E0E1E4F1E0AD
S1131B302C9390819F719830D9F7A2E4B1E0E1E44D
S1131B40F1E08C9390819F718913FBCF089588E015
S1131B50EADF8FEF80934F0180918707882311F08C
S1131B6086E1E1CF089560E481E00E94F801E9E3B1
S1131B70F1E080818160808310928707109285074D
S1131B8081E08093080888E0CEDF8BEE80935601D5
S1131B90ECE4F1E0808183608083808180688083CD
S1131BA0089580938707D3CF0895809386079DCFA8
S1131BB00895CF93DF931F921F92CDB7DEB79A8318
S1131BC08983809362018A81809363010F900F90CF
S1131BD0DF91CF910895CF93DF931F921F92CDB7DA
S1131BE0DEB79A838983809360018A81809361013F
S1131BF099818A81890F80936D010F900F90DF91F5
S1131C00CF910895CF93DF93EC0189E18CDF8FEFBF
S1131C1080934F0188818E5F80938001888188231F
S1131C2081F020E0822F90E0FC01EF57FE4FDE01AF
S1131C30A80FB91F11968C9180832F5F8881281774
S1131C4088F383E08093080882E080934201DF9167
S1131C50CF910895CF93DF93EC01CB0140E060E096
S1131C6014D6CE01FCD5CE019ED6DF91CF91089536
S1131C701F93CF93DF9300D01F921F92CDB7DEB78F
S1131C8080910808823009F465C080914F0183FF78
S1131C903EC0A0917B016A2F70E0AB014F5F5F4FA4
S1131CA080E090E020E0FC01E058FE4F3081FC0130
S1131CB0E857F84F30832F5F822F90E08417950701
S1131CC094F388E897E09A838983A250AB83FB015D
S1131CD0E857F84F80818C83809147018A558D8322
S1131CE0CE0101962FD9E1E4F1E080818F71863134
S1131CF0E1F7EFE4F1E0808188608083ECE4F1E0D7
S1131D0080818F77808380818068808323C08091E5
S1131D104F0186FF1FC0809141018F718931A9F461
S1131D201091420112951695177049F0133021F065
S1131D30153021F013E003C011E001C012E007DF09
S1131D4081E080930808812F0DDEEFE4F1E08081CB
S1131D50806480830F900F900F900F900F90DF910D
S1131D60CF911F9108957BD079D5FDDE0C940E049C
S1131D7008957EDF0E943D04A8C008956BDF7ECBEA
S1131D8008950F931F93CF93DF93EC01809109087B
S1131D9090910A08009709F445C04E815F816885D7
S1131DA07985FC0102811381248135814017510713
S1131DB06207730760F0DC0117C00281138124817C
S1131DC03581401751076207730768F403C0FC01AB
S1131DD0A0E0B0E0041B150B260B370B0283138322
S1131DE0248335830AC0DF01401B510B620B730B44
S1131DF0ED91FC911197309701F74A835B836C83D3
S1131E007D83109741F08D919C91119799838883DC
S1131E10CD93DC9315C099838883D0930A08C0932B
S1131E2009080EC0198218828E819F81A885B98500
S1131E308A839B83AC83BD83D0930A08C09309082B
S1131E40DF91CF911F910F91089580913E118F5F83
S1131E5080933E1180E197E20C94FF000895109264
S1131E603E1185E29FE00E94C2010E94740180E15C
S1131E7097E20E94FF0010920A0810920908089540
S1131E80E0910908F0910A08309771F0E817F90712
S1131E9021F40CC08E179F0759F00190F081E02DBA
S1131EA03097C1F780E0089580E0089581E00895B7
S1131EB081E00895CF93DF93EC01E2DF811102C04A
S1131EC0CE015FDFDF91CF910895CF92DF92EF9241
S1131ED0FF920F931F93CF93DF931F92CDB7DEB77B
S1131EE080913E11882309F453C08FB78983F894F5
S1131EF08981C0903E1110923E118FBFD12CE12CEC
S1131F00F12CCC0CDD1CEE1CFF1CD701C601880F84
S1131F10991FAA1FBB1F880F991FAA1FBB1FC80E9A
S1131F20D91EEA1EFB1E1BC0C81AD90AEA0AFB0AFC
S1131F30D8018D919C91119790930A088093090878
S1131F401A968C91813011F4C8011BDFD8011B96BD
S1131F50ED91FC911C97309711F0C80119950091EF
S1131F60090810910A080115110591F0F801828100
S1131F709381A481B581C816D906EA06FB06A0F6AA
S1131F808C199D09AE09BF0982839383A483B58309
S1131F900F90DF91CF911F910F91FF90EF90DF9001
S1131FA0CF9008950C947B0108950C94B301089587
S1131FB080918400909185000895EFE6F0E080819F
S1131FC08D7F8083B19A0895B19AEFE6F0E0808125
S1131FD0826080830895EFE6F0E0808181608083F1
S1131FE0B09A089580E890E082C30895E9E8F0E0AB
S1131FF02081922B9083E8E8F0E09081892B808304
S11320000895CF93DF931F92CDB7DEB78FB789833F
S1132010F89489810F90DF91CF9108958FBF08952F
S1132020CF93DF9380E890E0EBD262ED7FE080E82D
S113203090E0D4D3CFE6D0E088818160888365EDD9
S11320407FE080E890E0EAD388818D7F8883E1E8AF
S1132050F0E080818160808380E1DF91CF910895F9
S11320601F920F920FB60F9211240BB60F922F935B
S11320703F934F935F936F937F938F939F93AF930C
S1132080BF93EF93FF93E0912908F0912A083097CA
S113209009F01995FF91EF91BF91AF919F918F91A5
S11320A07F916F915F914F913F912F910F900BBE54
S11320B00F900FBE0F901F9018951F920F920FB69E
S11320C00F9211240BB60F922F933F934F935F936C
S11320D06F937F938F939F93AF93BF93EF93FF93EC
S11320E0E0912708F0912808309709F01995FF919D
S11320F0EF91BF91AF919F918F917F916F915F917C
S11321004F913F912F910F900BBE0F900FBE0F90E8
S11321101F9018951F920F920FB60F9211240BB6B1
S11321200F922F933F934F935F936F937F938F936C
S11321309F93AF93BF93EF93FF93E0912508F091A2
S11321402608309709F01995FF91EF91BF91AF914F
S11321509F918F917F916F915F914F913F912F91BB
S11321600F900BBE0F900FBE0F901F9018951F92EB
S11321700F920FB60F9211240BB60F922F933F9329
S11321804F935F936F937F938F939F93AF93BF937B
S1132190EF93FF93E0912308F0912408309709F01E
S11321A01995FF91EF91BF91AF919F918F917F917D
S11321B06F915F914F913F912F910F900BBE0F90B4
S11321C00FBE0F901F9018951F920F920FB60F928B
S11321D011240BB60F922F933F934F935F936F93FA
S11321E07F938F939F93AF93BF93EF93FF93E0916C
S11321F02108F0912208309709F01995FF91EF9189
S1132200BF91AF919F918F917F916F915F914F910A
S11322103F912F910F900BBE0F900FBE0F901F9008
S113222018951F920F920FB60F9211240BB60F92AE
S11322302F933F934F935F936F937F938F939F93CA
S1132240AF93BF93EF93FF93E0911F08F0912008A1
S1132250309709F01995FF91EF91BF91AF919F913C
S11322608F917F916F915F914F913F912F910F903B
S11322700BBE0F900FBE0F901F9018951F920F92D8
S11322800FB60F9211240BB60F922F933F934F93D7
S11322905F936F937F938F939F93AF93BF93EF93CA
S11322A0FF93E0911D08F0911E08309709F01995ED
S11322B0FF91EF91BF91AF919F918F917F916F911A
S11322C05F914F913F912F910F900BBE0F900FBED6
S11322D00F901F9018951F920F920FB60F92112412
S11322E00BB60F922F933F934F935F936F937F930C
S11322F08F939F93AF93BF93EF93FF93E0911B084A
S1132300F0911C08309709F01995FF91EF91BF9156
S1132310AF919F918F917F916F915F914F913F9179
S11323202F910F900BBE0F900FBE0F901F9018951A
S11323301F920F920FB60F9211240BB60F922F9388
S11323403F934F935F936F937F938F939F93AF9339
S1132350BF93EF93FF93E0911908F0911A08309717
S113236009F01995FF91EF91BF91AF919F918F91D2
S11323707F916F915F914F913F912F910F900BBE81
S11323800F900FBE0F901F9018951F920F920FB6CB
S11323900F9211240BB60F922F933F934F935F9399
S11323A06F937F938F939F93AF93BF93EF93FF9319
S11323B0E0911708F0911808309709F01995FF91EA
S11323C0EF91BF91AF919F918F917F916F915F91A9
S11323D04F913F912F910F900BBE0F900FBE0F9016
S11323E01F9018951F920F920FB60F9211240BB6DF
S11323F00F922F933F934F935F936F937F938F939A
S11324009F93AF93BF93EF93FF93E0911508F091DF
S11324101608309709F01995FF91EF91BF91AF918C
S11324209F918F917F916F915F914F913F912F91E8
S11324300F900BBE0F900FBE0F901F9018951F9218
S11324400F920FB60F9211240BB60F922F933F9356
S11324504F935F936F937F938F939F93AF93BF93A8
S1132460EF93FF93E0911308F0911408309709F06B
S11324701995FF91EF91BF91AF919F918F917F91AA
S11324806F915F914F913F912F910F900BBE0F90E1
S11324900FBE0F901F9018951F920F920FB60F92B8
S11324A011240BB60F922F933F934F935F936F9327
S11324B07F938F939F93AF93BF93EF93FF93E09199
S11324C01108F0911208309709F01995FF91EF91D6
S11324D0BF91AF919F918F917F916F915F914F9138
S11324E03F912F910F900BBE0F900FBE0F901F9036
S11324F018951F920F920FB60F9211240BB60F92DC
S11325002F933F934F935F936F937F938F939F93F7
S1132510AF93BF93EF93FF93E0910F08F0911008EE
S1132520309709F01995FF91EF91BF91AF919F9169
S11325308F917F916F915F914F913F912F910F9068
S11325400BBE0F900FBE0F901F9018951F920F9205
S11325500FB60F9211240BB60F922F933F934F9304
S11325605F936F937F938F939F93AF93BF93EF93F7
S1132570FF93E0910D08F0910E08309709F019953A
S1132580FF91EF91BF91AF919F918F917F916F9147
S11325905F914F913F912F910F900BBE0F900FBE03
S11325A00F901F9018951F920F920FB60F9211243F
S11325B00BB60F922F933F934F935F936F937F9339
S11325C08F939F93AF93BF93EF93FF93E0910B0887
S11325D0F0910C08309709F01995FF91EF91BF9194
S11325E0AF919F918F917F916F915F914F913F91A7
S11325F02F910F900BBE0F900FBE0F901F90189548
S11326001F93CF93DF931F92CDB7DEB72FB72983E4
S1132610F8941981009709F464C08837910549F446
S113262061E080E00E94F80160E180E00E94F8012E
S113263058C0803C910529F462E080E00E94F801D2
S113264050C08C34910529F464E080E00E94F801C4
S113265048C08038910529F468E080E00E94F801C0
S113266040C08434910529F460E280E00E94F801BE
S113267038C0803B910529F460E480E00E94F801B1
S113268030C0883B910529F460E880E00E94F8019D
S113269028C0883C910529F461E081E00E94F8019A
S11326A020C08039910529F468E081E00E94F80196
S11326B018C0803A910529F460E181E00E94F80194
S11326C010C0803221E0920729F460E281E00E9488
S11326D0F80107C08334914021F460E481E00E9452
S11326E0F8011FBF0F90DF91CF911F9108951F93A1
S11326F0CF93DF931F92CDB7DEB72FB72983F8941A
S11327001981009709F464C08837910549F461E0A0
S113271080E00E94100260E180E00E94100258C034
S1132720803C910529F462E080E00E94100250C0D0
S11327308C34910529F464E080E00E94100248C0C2
S11327408038910529F468E080E00E94100240C0BE
S11327508434910529F460E280E00E94100238C0BC
S1132760803B910529F460E480E00E94100230C0AF
S1132770883B910529F460E880E00E94100228C09B
S1132780883C910529F461E081E00E94100220C098
S11327908039910529F468E081E00E94100218C094
S11327A0803A910529F460E181E00E94100210C092
S11327B0803221E0920729F460E281E00E94100255
S11327C007C08334914021F460E481E00E94100248
S11327D01FBF0F90DF91CF911F910895803891050D
S11327E029F470932A086093290808958039910583
S11327F029F470932208609321080895803A910582
S113280029F470931A08609319080895803291404E
S113281021F470931208609311080895803891058B
S113282029F4709328086093270808958039910546
S113283029F47093200860931F080895803A910545
S113284029F4709318086093170808958032914012
S113285021F47093100860930F0808950895FC0103
S11328609C01205F3F4FAEE3B1E081918C93E2176E
S1132870F307D9F780914B08806880933C01EDE31E
S1132880F1E0808180FFFDCF08950F931F93CF93D4
S1132890DF93CDB7DEB760970FB6F894DEBF0FBEF7
S11328A0CDBF062F142F0097C9F010924C0822E0D8
S11328B02093110220E1FC01ABE3B8E001900D92FA
S11328C02A95E1F7DC01AC01405F5F4F2FE331E073
S11328D09D91F90190834A175B07D1F7112319F0F1
S11328E0113089F048C080911102813079F5EBE311
S11328F0F8E02BE438E0AFE3B1E081918C932E173C
S11329003F07D9F723C0809111028130B1F1809142
S11329104C08811136C010924B0810923C01CE0134
S113292001969DDFEBE2F8E02BE338E0AFE3B1E0A2
S11329308C9181932E173F07D9F781E080934C083F
S113294020C081918C932E173F07D9F71093110261
S11329500230A8F4F0E20F9FC0011124082F007286
S1132960110F110F110F1870102B10934B081093A7
S11329703C0181E00DC080E00BC080E009C080E034
S113298007C0EBE2F8E02BE338E0AFE3B1E0D9CFE6
S113299060960FB6F894DEBF0FBECDBFDF91CF9126
S11329A01F910F910895FC019C01205F3F4FAEE3FE
S11329B0B1E08C918193E217F307D9F7089510924F
S11329C08A1008950F931F93CF93DC0119962C91CD
S11329D0222389F08C01C0E0D8011796ED91FC9177
S11329E01897EC0FF11D80810E94B803CF5FF801A6
S11329F08185C81788F381E0CF911F910F910895C5
S1132A005D9886E40E94D70182EF0E94D70180E09E
S1132A100E94D7018BE80E94D70180EC0E94D70165
S1132A2086E00E94D7015D9A08955D9888E60E9429
S1132A30D7015D9A08958AB18AB9E9E6F0E0808108
S1132A4080830895CF92DF92EF92FF920F931F93AA
S1132A50CF93DF9300D01F921F92CDB7DEB75D985E
S1132A6087E40E94D70180E40E94D701898380E42F
S1132A700E94D7018A8380E40E94D7018B8380E47B
S1132A800E94D7018C8380E40E94D7018D835D9AD4
S1132A90CE0101967C016E0196E0C90ED11C00E0C6
S1132AA0F70111917F01812F0E94B803163761F05D
S1132AB028F4112349F0163641F406C0103C21F0E5
S1132AC0123F11F01B3809F40F5F053009F401E0DF
S1132AD0EC14FD0429F7802F0F900F900F900F90A6
S1132AE00F90DF91CF911F910F91FF90EF90DF90A6
S1132AF0CF900895FC01809122108F5F843119F0EA
S1132B008093221002C010922210809151084091AB
S1132B105008841720F0841B80934F0804C080530E
S1132B20841B80934F0880914F08882379F068179D
S1132B3008F4862F882361F0982F22E538E021934A
S1132B409150E9F7480F40935008089580E00895A4
S1132B5080E00895CF93DF9300D0CDB7DEB70E9415
S1132B60DD010E948602FFD80E945803789480E019
S1132B7090E00E94260487E695E40E942D048FE0ED
S1132B8014D881E00ED862EE74E181E00E9434042E
S1132B900E94C70150DF34DF55DF0BE810E1AA249F
S1132BA0A394B12C772473940F2EF6E2CF2EF0E188
S1132BB0DF2EF02D0F2EFFEDEF2EF4E1FF2EF02D82
S1132BC0612C202E312E472C698223C08CB1972D85
S1132BD0282F207184FD962D80914E089817A1F01E
S1132BE080914D088F5F80934D08843090F09093CE
S1132BF04E08211102C04092411160924D0880910B
S1132C004111811104C005C060924D0802C0E89AC8
S1132C100CDF809141118823C9F2F89464E68CE9B1
S1132C2090E168DF80932410882309F453C00F2EA9
S1132C30FCE98F2EF0E19F2EF02D1B821A820F2EBD
S1132C40F4E65F2EF02DE0912510E43631F5809105
S1132C508A1081112EC0D8011696BC92AE92159797
S1132C6017967C92179718967C92189719961C922F
S1132C7019971B96DC92CE921A971C965C921C971D
S1132C801E96FC92EE921D97822D932D0E946B044A
S1132C9040928A102C98E98102C0E43650F481E015
S1132CA08E0F80932510F0E0EA5DFF4ED4018C91E5
S1132CB08083EA81FB813196FB83EA83FFEF8F1ADD
S1132CC09F0A8091241090E02A813B8128173907BC
S1132CD008F4B9CF78944DD89CCF1F920F920FB6B9
S1132CE00F9211240BB60F928F93EF93FF93809161
S1132CF023108F5F80932310F8945D9881E48EBD38
S1132D000DB407FEFDCF80E48EBD0DB407FEFDCFEC
S1132D10E091510881E08E0F809351088EB5F0E068
S1132D20EE5AF74F808380E48EBD0DB407FEFDCFCD
S1132D308EB5E0915108F0E0EE5AF74F80835D9A2A
S1132D40809151088F5F809351087894FF91EF919F
S1132D508F910F900BBE0F900FBE0F901F90189580
S1132D60DB018F939F9341D0BF91AF91A29F800DC0
S1132D70911DA39F900DB29F900D11240895AA1B3D
S1132D80BB1B51E107C0AA1FBB1FA617B70710F052
S1132D90A61BB70B881F991F5A95A9F78095909584
S1132DA0BC01CD010895A1E21A2EAA1BBB1BFD0193
S1132DB00DC0AA1FBB1FEE1FFF1FA217B307E40716
S1132DC0F50720F0A21BB30BE40BF50B661F771F6E
S1132DD0881F991F1A9469F760957095809590954E
S1132DE09B01AC01BD01CF01089509D0A59F900DB1
S1132DF0B49F900DA49F800D911D11240895A29F4E
S1132E00B001B39FC001A39F700D811D1124911DBA
S1132E10B29F700D811D1124911D08958F929F9270
S1132E20AF92BF92CF92DF92EF92FF92CF93DF9354
S1132E30EC01688179818A819B8161157105810525
S1132E40910521F464E279ED8BE597E02DE133EF10
S1132E5041E050E0CDD149015A019B01AC01A7EA00
S1132E60B1E4C3DF6B017C01ACEEB4EFA5019401C6
S1132E70DDD1DC01CB018C0D9D1DAE1DBF1DB7FF47
S1132E8003C00197A109B04888839983AA83BB83AF
S1132E909F77DF91CF91FF90EF90DF90CF90BF901D
S1132EA0AF909F908F900895B9CF80E092E0B6CF15
S1132EB0A0E0B0E08093000290930102A09302028C
S1132EC0B09303020895FB01DC0102C001900D924E
S1132ED041505040D8F708950F931F93CF93DF9339
S1132EE0009731F46115710519F480E090E039C060
S1132EF08B01EC016EE070E081E090E037D0FC01E2
S1132F00892B99F380E883830115110571F01387E8
S1132F10028781E883838091431190914411892B26
S1132F2021F4F0934411E09343112097C9F0D18721
S1132F30C08783818260838380914511909146117B
S1132F40892B71F4F0934611E09345118091471158
S1132F5090914811892B21F4F0934811E093471183
S1132F60CF01DF91CF911F910F9108950F931F937C
S1132F70CF93DF93869F8001879F100D969F100D3E
S1132F801124C8010DD0EC01009721F0A80160E0E4
S1132F9070E027D1CE01DF91CF911F910F91089559
S1132FA00F931F93CF93DF938230910510F482E047
S1132FB090E0E0914B11F0914C1120E030E0A0E062
S1132FC0B0E0309719F14081518102811381481793
S1132FD05907C8F08417950769F4109731F01296D1
S1132FE00C93129713961C9327C000934B111093C4
S1132FF04C1122C02115310519F04217530718F45A
S11330009A01BD01EF01DF01F801DBCF2115310584
S1133010F9F0281B390B2430310580F48A819B8117
S11330206115710521F0FB019383828304C09093A1
S11330304C1180934B11FE01329644C0FE01E20F05
S1133040F31F8193919322503109398328833AC025
S11330502091491130914A11232B41F42091060209
S11330603091070230934A112093491120910402B0
S1133070309105022115310541F42DB73EB7409139
S1133080080250910902241B350BE0914911F0917B
S11330904A11E217F307A0F42E1B3F0B2817390738
S11330A078F0AC014E5F5F4F2417350748F04E0FA0
S11330B05F1F50934A11409349118193919302C029
S11330C0E0E0F0E0CF01DF91CF911F910F910895DF
S11330D0CF93DF93009709F481C0FC0132971382E8
S11330E01282A0914B11B0914C11109781F4208160
S11330F03181820F931F2091491130914A11281771
S1133100390751F5F0934A11E093491167C0ED0175
S113311020E030E0CE17DF0740F44A815B819E0156
S113312041155105F1F0EA01F5CFD383C283408103
S11331305181840F951FC817D90759F48881998143
S1133140840F951F0296918380838A819B81938348
S113315082832115310529F4F0934C11E0934B112E
S11331603DC0E901FB83EA8349915991C40FD51FFE
S1133170EC17FD0761F480819181840F951F0296FD
S1133180E90199838883828193819B838A83E0E028
S1133190F0E012968D919C911397009719F0FD0120
S11331A0DC01F7CF8D919C9111979D012E5F3F4FCC
S11331B0820F931F2091491130914A112817390722
S11331C069F4309729F410924C1110924B1102C0FB
S11331D013821282B0934A11A0934911DF91CF91C7
S11331E00895DC0101C06D9341505040E0F708950B
S11331F0052E97FB16F400940FD057FD05D0D3DDB0
S113320007FC02D046F408C05095409530952195AE
S11332103F4F4F4F5F4F08959095809570956195FE
S11332207F4F8F4F9F4F0895B7FFDFCDDEDD821BA9
S10B3230930B0895F894FFCFFD
S11332380100000000004D11200080841E000300DE
S105324801027D
S9030000FC
