S00F0000546573744144432E73726563AD
S113000099C00000B6C00000B4C00000B2C0000037
S1130010B0C00000AEC00000ACC00000AAC0000028
S1130020A8C00000A6C00000A4C00000A2C0000038
S1130030A0C000009EC000009CC000009AC0000048
S113004098C0000096C0000094C0000092C0000058
S113005090C000008EC000008CC000008AC0000068
S113006088C0000086C0000084C0000082C0000078
S113007080C000000BC300007CC000007AC00000F8
S113008078C0000076C0000074C0000072C0000098
S113009017C200006EC000006CC000006AC00000FF
S11300A068C0000066C0000064C0000062C00000B8
S11300B060C000005EC000005CC000005AC00000C8
S11300C058C0000056C0000054C0000052C00000D8
S11300D050C000004EC000004CC000004AC00000E8
S11300E048C0000046C0000044C0000042C00000F8
S11300F040C000003EC000003CC000003AC0000008
S113010038C0000036C0000034C0000032C0000017
S113011030C000002EC000002CC000002AC0000027
S113012028C0000026C0000024C0000022C0000037
S113013020C0000011241FBECFEFD1E8DEBFCDBF29
S113014000E00CBF12E0A0E0B2E0EAE5FAE000E073
S11301500BBF02C007900D92AE30B107D9F722E071
S1130160AEE0B2E001C01D92A03CB207E1F73BD281
S113017072C446CFCF93DF931F92CDB7DEB78FEF14
S1130180809364008093650080916100833069F0FE
S11301908FB78983F89489815F9350E85093610005
S11301A053E0509361005F918FBF0F90DF91CF9127
S11301B00895CF93DF931F92CDB7DEB79FB799838E
S11301C0F8949981823040F4E82FF0E0EC59FF4F25
S11301D060958081682360839FBF0F90DF91CF91EA
S11301E00895CF93DF931F92CDB7DEB78091B3020A
S11301F09091B402E091AF02F091B002BE016F5F42
S11302007F4F19958981082E000C990B0F90DF916F
S1130210CF910895FC01908195FFFDCF668380E026
S11302200895FC0190819923ECF7868108954F92FB
S11302305F926F927F928F929F92AF92BF92CF9272
S1130240DF92EF92FF920F931F93CF93DF93EC0112
S11302506A017B0128013901689412F87694679445
S1130260579447941694D1F7888181FD0EC04801B4
S11302705901072E73E1B694A794979487947A95BD
S1130280D1F7702DD301C20115C0D901C8016894FA
S113029013F8B695A795979587951694D1F74801C5
S11302A05901072E74E1B694A794979487947A958C
S11302B0D1F7702D8C159D05AE05BF0568F1C814E6
S11302C0D904EA04FB0450F1888181FF0FC0A7011F
S11302D09601220F331F441F551FC301B2010DD2D3
S11302E0DA01C9010197A109B10912C0C901B80114
S11302F0689413F896958795779567951694D1F732
S1130300A7019601FAD1DA01C9010197A109B1093E
S11303109D838C8381E003C080E001C080E0DF9195
S1130320CF911F910F91FF90EF90DF90CF90BF90EE
S1130330AF909F908F907F906F905F904F900895B3
S11303400F931F93CF93DF93EC018B01803C9105B6
S113035021F462E080E02DDF06C0883C910519F4A9
S113036061E081E026DF8A818F738A83F801268128
S1130370358184819A81482F4370440F997F942B4F
S11303809A8399818470880F880F9B7F892B898336
S11303908A818F7C832B8A839A81977F822F880F0F
S11303A0880F880F892B8A834081518162817381F0
S11303B000E814E82EE130E0CE0139DF998198603D
S11303C09983998190619983DF91CF911F910F91C6
S11303D00895CF93DF93EB0124DF8883DF91CF91DE
S11303E0089518CF08950F931F93CF93DF93CDB73C
S11303F0DEB727970FB6F894DEBF0FBECDBF08EC6B
S113040010E01093B4020093B30281EF91E0909353
S1130410B2028093B10289EE91E09093B00280938E
S1130420AF02E6E0F2E084818D8385818E8386814C
S11304308F8380819181A281B38189839A83AB83E5
S1130440BC83BE016F5F7F4F88EC90E079DF61EF82
S113045070E088EA92E073D1F80181818068818339
S113046027960FB6F894DEBF0FBECDBFDF91CF91B4
S11304701F910F910895FF920F931F93CF93DF93D2
S11304808C01F62EC62FD0E0AE01B80188EC90E0C6
S113049071D08111F9CF8F2DDF91CF911F910F91E1
S11304A0FF900895CF93DF931F92CDB7DEB7898372
S11304B061E0CE010196DFDF0F90DF91CF910895C7
S11304C01F920F920FB60F9211240BB60F922F9317
S11304D03F934F935F936F937F938F939F93AF93C8
S11304E0BF93EF93FF93CF93DF931F92CDB7DEB704
S11304F041E050E0BE016F5F7F4F88EC90E054D044
S1130500F89480910E02E82FF0E0E15FFD4F9981AD
S113051090838B3919F410920E0203C08F5F80937D
S11305200E0278940F90DF91CF91FF91EF91BF91DC
S1130530AF919F918F917F916F915F914F913F9177
S11305402F910F900BBE0F900FBE0F901F90189518
S1130550682F8091B3029091B402E091B102F091BE
S1130560B202199599231CF081E090E008958FEF71
S11305709FEF0895EF92FF920F931F93CF93DF9312
S11305807C018B01EA01209739F0F80161918F0118
S1130590C70140DE2197C9F780E0DF91CF911F9119
S11305A00F91FF90EF900895EF92FF920F931F9396
S11305B0CF93DF937C018B01EA01209739F0C701C7
S11305C030DEF80181938F012197C9F780E0DF9134
S11305D0CF911F910F91FF90EF9008952C9A249A38
S11305E06C98749A0895C6DDF9DFFDDE80B380BB94
S11305F061E080E0DEDD84E880937A00EBE7F0E000
S113060080818823ECF78AE080937700EAE7F0E0C2
S1130610808188608083808180628083ECE7F0E061
S11306208081806C8083808198E090937B00807EC1
S113063089608083789450E031E0452FEAE7F0E068
S11306408CB1932F282F207184FD942F8091AC02BC
S1130650981781F08091AB028F5F8093AB02843056
S113066058F09093AC02211102C03093B50240932C
S1130670AB0202C04093AB028091B502882301F320
S11306805093B502808180648083DACF1F920F92E9
S11306900FB60F9211240BB60F922F933F934F93E3
S11306A05F936F937F938F939F93AF93BF93CF93F6
S11306B0DF93EF93FF93F89480917800CDEAD2E032
S11306C08983809179008883EDDE8981EBDE7894DB
S11306D0FF91EF91DF91CF91BF91AF919F918F9156
S11306E07F916F915F914F913F912F910F900BBE2E
S11306F00F900FBE0F901F901895A1E21A2EAA1BFF
S1130700BB1BFD010DC0AA1FBB1FEE1FFF1FA217BD
S1130710B307E407F50720F0A21BB30BE40BF50BBA
S1130720661F771F881F991F1A9469F76095709543
S1130730809590959B01AC01BD01CF0108950F9365
S11307401F93CF93DF93009731F46115710519F46A
S113075080E090E039C08B01EC016EE070E081E054
S113076090E037D0FC01892B99F380E8838301154D
S1130770110571F01387028781E883838091B602A3
S11307809091B702892B21F4F093B702E093B6025B
S11307902097C9F0D187C087838182608383809149
S11307A0B8029091B902892B71F4F093B902E093E5
S11307B0B8028091BA029091BB02892B21F4F09384
S11307C0BB02E093BA02CF01DF91CF911F910F9149
S11307D008950F931F93CF93DF93869F8001879F84
S11307E0100D969F100D1124C8010DD0EC01009737
S11307F021F0A80160E070E027D1CE01DF91CF9114
S11308001F910F9108950F931F93CF93DF9382301D
S1130810910510F482E090E0E091BE02F091BF02F5
S113082020E030E0A0E0B0E0309719F14081518140
S11308300281138148175907C8F08417950769F492
S1130840109731F012960C93129713961C9327C0AD
S11308500093BE021093BF0222C02115310519F086
S11308604217530718F49A01BD01EF01DF01F801A3
S1130870DBCF21153105F9F0281B390B2430310564
S113088080F48A819B816115710521F0FB019383BA
S1130890828304C09093BF028093BE02FE0132960D
S11308A044C0FE01E20FF31F81939193225031095A
S11308B0398328833AC02091BC023091BD02232B96
S11308C041F420910202309103023093BD0220933F
S11308D0BC0220910002309101022115310541F43E
S11308E02DB73EB74091040250910502241B350BED
S11308F0E091BC02F091BD02E217F307A0F42E1BB5
S11309003F0B2817390778F0AC014E5F5F4F24176F
S1130910350748F04E0F5F1F5093BD024093BC0251
S11309208193919302C0E0E0F0E0CF01DF91CF9199
S11309301F910F910895CF93DF93009709F481C01D
S1130940FC01329713821282A091BE02B091BF02C1
S1130950109781F420813181820F931F2091BC0272
S11309603091BD022817390751F5F093BD02E09389
S1130970BC0267C0ED0120E030E0CE17DF0740F491
S11309804A815B819E0141155105F1F0EA01F5CFE1
S1130990D383C28340815181840F951FC817D9071F
S11309A059F488819981840F951F029691838083DD
S11309B08A819B81938382832115310529F4F093E5
S11309C0BF02E093BE023DC0E901FB83EA83499183
S11309D05991C40FD51FEC17FD0761F480819181F3
S11309E0840F951F0296E9019983888382819381FC
S11309F09B838A83E0E0F0E012968D919C9113979B
S1130A00009719F0FD01DC01F7CF8D919C911197AE
S1130A109D012E5F3F4F820F931F2091BC023091A6
S1130A20BD022817390769F4309729F41092BF02E0
S1130A301092BE0202C013821282B093BD02A09330
S1130A40BC02DF91CF910895DC0101C06D93415048
S10D0A505040E0F70895F894FFCF3A
S1110A5A0000C00220008025000003000100FF
S9030000FC
