S01B00004C574D6573685F696E7465726E616C5F4144432E73726563F6
S113000099C00000B8C00000B6C00000B4C0000031
S1130010B2C00000B0C00000AEC00000ACC0000020
S1130020AAC00000A8C00000A6C00000A4C0000030
S1130030A2C00000A0C000009EC000009CC0000040
S11300409AC000000C94570F0C94840F0C94B10FB9
S11300500C942A0F90C000008EC000008CC00000D9
S11300608AC0000088C0000086C0000084C0000070
S113007082C000000C941B157EC000007CC00000F0
S11300800C940B100C9438100C9465100C94DE0F27
S113009037C2000070C000006EC000006CC00000D9
S11300A06AC0000068C000000C94BF100C94EC10EF
S11300B00C9419110C9492105EC000000C947311EE
S11300C00C94A0110C94CD110C94461154C0000052
S11300D052C0000050C000004EC000004CC00000E0
S11300E04AC0000048C0000046C0000044C00000F0
S11300F042C0000040C000003EC000003CC0000000
S11301003AC0000038C0000036C0000034C000000F
S113011032C0000030C000002EC000002CC000001F
S11301202AC0000028C0000026C0000024C000002F
S113013022C0000011241FBECFEFD1E8DEBFCDBF27
S113014000E00CBF12E0A0E0B2E0E8E4FCE200E072
S11301500BBF02C007900D92A630B107D9F72EE06D
S1130160A6E0B2E001C01D92A53DB207E1F70E94EE
S113017068140C94221644CF0E94D20E20910A02D5
S11301802223D9F04091D40E30E020910A02642F4A
S1130190732F0E945315FB018FEF9FEF642F732F72
S11301A00E94531530E0629FC001639F900D729FBF
S11301B0900D11248E0F9F1F08956091D40E70E04E
S11301C00E945315CB0108950E94D70E0E94FB0E86
S11301D0109206021092070210920802109209026D
S11301E010920C0210920B020C94080F0E94E50E60
S11301F010920A020895E8DFF9DF0C94EC0E0F93D5
S11302001F93CF93DF93EC010E94D20E8C01BE01A9
S113021080E090E02091D40E30E040E050E00E9475
S11302204415DC01CB01A80160E070E0480F591FC0
S11302306A1F7B1F409306025093070260930802D3
S113024070930902409106025091070260910802DE
S113025070910902AB0166277727409306025093F9
S113026007026093080270930902409106025091BC
S11302700702609108027091090241155105610558
S1130280710591F0409106025091070260910802B5
S1130290709109020196080F191F10930C02009324
S11302A00B020E94D70E08C0080F191F10930C02EE
S11302B000930B020E94DE0E80910B0290910C02BF
S11302C08436910530F48C599F4F90930C0280939F
S11302D00B0280910B0290910C020E94F00EDF91B0
S11302E0CF911F910F91089510920A020E940A0F54
S11302F08093D40E08958091060290910702A091F4
S11303000802B09109020097A105B105C9F08091D6
S1130310060290910702A0910802B0910902019788
S1130320A109B1098093060290930702A0930802E1
S1130330B09309020097A105B10511F40E94DE0EE5
S113034080910A028F5F80930A029091D40E8917DC
S113035048F010920A02E0910D02F0910E023097DB
S113036009F0199508950E94D70EE0910F02F091BB
S11303701002309709F01995089590930E02809316
S11303800D0208959093100280930F020895CF9365
S1130390DF931F92CDB7DEB78FEF80936400809315
S11303A0650080916100833069F08FB78983F89488
S11303B089815F9350E85093610053E0509361004A
S11303C05F918FBF0F90DF91CF910895CF93DF930B
S11303D01F92CDB7DEB79FB79983F8949981823085
S11303E040F4E82FF0E0EC59FF4F609580816823DA
S11303F060839FBF0F90DF91CF910895CF93DF93D8
S11304001F92CDB7DEB79FB79983F8949981823054
S113041038F4E82FF0E0EC59FF4F8081682B6083BB
S11304209FBF0F90DF91CF910895EF92FF920F93AA
S11304301F93CF93DF937C018B01EA01209739F05E
S1130440F80161918F01C70129D02197C9F780E094
S1130450DF91CF911F910F91FF90EF900895EF924C
S1130460FF920F931F93CF93DF937C018B01EA01DB
S1130470209739F0C70119D0F80181938F01219792
S1130480C9F780E0DF91CF911F910F91FF90EF901A
S113049008952C9A249A6C98749A0895FC0190817A
S11304A095FFFDCF668380E00895FC019081992338
S11304B0ECF786810895FF920F931F93CF93DF93F8
S11304C08C01F62EC62FD0E0AE01B80188EC90E086
S11304D0ACDF8111F9CF8F2DDF91CF911F910F9157
S11304E0FF900895CF93DF931F92CDB7DEB7898332
S11304F061E0CE010196DFDF0F90DF91CF91089587
S11305001F920F920FB60F9211240BB60F922F93D6
S11305103F934F935F936F937F938F939F93AF9387
S1130520BF93EF93FF93CF93DF931F92CDB7DEB7C3
S113053041E050E0BE016F5F7F4F88EC90E08FDFB9
S1130540F89480911102E82FF0E0EE5EFD4F99815E
S113055090838B3919F41092110203C08F5F80933A
S1130560110278940F90DF91CF91FF91EF91BF9199
S1130570AF919F918F917F916F915F914F913F9137
S11305802F910F900BBE0F900FBE0F901F901895D8
S1130590EAE9FEE0148215821182108217AA16AAD3
S11305A0E0EAFEE080EC9EE011921192E817F90770
S11305B0D9F7B2D76AD318D143D09BD109C60895CD
S11305C090939B0E80939A0E0C94A80C089590938C
S11305D09D0E80939C0E0C94960C0895E82FF0E0E9
S11305E0EE0FFF1FE056F14F7183608308959FD390
S11305F00E94950B4ED043C60895E091AE02F0914F
S1130600AF023097D9F0228133818217930789F49E
S113061005C0228133812817390759F4DC01AD570D
S1130620BF4F2C91278713962C91208B22E0248393
S113063005C00190F081E02D309759F717C1089556
S11306401092AF021092AE020895FC011482178634
S113065013821282AAE9BEE0D6968D919C91D79717
S11306600196D7969C938E93D6978091AE029091E3
S1130670AF02009739F411821082F093AF02E09335
S1130680AE02089591838083F093AF02E093AE02AB
S113069008950F931F93CF93DF93E091AE02F091EF
S11306A0AF02309709F49BC0EF018C81882321F0BD
S11306B0823009F46EC08DC0A2D08C01009721F461
S11306C082E08C838F878BC09B838A8381E08C83B9
S11306D0F801E957FF4F8DEF92E0918380833197C2
S11306E0898582FB882780F980839985D8011B96A8
S11306F08C911B9790FB80F91B968C931B97998583
S113070093FB992790F990FB82F91B968C931B9786
S113071099859695917090FB81F91B968C931B9704
S1130720EAE9FEE084818F5F84831C968C931C9796
S1130730808191811E969C938E931D978D819E81BD
S113074050969C938E931F978885982F9F705196EF
S11307508C915197807F892B51968C9351979F81CF
S11307609295907F8F70892B51968C93F801EF5757
S1130770FF4F4C8550E06A857B85808191810E9482
S1130780F715F80191818C85890F8183C801E7D61B
S113079026C0EC17FD0741F4808191819093AF024C
S11307A08093AE020AC0FC01808191818C179D0761
S11307B0D1F78881998191838083EAE9FEE086A953
S11307C097A9019797AB86ABED85FE85CE01199568
S11307D006C00990D881C02D209709F066CFDF911B
S11307E0CF911F910F910895E0EBF2E08AE098E039
S11307F01082E757FF4FE817F907D1F70895809162
S1130800B002882349F0E9E3F3E081E090E0AC0131
S11308102081211122C002C040E050E069E8649FB9
S11308209001659F300D1124C90180559D4FFC0135
S113083011926A95E9F740E1FC014183EF57FF4FBC
S11308402E533D4F31832083EAE9FEE026A937A9E0
S11308502F5F3F4F37AB26AB08950196E757FF4F05
S11308608A309105A1F680E090E00895FC011082A1
S1130870EAE9FEE086A997A9019797AB86AB0895AC
S1130880009741F0FC01E757FF4F88E0EA30F80792
S113089018F012C0E0EBF2E08081882321F00FC051
S11308A0808181110FC0E757FF4F88E0EA30F807D5
S11308B0B8F380E090E0089580E090E008958E2FF2
S11308C09F2F08958E2F9F2F0895FC01DC01AD57B3
S11308D0BF4F1C92AAE9BEE014969C9114979F5FA7
S11308E014969C93149794878D919C9196878587F1
S11308F00895ABE0B8E080E090E04FEF5FEF119631
S11309005C934E93FC01EE0FFF1FEE0FFF1FEE0FE3
S1130910FF1FE81BF90BE65FF74F20812E7F208332
S113092014961C921497019617968436910539F7FC
S113093008950F931F93CF93DF93EBE0F8E020E04B
S113094030E0062F10E04081518148175907B1F477
S1130950D901AA0FBB1FAA0FBB1FAA0FBB1FA21B43
S1130960B30BA65FB74F4C9146954170C42F40E03E
S1130970D42FC017D10711F4CD0108C02F5F3F4F0A
S1130980379624363105F9F680E090E0DF91CF9177
S11309901F910F910895A0E0B0E0EAE0F8E08081B3
S11309A080FD0DC08581882381F0109739F015965C
S11309B09C911597891718F4DF0101C0DF01379660
S11309C08AE0E63CF80759F7FD0180818D70806369
S11309D0808380E88583CF010895FC01808180FDB8
S11309E005C08FEF9FEF9283818315820895A1DF65
S11309F0009721F0FC018381948108958FEF9FEF8C
S1130A00089597DF009709F0E8CF08950F931F9397
S1130A10CF93DF93FC010185128511232CF4858586
S1130A20968508171907E1F5858196810196C1F12C
S1130A30EF0160E0858596857CDFFC01892BA1F0C0
S1130A408F8198850196F9F420919A0E30919B0E2E
S1130A508F85988928173907B1F41483038380811B
S1130A608F70806380830AC096DFFC018D859E852C
S1130A709283818389859A8594838383CD57DF4FBD
S1130A80888186830DC08381948108171907B1F387
S1130A909681DE01AD57BF4F8C919817F0F2EECFDF
S1130AA0DF91CF911F910F910895CF93DF93FC01B4
S1130AB0878590898F3F2FEF9207D9F1EF016385E6
S1130AC063FB662760F935DFDC01892B91F18C919A
S1130AD080FD2FC0FE01ED57FF4F8081811119C0A9
S1130AE08C918F7080638C9315968C9115978F5F82
S1130AF015968C938F3FE9F4EFE0F8E02BEC3AE0A5
S1130B00808186958F5F80833796E217F307C1F75C
S1130B1010C09C91892F82958F70815F8F70282FD0
S1130B202295207F9F70922B9C93811102C0CD014E
S1130B3054DFDF91CF910895CF93DF93FC01878534
S1130B4090898F3F2FEF920729F48FEF9FEF9087C3
S1130B5087830EC0238522FF03C09087878308C044
S1130B60EF01638563FB662760F941DF98878F8314
S1130B70DF91CF910895AF92BF92CF92DF92EF921F
S1130B80FF921F93CF93DF93EC011B8513FB112777
S1130B9010F9CF84D888612FC60129DF019659F056
S1130BA0FE01E957FF4F11821082319782E0808362
S1130BB0CE01D5D422C0AD84BE8421DE7C01009751
S1130BC0D1F083DEF70181818A5F8183E957FF4F8A
S1130BD011821082F701B08AA786EF57FF4F019068
S1130BE0F081E02D81E08083B282A182D482C3822D
S1130BF01583C701B4D4CE0139DEDF91CF911F91A3
S1130C00FF90EF90DF90CF90BF90AF900895FC01DC
S1130C102185263049F40780F085E02D65818381A4
S1130C209481EFDE81E0089580E00895DC01199657
S1130C302C911997222371F01796ED91FC91189736
S1130C402081222319F0213019F006C022C508950D
S1130C50DECF089580E0089580E00895BC01E8EDBA
S1130C60FAE022ED3BE040E051E09081992319F055
S1130C7091509083452F3596E217F307B1F744233B
S1130C8019F0CB010C94540E0895E8EDFAE082EDCE
S1130C909BE010823596E817F907D9F7E6ECFAE0FD
S1130CA084E690E0A0E0B0E086839783A087B187D4
S1130CB012868EE296E09487838766E176E080E090
S1130CC08DCC0895CF93DF93DC01ED91FC911197C6
S1130CD021812838F9F420812F7D2134D9F412960A
S1130CE02C912031B8F0EC018ADD009799F020E2D4
S1130CF0FC0120832A8121832B81ED57FF4F208320
S1130D002C81319620834A8150E068817981029652
S1130D100E94F715DF91CF910895662321F022E216
S1130D20FC012083089524E2FC01208308952F927E
S1130D303F924F925F926F927F928F929F92AF9267
S1130D40BF92CF92DF92EF92FF920F931F93CF93B4
S1130D50DF93CDB7DEB72C970FB6F894DEBF0FBE86
S1130D60CDBF00E010E00F2EF4E2BF2EF02D0F2EC9
S1130D70FAE9EF2EFEE0FF2EF02D4424439468940C
S1130D80772474F86894662463F86894552452F8B8
S1130D90212C312C0F2EFFE1AF2EF02DCC24C39447
S1130DA0D12CEFC1D8018C91823209F41AC130F4EC
S1130DB0803259F0813209F410C1E3C1833209F45D
S1130DC0DBC1843209F4DBC1DCC1F801B082838564
S1130DD083FDD7C1258136812F3F3F4FC9F4D80108
S1130DE01F962D913C915097F701408151814217F4
S1130DF0530721F02F3F3F4F09F0C3C181FF04C0C7
S1130E00E1E2D801EC93BDC1E2E2D801EC93B9C1AF
S1130E10D8011F962D913C9150972F3F3F4F11F4CD
S1130E2080FDAFC1F70120813181D8011D968D91DC
S1130E309C911E972817390709F4A3C1C801E6DD60
S1130E40E4EDFAE080E090E0822C932C9C01448154
S1130E50442309F474C0D8011D966D917C911E97AA
S1130E60408151816417750709F06AC01C968C9102
S1130E701C97F901EE0FFF1FEE0FFF1FE20FF31F88
S1130E80EC52F54F9281981B983008F03EC0F9015E
S1130E90EE0FFF1FEE0FFF1FE20FF31FEC52F54F93
S1130EA08381482F50E0092E02C0559547950A9436
S1130EB0E2F740FF17C0F7012081318117968D9129
S1130EC09C9118972817390709F05BC11B966C9100
S1130ED01B9763FB662760F91F968D919C91509731
S1130EE090DD4FC1F901EE0FFF1FEE0FFF1F2E0F14
S1130EF03F1FF901EC52F54F960102C0220F331F38
S1130F009A95E2F7822B838343C1F901EE0FFF1F09
S1130F10EE0FFF1F2E0F3F1FF901EC52F54F828396
S1130F208381282F30E09195A90102C0440F551FF9
S1130F309A95E2F7CA0181608383A48229C14F0193
S1130F40019635968233910509F080CF811491047E
S1130F5009F417C1D8011D968D919C911E97F40137
S1130F60918380831C968C9182834382A48286EC35
S1130F709AE09AD60DC1D7012D913C91F80187854D
S1130F8090892817390781F0438542FD0BC0C801B9
S1130F903BD3D7012D913C91F8018785908928177F
S1130FA0390711F0019669F4D8011B968C911B97AF
S1130FB081FF03C0E1E2EC93E4C0E2E2D801EC93E8
S1130FC0E0C0D80117968D919C91189782179307CA
S1130FD009F0D7C0E3E2EC93D4C060E0C801FFD0CD
S1130FE0D0C01092D30AD80151968C915197829512
S1130FF08F70E82FF0E0EE0FFF1FE056F14F0190E5
S1131000F081E02D309709F460C01D962D913C913C
S11310101E973A8329831F964D915C9150975C8368
S11310204B8351969C9151979F709D838E83AF57AC
S1131030BF4F8D919C9199878887B8016E5F7F4FD0
S1131040861B970BD80111969C911197981B9A8730
S1131050AD57BF4F8C918B8711968C918C87D8019B
S11310601B969C91692F637092FD02C080E001C0C1
S113107080E2862B93FD02C090E001C090E4892BAE
S11310804F3F5F4F11F090E001C0952D892BD8019F
S113109019964D915C911A972417350711F090E039
S11310A001C0962D892B8F83D80115962D913C91E3
S11310B016972F3F3F4F11F090E001C0972D892BD9
S11310C08F83CE010196199501C080E0F8019385C4
S11310D090FF80E0D80117962D913C9118972F3FEF
S11310E03F4F69F4F70140815181D8011F962D913A
S11310F03C9150974217530711F493FF842DF80144
S1131100258136812F3F3F4FA1F1D7012D913C918D
S11311102F3F3F4F71F1882361F171DB4C01009740
S113112041F1D3DBF40181818D5F8183E957FF4F66
S113113011821082D8011B968C911B978695817021
S1131140F401938580FB91F993871D968D919C9171
S11311501E97908B8787EF57FF4F0190F081E02D0A
S113116010828091D30A82831C968C918183C4015E
S1131170F6D1D801BC9205C0C801FDDC02C0C8018B
S113118075DBC8017DDB8C01892B09F00BCE07C010
S1131190F80187819085019609F0FBCEECCE2C9660
S11311A00FB6F894DEBF0FBECDBFDF91CF911F9174
S11311B00F91FF90EF90DF90CF90BF90AF909F90F2
S11311C08F907F906F905F904F903F902F900895F5
S11311D01092E30B1092E20B1092E10B0895662338
S11311E021F020E3FC01208303C021E3FC012083E0
S11311F08091E30B8F5F8093E30B0895CF93DF938C
S1131200C091E10BD091E20BFE01EF57FF4FA0819B
S1131210B1817091DF0B872F90E05091E00B652F27
S1131220513108F060E16623D1F04091DE0BEEEC21
S1131230FBE0A80FB91F2FEF260F30E02153344FE6
S11312409C91808189278D93442311F0808303C06E
S11312509081892780833196E217F30789F7760F07
S11312607093DF0B561B5093E00B552319F082E368
S1131270888302C084E38883DF91CF9108950F931C
S11312801F93CF93DF938091E30B882309F4E1C08C
S1131290E091E10BF091E20B309709F4D4C0808126
S11312A0843309F055C08091DF0BDF01AF57BF4F86
S11312B0CD91DC91C80FD11DAEECBBE00D911D9119
S11312C02D913C91139714964D915D916D917C9164
S11312D01797042715272627372718964D915D91D0
S11312E06D917C911B9704271527262737271C9679
S11312F04D915D916D917C911F97D901C80184270F
S11313009527A627B7272091DE0B222351F0888347
S11313109983AA83BB8381818C5F8183CF01DED1D2
S11313200DC061E0088119812A813B8108171907E2
S11313302A073B0709F060E0CF01EFDC1092E20BD3
S11313401092E10B8091E30B81508093E30B81C0F9
S1131350823309F07EC083E3808360EC7EE08EEC10
S11313609BE0C9D376C0DC012C912053223008F0D5
S11313706CC09093E20B8093E10BEEECFBE01C96C7
S11313804C911C9750E060E070E04083518362838D
S113139073831F964D915C91509760E070E0BA01A1
S11313A05527442751962C91519722952F70422B03
S11313B044835583668377831D964D915C911E9774
S11313C060E070E0BA015527442751962C9151975B
S11313D02F70422B408751876287738715964D91F2
S11313E05C91169760E070E0BA01552744271B967C
S11313F02C911B97422B44875587668777876C917E
S1131400613331F411962C911197245011962C9339
S1131410FC01EF57FF4F408151819C012E5F3F4FEC
S1131420421B530BFC012181241B2093E00B1092DF
S1131430DF0B21E0603309F020E02093DE0B22E390
S1131440DC012C9306C080E090E01ADA009709F0E2
S11314508ACFDF91CF911F910F910895EF92FF9260
S11314600F931F93CF937C0110E080E090E001E0A4
S1131470C3E113C0FC012081213179F4EC57FF4F03
S1131480208131812150310931832083232B21F4A0
S1131490FC01C083102F01C0102FF2D9009751F71F
S11314A0112311F0C70100D4CF911F910F91FF9028
S11314B0EF900895EF92FF920F931F93CF93DF93D2
S11314C07C0110E080E090E001E0D7E1C0E116C0CB
S11314D0FC012081263191F4EC57FF4F20813181AA
S11314E02150310931832083232B39F4FC01D0832B
S11314F0ED57FF4FC083102F01C0102FC1D90097A3
S113150039F7112311F0C701CFD3DF91CF911F9188
S11315100F91FF90EF9008951092FF0B1092FE0B25
S1131520E1EFFBE082E390E0A0E0B0E08683978304
S1131530A087B18712868AE59AE094878387E4EED0
S1131540FBE08AE090E0A0E0B0E086839783A08788
S1131550B18712868EE29AE0948783870895CF93A9
S1131560DF93EC01FC01EA57FF4F808181FF03C048
S113157092E1988308C09B8591FF03C090E1988312
S113158002C092E19883FE01ED57FF4F108280FF65
S113159005C02FEF3FEF3E832D8306C020919C0EA4
S11315A030919D0E3E832D83857019F4CE01C4DAEB
S11315B004C08F85988998878F83EAE9FEE080814B
S11315C091819A87898785818F5F85838C838F81B9
S11315D09885019671F481E498E89B838A830E943C
S11315E0E915CC57DF4F8770992701969983888333
S11315F008C081E698E89B838A83CC57DF4F198221
S11316001882DF91CF9108950F931F93CF93DF93A7
S11316108C01F5D8EC01892BB9F182E18883F801BA
S113162081818983FE01ED57FF4F10820E94E915E5
S1131630FE01EC57FF4F87709927019691838083B1
S1131640339611821082F801418150E0B8016E5F37
S11316507F4FCE0102960E94F71581E498E89B83A0
S11316608A838FEF9FEF98878F83F8018581968116
S11316709E838D83EAE9FEE0808191819A87898740
S113168085818F5F85838C83DF91CF911F910F912B
S11316900895CF93DF93FC0121852330D9F410C042
S11316A0FC012081263189F43485298132130DC04F
S11316B027E120832A81EA57FF4F208381E00BC072
S11316C0FC01C781D08580E090E0DAD8009741F72B
S11316D080E001C080E0DF91CF91089522E1FC0118
S11316E020830895E091FE0BF091FF0B813021F0EF
S11316F048F0823019F004C080E205C081E203C0E2
S113170081E001C080E0DF01AD57BF4F8C9385E1DC
S113171080831092FF0B1092FE0BEAE9FEE086A98B
S113172097A9019797AB86AB08959F92AF92BF920A
S1131730CF92DF92EF92FF920F931F93CF93DF9399
S1131740C0E0D0E00F2EF4E1AF2EF02D0AE91EE048
S11317500F2EF7E1DF2EF02D0F2EF6E19F2EF02D48
S11317600F2EF5E1EF2EF12CF02D0F2EF3E1CF2EFD
S1131770F02D0F2EF1E1BF2EF02D65C0888183314D
S1131780F1F028F4803149F0823159F05CC08531A0
S113179061F1873109F448C056C061E0CE011FDD14
S11317A052C0FE01EC57FF4F80819181892B29F0B3
S11317B0B88284EE9BE078D246C0C88244C080914F
S11317C0FE0B9091FF0B892B09F03DC0D093FF0BCA
S11317D0C093FE0BFE01A192CF01D1D0F80186A9DE
S11317E097A9019697AB86AB2EC0FE01ED57FF4F2C
S11317F08081811117C02D853E85F80180819181FA
S11318002817390769F48B8580FF0AC09882FE0186
S1131810EC57FF4FF182E08281EF9BE045D213C089
S1131820D88211C0D8820FC0CE013FD9FE01E9573A
S1131830FF4F0190F081E02D309719F4CE0116D8B6
S113184002C0CE011995CE011BD8EC01892B09F0F9
S113185095CFDF91CF911F910F91FF90EF90DF9083
S1131860CF90BF90AF909F9008958091000C982FD7
S11318709F70E4E5F1E08081807F892B80838091F3
S1131880000C882329F08091010C80935301089562
S11318908091010C982F9F71E8E4F1E08081807EB3
S11318A0892B80830895A2E4B1E023E0E1E4F1E030
S11318B02C9390819F719830D9F7A2E4B1E0E1E4D0
S11318C0F1E08C9390819F718913FBCF089588E098
S11318D0EADF8FEF80934F018091020C882311F08F
S11318E086E1E1CF089560E481E00E94E601E9E346
S11318F0F1E08081816080831092020C1092000CD0
S113190081E08093830C88E0CEDF8BEE80935601D8
S1131910ECE4F1E080818068808308958093020C78
S1131920D6CF08958093010CA0CF0895CF93DF9371
S11319301F921F92CDB7DEB79A8389838093620189
S11319408A81809363010F900F90DF91CF91089566
S1131950CF93DF931F921F92CDB7DEB79A8389830B
S1131960809360018A818093610199818A81890FC2
S113197080936D010F900F90DF91CF910895CF93D5
S1131980DF93EC0189E18FDF8FEF80934F01888132
S11319908E5F809380018881882381F020E0822FEC
S11319A090E0FC01EF57FE4FDE01A80FB91F11961E
S11319B08C9180832F5F8881281788F383E080933C
S11319C0830C82E080934201DF91CF910895CF93FD
S11319D0DF93EC01CB0140E060E051D6CE0139D673
S11319E0CE01DBD6DF91CF9108951F93CF93DF9380
S11319F000D01F921F92CDB7DEB78091830C823046
S1131A0009F465C080914F0183FF3EC0A0917B0122
S1131A106A2F70E0AB014F5F5F4F80E090E020E001
S1131A20FC01E058FE4F3081FC01ED5FF34F308341
S1131A302F5F822F90E08417950794F383E09CE056
S1131A409A838983A250AB83FB01ED5FF34F8081BE
S1131A508C83809147018A558D83CE01019632D9BA
S1131A60E1E4F1E080818F718631E1F7EFE4F1E0A8
S1131A70808188608083ECE4F1E080818F778083CB
S1131A8080818068808323C080914F0186FF1FC0BE
S1131A90809141018F718931A9F41091420112950D
S1131AA01695177049F0133021F0153021F013E02A
S1131AB003C011E001C012E00ADF81E08093830CCF
S1131AC0812F10DEEFE4F1E08081806480830F9049
S1131AD00F900F900F900F90DF91CF911F91089569
S1131AE07BD0B6D500DF0C94C80208957EDF0E9437
S1131AF0F702E5C008956BDF81CB08950F931F9320
S1131B00CF93DF93EC018091840C9091850C009726
S1131B1009F445C04E815F8168857985FC010281A5
S1131B20138124813581401751076207730760F0E0
S1131B30DC0117C0028113812481358140175107CC
S1131B406207730768F403C0FC01A0E0B0E0041B63
S1131B50150B260B370B02831383248335830AC0AA
S1131B60DF01401B510B620B730BED91FC9111973C
S1131B70309701F74A835B836C837D83109741F030
S1131B808D919C91119799838883CD93DC9315C093
S1131B9099838883D093850CC093840C0EC01982DA
S1131BA018828E819F81A885B9858A839B83AC83A3
S1131BB0BD83D093850CC093840CDF91CF911F918A
S1131BC00F9108958091D20E8F5F8093D20E80E1A1
S1131BD097E20C94FF0008951092D20E82EE9DE0DD
S1131BE00E94C2010E94740180E197E20E94FF00FA
S1131BF01092850C1092840C0895CF93DF93A091DA
S1131C00840CB091850C109791F1A817B90751F580
S1131C100AC08E179F0729F5109731F02081318172
S1131C202D933C9307C0FC01208131813093850CB6
S1131C302093840C0190F081E02D3097C1F0428113
S1131C40538164817581EC018A819B81AC81BD8162
S1131C50840F951FA61FB71F82839383A483B58324
S1131C6006C0DF01ED91FC911197309791F6DF9159
S1131C70CF910895E091840CF091850C309771F028
S1131C80E817F90721F40CC08E179F0759F001904B
S1131C90F081E02D3097C1F780E0089580E0089549
S1131CA081E0089581E00895CF93DF93EC01E2DFB2
S1131CB0811102C0CE0122DFDF91CF910895CF922E
S1131CC0DF92EF92FF920F931F93CF93DF931F92B4
S1131CD0CDB7DEB78091D20E882309F453C08FB7F5
S1131CE08983F8948981C090D20E1092D20E8FBF4E
S1131CF0D12CE12CF12CCC0CDD1CEE1CFF1CD701EB
S1131D00C601880F991FAA1FBB1F880F991FAA1FFE
S1131D10BB1FC80ED91EEA1EFB1E1BC0C81AD90A57
S1131D20EA0AFB0AD8018D919C9111979093850C36
S1131D308093840C1A968C91813011F4C801DEDEF4
S1131D40D8011B96ED91FC911C97309711F0C801B6
S1131D5019950091840C1091850C0115110591F0D1
S1131D60F80182819381A481B581C816D906EA0657
S1131D70FB06A0F68C199D09AE09BF0982839383E3
S1131D80A483B5830F90DF91CF911F910F91FF90A2
S1131D90EF90DF90CF9008950C947B0108950C94FC
S1131DA0B301089580918400909185000895EFE631
S1131DB0F0E080818D7F8083B19A0895B19AEFE637
S1131DC0F0E08081826080830895EFE6F0E0808116
S1131DD081608083B09A089580E890E082C308957A
S1131DE0E9E8F0E02081922B9083E8E8F0E090812C
S1131DF0892B80830895CF93DF931F92CDB7DEB7ED
S1131E008FB78983F89489810F90DF91CF910895DA
S1131E108FBF0895CF93DF9380E890E0EBD26CEC12
S1131E207EE080E890E0D4D3CFE6D0E08881816082
S1131E3088836FEC7EE080E890E0EAD388818D7F30
S1131E408883E1E8F0E080818160808382E0DF9133
S1131E50CF9108951F920F920FB60F9211240BB6D3
S1131E600F922F933F934F935F936F937F938F932F
S1131E709F93AF93BF93EF93FF93E091A40CF091E2
S1131E80A50C309709F01995FF91EF91BF91AF918F
S1131E909F918F917F916F915F914F913F912F917E
S1131EA00F900BBE0F900FBE0F901F9018951F92AE
S1131EB00F920FB60F9211240BB60F922F933F93EC
S1131EC04F935F936F937F938F939F93AF93BF933E
S1131ED0EF93FF93E091A20CF091A30C309709F0DB
S1131EE01995FF91EF91BF91AF919F918F917F9140
S1131EF06F915F914F913F912F910F900BBE0F9077
S1131F000FBE0F901F9018951F920F920FB60F924D
S1131F1011240BB60F922F933F934F935F936F93BC
S1131F207F938F939F93AF93BF93EF93FF93E0912E
S1131F30A00CF091A10C309709F01995FF91EF9145
S1131F40BF91AF919F918F917F916F915F914F91CD
S1131F503F912F910F900BBE0F900FBE0F901F90CB
S1131F6018951F920F920FB60F9211240BB60F9271
S1131F702F933F934F935F936F937F938F939F938D
S1131F80AF93BF93EF93FF93E0919E0CF0919F0C5E
S1131F90309709F01995FF91EF91BF91AF919F91FF
S1131FA08F917F916F915F914F913F912F910F90FE
S1131FB00BBE0F900FBE0F901F9018951F920F929B
S1131FC00FB60F9211240BB60F922F933F934F939A
S1131FD05F936F937F938F939F93AF93BF93EF938D
S1131FE0FF93E0919C0CF0919D0C309709F01995AA
S1131FF0FF91EF91BF91AF919F918F917F916F91DD
S11320005F914F913F912F910F900BBE0F900FBE98
S11320100F901F9018951F920F920FB60F921124D4
S11320200BB60F922F933F934F935F936F937F93CE
S11320308F939F93AF93BF93EF93FF93E0919A0C89
S1132040F0919B0C309709F01995FF91EF91BF9196
S1132050AF919F918F917F916F915F914F913F913C
S11320602F910F900BBE0F900FBE0F901F901895DD
S11320701F920F920FB60F9211240BB60F922F934B
S11320803F934F935F936F937F938F939F93AF93FC
S1132090BF93EF93FF93E091980CF091990C3097D4
S11320A009F01995FF91EF91BF91AF919F918F9195
S11320B07F916F915F914F913F912F910F900BBE44
S11320C00F900FBE0F901F9018951F920F920FB68E
S11320D00F9211240BB60F922F933F934F935F935C
S11320E06F937F938F939F93AF93BF93EF93FF93DC
S11320F0E091960CF091970C309709F01995FF91A7
S1132100EF91BF91AF919F918F917F916F915F916B
S11321104F913F912F910F900BBE0F900FBE0F90D8
S11321201F9018951F920F920FB60F9211240BB6A1
S11321300F922F933F934F935F936F937F938F935C
S11321409F93AF93BF93EF93FF93E091940CF0911F
S1132150950C309709F01995FF91EF91BF91AF91CC
S11321609F918F917F916F915F914F913F912F91AB
S11321700F900BBE0F900FBE0F901F9018951F92DB
S11321800F920FB60F9211240BB60F922F933F9319
S11321904F935F936F937F938F939F93AF93BF936B
S11321A0EF93FF93E091920CF091930C309709F028
S11321B01995FF91EF91BF91AF919F918F917F916D
S11321C06F915F914F913F912F910F900BBE0F90A4
S11321D00FBE0F901F9018951F920F920FB60F927B
S11321E011240BB60F922F933F934F935F936F93EA
S11321F07F938F939F93AF93BF93EF93FF93E0915C
S1132200900CF091910C309709F01995FF91EF9192
S1132210BF91AF919F918F917F916F915F914F91FA
S11322203F912F910F900BBE0F900FBE0F901F90F8
S113223018951F920F920FB60F9211240BB60F929E
S11322402F933F934F935F936F937F938F939F93BA
S1132250AF93BF93EF93FF93E0918E0CF0918F0CAB
S1132260309709F01995FF91EF91BF91AF919F912C
S11322708F917F916F915F914F913F912F910F902B
S11322800BBE0F900FBE0F901F9018951F920F92C8
S11322900FB60F9211240BB60F922F933F934F93C7
S11322A05F936F937F938F939F93AF93BF93EF93BA
S11322B0FF93E0918C0CF0918D0C309709F01995F7
S11322C0FF91EF91BF91AF919F918F917F916F910A
S11322D05F914F913F912F910F900BBE0F900FBEC6
S11322E00F901F9018951F920F920FB60F92112402
S11322F00BB60F922F933F934F935F936F937F93FC
S11323008F939F93AF93BF93EF93FF93E0918A0CC6
S1132310F0918B0C309709F01995FF91EF91BF91D3
S1132320AF919F918F917F916F915F914F913F9169
S11323302F910F900BBE0F900FBE0F901F9018950A
S11323401F920F920FB60F9211240BB60F922F9378
S11323503F934F935F936F937F938F939F93AF9329
S1132360BF93EF93FF93E091880CF091890C309721
S113237009F01995FF91EF91BF91AF919F918F91C2
S11323807F916F915F914F913F912F910F900BBE71
S11323900F900FBE0F901F9018951F920F920FB6BB
S11323A00F9211240BB60F922F933F934F935F9389
S11323B06F937F938F939F93AF93BF93EF93FF9309
S11323C0E091860CF091870C309709F01995FF91F4
S11323D0EF91BF91AF919F918F917F916F915F9199
S11323E04F913F912F910F900BBE0F900FBE0F9006
S11323F01F9018951F93CF93DF931F92CDB7DEB72D
S11324002FB72983F8941981009709F464C0883799
S1132410910549F461E080E00E94E60160E180E01A
S11324200E94E60158C0803C910529F462E080E0F6
S11324300E94E60150C08C34910529F464E080E0E8
S11324400E94E60148C08038910529F468E080E0E4
S11324500E94E60140C08434910529F460E280E0E2
S11324600E94E60138C0803B910529F460E480E0D5
S11324700E94E60130C0883B910529F460E880E0C1
S11324800E94E60128C0883C910529F461E081E0BE
S11324900E94E60120C08039910529F468E081E0BA
S11324A00E94E60118C0803A910529F460E181E0B8
S11324B00E94E60110C0803221E0920729F460E214
S11324C081E00E94E60107C08334914021F460E476
S11324D081E00E94E6011FBF0F90DF91CF911F9111
S11324E008951F93CF93DF931F92CDB7DEB72FB715
S11324F02983F8941981009709F464C088379105F9
S113250049F461E080E00E94FE0160E180E00E9405
S1132510FE0158C0803C910529F462E080E00E94ED
S1132520FE0150C08C34910529F464E080E00E94DF
S1132530FE0148C08038910529F468E080E00E94DB
S1132540FE0140C08434910529F460E280E00E94D9
S1132550FE0138C0803B910529F460E480E00E94CC
S1132560FE0130C0883B910529F460E880E00E94B8
S1132570FE0128C0883C910529F461E081E00E94B5
S1132580FE0120C08039910529F468E081E00E94B1
S1132590FE0118C0803A910529F460E181E00E94AF
S11325A0FE0110C0803221E0920729F460E281E04C
S11325B00E94FE0107C08334914021F460E481E06D
S11325C00E94FE011FBF0F90DF91CF911F910895CC
S11325D08038910529F47093A50C6093A40C089598
S11325E08039910529F470939D0C60939C0C089597
S11325F0803A910529F47093950C6093940C089596
S11326008032914021F470938D0C60938C0C08956A
S11326108038910529F47093A30C6093A20C08955B
S11326208039910529F470939B0C60939A0C08955A
S1132630803A910529F47093930C6093920C089559
S11326408032914021F470938B0C60938A0C08952E
S11326500895FC019C01205F3F4FAEE3B1E08191FE
S11326608C93E217F307D9F78091C60C80688093A6
S11326703C01EDE3F1E0808180FFFDCF08950F93ED
S11326801F93CF93DF93CDB7DEB760970FB6F8945F
S1132690DEBF0FBECDBF062F142F0097C9F01092D6
S11326A0C70C22E02093040220E1FC01A6EBBCE06D
S11326B001900D922A95E1F7DC01AC01405F5F4F78
S11326C02FE331E09D91F90190834A175B07D1F71D
S11326D0112319F0113089F048C08091040281302F
S11326E079F5E6EBFCE026EC3CE0AFE3B1E0819168
S11326F08C932E173F07D9F723C0809104028130B1
S1132700B1F18091C70C811136C01092C60C1092A1
S11327103C01CE0101969DDFE6EAFCE026EB3CE0BD
S1132720AFE3B1E08C9181932E173F07D9F781E095
S11327308093C70C20C081918C932E173F07D9F743
S1132740109304020230A8F4F0E20F9FC001112498
S1132750082F0072110F110F110F1870102B109306
S1132760C60C10933C0181E00DC080E00BC080E0FA
S113277009C080E007C0E6EAFCE026EB3CE0AFE3FA
S1132780B1E0D9CF60960FB6F894DEBF0FBECDBFCF
S1132790DF91CF911F910F910895FC019C01205F5F
S11327A03F4FAEE3B1E08C918193E217F307D9F781
S11327B00895089580E183B9E9EAFDE083E5808323
S11327C085E6818392E792838383148285E0A2E184
S11327D0BEE001900D928A95E1F7EBE7FEE081E01F
S11327E090E0968385838783808782E0818782E176
S11327F09EE09387828785E0848789ED93E19687BD
S11328008587CF010E9425031092A80D089580E1C9
S113281083B9D0CF08950F931F93CF93DC011996FA
S11328202C91222389F08C01C0E0D8011796ED91F8
S1132830FC911897EC0FF11D80810E947202CF5F0A
S1132840F8018185C81788F381E0CF911F910F911A
S11328500895DC018091CC0C9091CB0C891728F061
S1132860282F291B2093CA0C05C02DE6280F291BED
S11328702093CA0C9091CA0C992331F19D3640F0F3
S11328808093CB0C8DE68093CA0C6D3638F403C06C
S1132890961708F4692F611102C018C06DE6909173
S11328A0CB0C262FE92FF0E0E353F34F30813D9317
S11328B021509C3611F09F5F01C090E02111F2CFAE
S11328C09093CB0C862F089580E0089580E00895BE
S11328D00E94C7010E94490203D961E080E00E947E
S11328E0E601EAE7F0E087E88083808188608083FE
S11328F0808180628083ECE7F0E08081806C80835B
S1132900808198E090937B00807E896080837894B6
S11329100F2EFCE8CF2EFEE0DF2EF02D0F2EF4E17B
S11329208F2E912CA12CB12CF02D0F2EF7E06F2EB1
S1132930F4E17F2EF02D55245394412C8CB1952D28
S1132940282F207184FD942D8091C90C981781F053
S11329508091C80C8F5F8093C80C843058F090939A
S1132960C90C211102C05092D30E4092C80C02C06F
S11329704092C80C8091D30E882319F04092D30E54
S113298019DFB4D88091990E811123C080E090E0C2
S11329900E94E00287E695E40E94E7028FE00E942D
S11329A0920C852D0E948E0C6BE074E1852D0E94A3
S11329B0EE02D60116968D929D92AD92BC92199715
S11329C01A961C921A971C967C926E921B975092A0
S11329D0990E6DE68AE39DE03CDF8093A70D882382
S11329E009F4ACCFCAE3DDE000E010E07E018881A9
S11329F00E9472028091A80D893609F4DBDEE09111
S1132A00A80DE93650F481E08E0F8093A80DF0E014
S1132A10E755F24FD7018C9180830F5F1F4F2196AA
S1132A208091A70D90E00817190700F3C601E5D8B7
S1132A30C6013AD983CF1F920F920FB60F92112479
S1132A400BB60F928F939F93EF93FF93F89490910B
S1132A5079008091CC0CE82FF0E0E353F34F90839E
S1132A608C3619F41092CC0C03C08F5F8093CC0C7D
S1132A707894FF91EF919F918F910F900BBE0F90DF
S1132A800FBE0F901F901895DB018F939F9341D039
S1132A90BF91AF91A29F800D911DA39F900DB29FF6
S1132AA0900D11240895AA1BBB1B51E107C0AA1F56
S1132AB0BB1FA617B70710F0A61BB70B881F991FDB
S1132AC05A95A9F780959095BC01CD010895A1E28E
S1132AD01A2EAA1BBB1BFD010DC0AA1FBB1FEE1F94
S1132AE0FF1FA217B307E407F50720F0A21BB30BDF
S1132AF0E40BF50B661F771F881F991F1A9469F75B
S1132B0060957095809590959B01AC01BD01CF01B6
S1132B10089509D0A59F900DB49F900DA49F800D9A
S1132B20911D11240895A29FB001B39FC001A39FDA
S1132B30700D811D1124911DB29F700D811D1124F2
S1132B40911D08958F929F92AF92BF92CF92DF9280
S1132B50EF92FF92CF93DF93EC01688179818A81B0
S1132B609B81611571058105910521F464E279ED7C
S1132B708BE597E02DE133EF41E050E041D049018E
S1132B805A019B01AC01A7EAB1E4C3DF6B017C01EC
S1132B90ACEEB4EFA501940151D0DC01CB018C0D56
S1132BA09D1DAE1DBF1DB7FF03C00197A109B0480D
S1132BB088839983AA83BB839F77DF91CF91FF900A
S1132BC0EF90DF90CF90BF90AF909F908F9008953B
S1132BD0B9CF80E092E0B6CFA0E0B0E080930002ED
S1132BE090930102A0930202B09303020895FB01A3
S1132BF0DC0102C001900D9241505040D8F7089575
S1132C00052E97FB16F400940FD057FD05D05FDF17
S1132C1007FC02D046F408C05095409530952195A4
S1132C203F4F4F4F5F4F08959095809570956195F4
S1132C307F4F8F4F9F4F0895B7FF6BCF6ADF821B83
S10B2C40930B0895F894FFCFF3
S1092C480100000002007F
S9030000FC
