S0140000547279696E674C574D6573682E7372656363
S113000099C00000B8C00000B6C00000B4C0000031
S1130010B2C00000B0C00000AEC00000ACC0000020
S1130020AAC00000A8C00000A6C00000A4C0000030
S1130030A2C00000A0C000009EC000009CC0000040
S11300409AC00000C0C20000EBC2000016C300004A
S11300508DC2000090C000008EC000008CC0000063
S11300608AC0000088C0000086C0000084C0000070
S113007082C000000C94EB177EC000007CC000001E
S113008056C3000081C30000ACC3000023C30000BA
S113009025C2000070C000006EC000006CC00000EB
S11300A06AC0000068C00000F6C3000021C400005C
S11300B04CC40000C3C300005EC00000A0C4000024
S11300C0CBC40000F6C400006DC4000054C000009E
S11300D052C0000050C000004EC000004CC00000E0
S11300E04AC0000048C0000046C0000044C00000F0
S11300F042C0000040C000003EC000003CC0000000
S11301003AC0000038C0000036C0000034C000000F
S113011032C0000030C000002EC000002CC000001F
S11301202AC0000028C0000026C0000024C000002F
S113013022C0000011241FBECFEFD1E8DEBFCDBF27
S113014000E00CBF12E0A0E0B2E0E8EEF1E300E072
S11301500BBF02C007900D92A430B107D9F72EE06F
S1130160A4E0B2E001C01D92A63FB207E1F70E94ED
S11301703A170C94F21844CFE1D5209108022223B7
S1130180D9F04091F50E30E020910802642F732FCE
S11301900E942318FB018FEF9FEF642F732F0E949F
S11301A0231830E0629FC001639F900D729F900DF1
S11301B011248E0F9F1F08956091F50E70E00E9428
S11301C02318CB010895BFD5E2D5109204021092F2
S11301D00502109206021092070210920A0210926F
S11301E00902E2C5BED5109208020895ECDFFADFD9
S11301F0BFC50F931F93CF93DF93EC019FD58C0161
S1130200BE0180E090E02091F50E30E040E050E047
S11302100E941418DC01CB01A80160E070E0480FD3
S1130220591F6A1F7B1F4093040250930502609379
S113023006027093070240910402509105026091F6
S1130240060270910702AB016627772740930402E8
S113025050930502609306027093070240910402D2
S113026050910502609106027091070241155105F3
S11302706105710589F04091040250910502609175
S11302800602709107020196080F191F10930A02C3
S11302900093090258D507C0080F191F10930A02CA
S11302A00093090257D58091090290910A0284367D
S11302B0910530F48C599F4F90930A028093090260
S11302C08091090290910A0257D5DF91CF911F9135
S11302D00F9108951092080269D58093F50E089540
S11302E08091040290910502A0910602B091070248
S11302F00097A105B105C1F0809104029091050217
S1130300A0910602B09107020197A109B109809357
S1130310040290930502A0930602B093070200978B
S1130320A105B10509F416D5809108028F5F809369
S113033008029091F50E891748F010920802E09196
S11303400B02F0910C02309709F019950895FBD433
S1130350E0910D02F0910E02309709F0199508957D
S113036090930C0280930B02089590930E02809355
S11303700D020895CF93DF931F92CDB7DEB78FEFB1
S1130380809364008093650080916100833069F0FC
S11303908FB78983F89489815F9350E85093610003
S11303A053E0509361005F918FBF0F90DF91CF9125
S11303B00895CF93DF931F92CDB7DEB79FB799838C
S11303C0F8949981823040F4E82FF0E0EC59FF4F23
S11303D060958081682360839FBF0F90DF91CF91E8
S11303E00895CF93DF931F92CDB7DEB79FB799835C
S11303F0F8949981823038F4E82FF0E0EC59FF4FFB
S11304008081682B60839FBF0F90DF91CF91089507
S1130410EF92FF920F931F93CF93DF937C018B0195
S1130420EA01209739F0F80161918F01C70124D0C6
S11304302197C9F780E0DF91CF911F910F91FF9031
S1130440EF900895EF92FF920F931F93CF93DF9352
S11304507C018B01EA01209739F0C70114D0F8011F
S113046081938F012197C9F780E0DF91CF911F918C
S11304700F91FF90EF900895FC01908195FFFDCFBF
S1130480668380E00895FC0190819923ECF78681CE
S11304900895FF920F931F93CF93DF938C01F62E51
S11304A0C62FD0E0AE01B80188EC90E0B1DF811135
S11304B0F9CF8F2DDF91CF911F910F91FF90089568
S11304C0CF93DF931F92CDB7DEB7898361E0CE016E
S11304D00196DFDF0F90DF91CF9108951F920F9265
S11304E00FB60F9211240BB60F922F933F934F9395
S11304F05F936F937F938F939F93AF93BF93EF9388
S1130500FF93CF93DF931F92CDB7DEB741E050E066
S1130510BE016F5F7F4F88EC90E094DFF894809188
S11305200F02E82FF0E0E05FFD4F998190838B3953
S113053019F410920F0203C08F5F80930F02789416
S11305400F90DF91CF91FF91EF91BF91AF919F9168
S11305508F917F916F915F914F913F912F910F9068
S11305600BBE0F900FBE0F901F9018951F920F9205
S11305700FB60F9211240BB60F922F933F934F9304
S11305805F936F937F938F939F93AF93BF93EF93F7
S1130590FF93E091CA02F091CB02309709F01995CC
S11305A0FF91EF91BF91AF919F918F917F916F9147
S11305B05F914F913F912F910F900BBE0F900FBE03
S11305C00F901F9018951F920F920FB60F9211243F
S11305D00BB60F922F933F934F935F936F937F9339
S11305E08F939F93AF93BF93EF93FF93E091C802D0
S11305F0F091C902309709F01995FF91EF91BF91DD
S1130600AF919F918F917F916F915F914F913F91A6
S11306102F910F900BBE0F900FBE0F901F90189547
S11306201F920F920FB60F9211240BB60F922F93B5
S11306303F934F935F936F937F938F939F93AF9366
S1130640BF93EF93FF93E091C602F091C7023097F6
S113065009F01995FF91EF91BF91AF919F918F91FF
S11306607F916F915F914F913F912F910F900BBEAE
S11306700F900FBE0F901F9018951F920F920FB6F8
S11306800F9211240BB60F922F933F934F935F93C6
S11306906F937F938F939F93AF93BF93EF93FF9346
S11306A0E091C402F091C502309709F01995FF91C9
S11306B0EF91BF91AF919F918F917F916F915F91D6
S11306C04F913F912F910F900BBE0F900FBE0F9043
S11306D01F9018951F920F920FB60F9211240BB60C
S11306E00F922F933F934F935F936F937F938F93C7
S11306F09F93AF93BF93EF93FF93E091C202F09166
S1130700C302309709F01995FF91EF91BF91AF9112
S11307109F918F917F916F915F914F913F912F9115
S11307200F900BBE0F900FBE0F901F9018951F9245
S11307300F920FB60F9211240BB60F922F933F9383
S11307404F935F936F937F938F939F93AF93BF93D5
S1130750EF93FF93E091C002F091C102309709F04A
S11307601995FF91EF91BF91AF919F918F917F91D7
S11307706F915F914F913F912F910F900BBE0F900E
S11307800FBE0F901F9018951F920F920FB60F92E5
S113079011240BB60F922F933F934F935F936F9354
S11307A07F938F939F93AF93BF93EF93FF93E091C6
S11307B0BE02F091BF02309709F01995FF91EF91B5
S11307C0BF91AF919F918F917F916F915F914F9165
S11307D03F912F910F900BBE0F900FBE0F901F9063
S11307E018951F920F920FB60F9211240BB60F9209
S11307F02F933F934F935F936F937F938F939F9325
S1130800AF93BF93EF93FF93E091BC02F091BD02CD
S1130810309709F01995FF91EF91BF91AF919F9196
S11308208F917F916F915F914F913F912F910F9095
S11308300BBE0F900FBE0F901F9018951F920F9232
S11308400FB60F9211240BB60F922F933F934F9331
S11308505F936F937F938F939F93AF93BF93EF9324
S1130860FF93E091BA02F091BB02309709F0199519
S1130870FF91EF91BF91AF919F918F917F916F9174
S11308805F914F913F912F910F900BBE0F900FBE30
S11308900F901F9018951F920F920FB60F9211246C
S11308A00BB60F922F933F934F935F936F937F9366
S11308B08F939F93AF93BF93EF93FF93E091B8020D
S11308C0F091B902309709F01995FF91EF91BF911A
S11308D0AF919F918F917F916F915F914F913F91D4
S11308E02F910F900BBE0F900FBE0F901F90189575
S11308F01F920F920FB60F9211240BB60F922F93E3
S11309003F934F935F936F937F938F939F93AF9393
S1130910BF93EF93FF93E091B602F091B702309743
S113092009F01995FF91EF91BF91AF919F918F912C
S11309307F916F915F914F913F912F910F900BBEDB
S11309400F900FBE0F901F9018951F920F920FB625
S11309500F9211240BB60F922F933F934F935F93F3
S11309606F937F938F939F93AF93BF93EF93FF9373
S1130970E091B402F091B502309709F01995FF9116
S1130980EF91BF91AF919F918F917F916F915F9103
S11309904F913F912F910F900BBE0F900FBE0F9070
S11309A01F9018951F920F920FB60F9211240BB639
S11309B00F922F933F934F935F936F937F938F93F4
S11309C09F93AF93BF93EF93FF93E091B202F091A3
S11309D0B302309709F01995FF91EF91BF91AF9150
S11309E09F918F917F916F915F914F913F912F9143
S11309F00F900BBE0F900FBE0F901F9018951F9273
S1130A000F920FB60F9211240BB60F922F933F93B0
S1130A104F935F936F937F938F939F93AF93BF9302
S1130A20EF93FF93E091B002F091B102309709F097
S1130A301995FF91EF91BF91AF919F918F917F9104
S1130A406F915F914F913F912F910F900BBE0F903B
S1130A500FBE0F901F9018951F920F920FB60F9212
S1130A6011240BB60F922F933F934F935F936F9381
S1130A707F938F939F93AF93BF93EF93FF93E091F3
S1130A80AE02F091AF02309709F01995FF91EF9102
S1130A90BF91AF919F918F917F916F915F914F9192
S1130AA03F912F910F900BBE0F900FBE0F901F9090
S1130AB018951F920F920FB60F9211240BB60F9236
S1130AC02F933F934F935F936F937F938F939F9352
S1130AD0AF93BF93EF93FF93E091AC02F091AD021B
S1130AE0309709F01995FF91EF91BF91AF919F91C4
S1130AF08F917F916F915F914F913F912F910F90C3
S1130B000BBE0F900FBE0F901F9018951F93CF939D
S1130B10DF931F92CDB7DEB72FB72983F8941981DD
S1130B20009709F457C08837910539F461E080E0F3
S1130B3040DC60E180E03DDC4DC0803C910521F467
S1130B4062E080E036DC46C08C34910521F464E038
S1130B5080E02FDC3FC08038910521F468E080E01C
S1130B6028DC38C08434910521F460E280E021DC83
S1130B7031C0803B910521F460E480E01ADC2AC096
S1130B80883B910521F460E880E013DC23C0883CB5
S1130B90910521F461E081E00CDC1CC080399105F1
S1130BA021F468E081E005DC15C0803A910521F468
S1130BB060E181E0FEDB0EC0803221E0920721F487
S1130BC060E281E0F6DB06C08334914019F460E40E
S1130BD081E0EFDB1FBF0F90DF91CF911F9108954C
S1130BE01F93CF93DF931F92CDB7DEB72FB729831F
S1130BF0F8941981009709F457C08837910539F49E
S1130C0061E080E0EEDB60E180E0EBDB4DC0803C46
S1130C10910521F462E080E0E4DB46C08C34910568
S1130C2021F464E080E0DDDB3FC08038910521F4ED
S1130C3068E080E0D6DB38C08434910521F460E2BA
S1130C4080E0CFDB31C0803B910521F460E480E09B
S1130C50C8DB2AC0883B910521F460E880E0C1DB51
S1130C6023C0883C910521F461E081E0BADB1CC01B
S1130C708039910521F468E081E0B3DB15C0803A46
S1130C80910521F460E181E0ACDB0EC0803221E00B
S1130C90920721F460E281E0A4DB06C08334914032
S1130CA019F460E481E09DDB1FBF0F90DF91CF91C9
S1130CB01F9108958038910529F47093CB026093B5
S1130CC0CA0208958039910529F47093C302609390
S1130CD0C2020895803A910529F47093BB0260938F
S1130CE0BA0208958032914021F47093B302609364
S1130CF0B20208958038910529F47093C902609373
S1130D00C80208958039910529F47093C102609353
S1130D10C0020895803A910529F47093B902609352
S1130D20B80208958032914021F47093B102609327
S1130D30B0020895D5CA08950ACB0895809184001D
S1130D40909185000895EFE6F0E080818D7F8083A7
S1130D50B19A0895B19AEFE6F0E0808182608083D1
S1130D600895EFE6F0E0808181608083B09A089571
S1130D7080E890E035CF0895E9E8F0E02081922BF7
S1130D809083E8E8F0E09081892B80830895CF93E5
S1130D90DF931F92CDB7DEB78FB78983F89489812B
S1130DA00F90DF91CF9108958FBF0895CF93DF9374
S1130DB080E890E0ABDE6AE976E080E890E07ADFF4
S1130DC0CFE6D0E08881816088836CE976E080E8B2
S1130DD090E090DF88818D7F8883E1E8F0E0808176
S1130DE08160808382E0DF91CF9108959FD1B9D251
S1130DF0AAC308952CD3D7D309C208954F925F9202
S1130E006F927F928F929F92AF92BF92CF92DF9216
S1130E10EF92FF920F931F93CF93DF93CDB7DEB77B
S1130E202E970FB6F894DEBF0FBECDBF8C019B0189
S1130E30DC018D909D90AD90BC9013971496CD904D
S1130E40DD90ED90FC90179740E050E0BA01FA0174
S1130E50E370FF27EE0FFF1FEE0FFF1FE20FF31FDC
S1130E604080518062807380D301C201840F951F3A
S1130E70A61FB71F8B879C87AD87BE8726013701C6
S1130E80440C551C661C771C440C551C661C771CB2
S1130E90D301C201880F991FAA1FBB1F880F991F76
S1130EA0AA1FBB1F26013701689414F8769467942F
S1130EB0579447941694D1F7482659266A267B26D8
S1130EC0D301C2018C0D9D1DAE1DBF1D4B845C84DE
S1130ED06D847E84482659266A267B26840C951CBC
S1130EE0A61CB71C47545648684C7146DB01CA011E
S1130EF0072E7BE0B695A795979587957A95D1F7B8
S1130F00702DFC01E370FF27EE0FFF1FEE0FFF1F94
S1130F10E20FF31F4080518062807380D301C201CD
S1130F20840F951FA61FB71F8B879C87AD87BE872D
S1130F3024013501440C551C661C771C440C551CBB
S1130F40661C771CD301C201880F991FAA1FBB1FFF
S1130F50880F991FAA1FBB1F24013501689414F838
S1130F6076946794579447941694D1F74826592653
S1130F706A267B26D301C201880D991DAA1DBB1DBB
S1130F804B845C846D847E84482659266A267B269D
S1130F90C40CD51CE61CF71C403287E358078FEEBF
S1130FA0680786EC780709F052CFD8018D929D929C
S1130FB0AD92BC921397F801C482D582E682F7827F
S1130FC02E960FB6F894DEBF0FBECDBFDF91CF9142
S1130FD01F910F91FF90EF90DF90CF90BF90AF9053
S1130FE09F908F907F906F905F904F9008950F9394
S1130FF01F93CF93DF93EC018B0100DF4885598564
S11310006A857B8588819981AA81BB8184279527FC
S1131010A627B72788879987AA87BB874C855D85CC
S11310206E857F858C819D81AE81BF8184279527C4
S1131030A627B7278C879D87AE87BF87B801CE01C7
S11310400896DCDE0E945913DF91CF911F910F9116
S113105008950F931F93CF93DF93EC018091CC02FB
S11310609091CD02009709F445C04E815F81688557
S11310707985FC0102811381248135814017510750
S11310806207730760F0DC0117C0028113812481B9
S11310903581401751076207730768F403C0FC01E8
S11310A0A0E0B0E0041B150B260B370B028313835F
S11310B0248335830AC0DF01401B510B620B730B81
S11310C0ED91FC911197309701F74A835B836C8310
S11310D07D83109741F08D919C911197998388831A
S11310E0CD93DC9315C099838883D093CD02C093AC
S11310F0CC020EC0198218828E819F81A885B98581
S11311008A839B83AC83BD83D093CD02C093CC02EE
S1131110DF91CF911F910F9108958091BB0E8F5F46
S11311208093BB0E80E197E264C808951092BB0ED1
S11311308DE898E01AD9CED880E197E25AD8109277
S1131140CD021092CC020895CF93DF93A091CC02EC
S1131150B091CD02109791F1A817B90751F50AC0C3
S11311608E179F0729F5109731F0208131812D9337
S11311703C9307C0FC01208131813093CD02209340
S1131180CC020190F081E02D3097C1F0428153816F
S113119064817581EC018A819B81AC81BD81840F5E
S11311A0951FA61FB71F82839383A483B58306C0AC
S11311B0DF01ED91FC911197309791F6DF91CF917A
S11311C00895E091CC02F091CD02309771F0E817C8
S11311D0F90721F40CC08E179F0759F00190F08194
S11311E0E02D3097C1F780E0089580E0089581E014
S11311F0089581E00895CF93DF93EC01E2DF81113C
S113120002C0CE0126DFDF91CF910895CF92DF9205
S1131210EF92FF920F931F93CF93DF931F92CDB75B
S1131220DEB78091BB0E882309F453C08FB789833E
S1131230F8948981C090BB0E1092BB0E8FBFD12C45
S1131240E12CF12CCC0CDD1CEE1CFF1CD701C601DB
S1131250880F991FAA1FBB1F880F991FAA1FBB1FA6
S1131260C80ED91EEA1EFB1E1BC0C81AD90AEA0AF8
S1131270FB0AD8018D919C9111979093CD02809394
S1131280CC021A968C91813011F4C801E2DED801A7
S11312901B96ED91FC911C97309711F0C80119959C
S11312A00091CC021091CD020115110591F0F801C5
S11312B082819381A481B581C816D906EA06FB060A
S11312C0A0F68C199D09AE09BF0982839383A48378
S11312D0B5830F90DF91CF911F910F91FF90EF9005
S11312E0DF90CF9008958091CE02982F9F70E4E50F
S11312F0F1E08081807F892B80838091CE028823D6
S113130029F08091CF028093530108958091CF02F8
S1131310982F9F71E8E4F1E08081807E892B80839F
S11313200895A2E4B1E023E0E1E4F1E02C9390819C
S11313309F719830D9F7A2E4B1E0E1E4F1E08C9335
S113134090819F718913FBCF089588E0EADF8FEFC6
S113135080934F018091D002882311F086E1E1CF80
S1131360089560E481E025D8E9E3F1E080818160BB
S113137080831092D0021092CE0281E080935103B8
S113138088E0CFDF8BEE80935601ECE4F1E08081BE
S11313908068808380818360808308958093D002F5
S11313A0D4CF08958093CF029ECF0895CF93DF9337
S11313B01F921F92CDB7DEB79A838983809362010F
S11313C08A81809363010F900F90DF91CF910895EC
S11313D0CF93DF931F921F92CDB7DEB79A83898391
S11313E0809360018A818093610199818A81890F48
S11313F080936D010F900F90DF91CF910895CF935B
S1131400DF93EC0189E18DDF8FEF80934F018881B9
S11314108E5F809380018881882381F020E0822F71
S113142090E0FC01EF57FE4FDE01A80FB91F1196A3
S11314308C9180832F5F8881281788F383E08093C1
S1131440510382E080934201DF91CF9108951F936D
S1131450CF93DF9300D01F921F92CDB7DEB7809158
S11314605103823009F466C080914F0183FF3EC06E
S1131470A0917B016A2F70E0AB014F5F5F4F80E06A
S113148090E020E0FC01E058FE4F3081FC01EF5277
S1131490FD4F30832F5F822F90E08417950794F3DC
S11314A081ED92E09A838983A250AB83FB01EF52D2
S11314B0FD4F80818C83809147018A558D83CE01B5
S11314C001965BD6E1E4F1E080818F718631E1F72A
S11314D0EFE4F1E0808188608083ECE4F1E08081D6
S11314E08F77808380818068808324C080914F01BE
S11314F086FF20C0809141018F718931B1F4109130
S1131500420112951695177049F0133021F01530E9
S113151021F013E003C011E001C012E016DF81E006
S113152080935103812F0E94D915EFE4F1E080816B
S1131530806480830F900F900F900F900F90DF9135
S1131540CF911F910895ECEBFEE014821582118275
S1131550108217AA16AAE2ECFEE082EE9EE0119237
S11315601192E817F907D9F70E94ED14E9D51AD1B9
S113157044D09DD10E94431369C408959093BD0E35
S11315808093BC0E25CF08959093BF0E8093BE0E1A
S11315900DCF0895E82FF0E0EE0FFF1FEE53F14F4B
S11315A07183608308951DD60E94FC154FD00C945E
S11315B09A130895E0915203F09153033097D9F0B0
S11315C0228133818217930789F405C022813381F4
S11315D02817390759F4DC01AD57BF4F2C912787E1
S11315E013962C91208B22E0248305C00190F08176
S11315F0E02D309759F718C10895109253031092B3
S113160052030895FC011482178613821282ACEBF4
S1131610BEE0D6968D919C91D7970196D7969C93D0
S11316208E93D6978091520390915303009739F487
S113163011821082F0935303E0935203089591832F
S11316408083F0935303E093520308950F931F9301
S1131650CF93DF93E0915203F0915303309709F451
S11316609CC0EF018C81882321F0823009F46FC083
S11316708EC0A3D08C01009721F482E08C838F87E5
S11316808CC09B838A8381E08C83F801E957FF4FE8
S11316908AED9AE0918380833197898582FB88273C
S11316A080F980839985D8011B968C911B9790FBB8
S11316B080F91B968C931B97998593FB992790F936
S11316C090FB82F91B968C931B9799859695917044
S11316D090FB81F91B968C931B97ECEBFEE08481C5
S11316E08F5F84831C968C931C97808191811E96B6
S11316F09C938E931D978D819E8150969C938E937F
S11317001F978885982F9F7051968C915197807F51
S1131710892B51968C9351979F819295907F8F70CE
S1131720892B51968C93F801EF57FF4F4C8550E06D
S11317306A857B85808191810E94C718F801918117
S11317408C85890F8183C8010E94101526C0EC176F
S1131750FD0741F480819181909353038093520358
S11317600AC0FC01808191818C179D07D1F7888183
S1131770998191838083ECEBFEE086A997A9019778
S113178097AB86ABED85FE85CE01199506C0099011
S1131790D881C02D209709F065CFDF91CF911F919B
S11317A00F910895E4E5F3E08EEA98E01082E7579C
S11317B0FF4FE817F907D1F7089580915403882360
S11317C049F0EDEDF3E081E090E0AC0120812111DE
S11317D022C002C040E050E069E8649F9001659F28
S11317E0300D1124C9018C5A9C4FFC0111926A9549
S11317F0E9F740E1FC014183EF57FF4F2A593C4F81
S113180031832083ECEBFEE026A937A92F5F3F4FFD
S113181037AB26AB08950196E757FF4F8A30910501
S1131820A1F680E090E00895FC011082ECEBFEE06C
S113183086A997A9019797AB86AB0895009741F0C5
S1131840FC01E757FF4F88E0EE3AF80718F012C0A2
S1131850E4E5F3E08081882321F00FC080818111C9
S11318600FC0E757FF4F88E0EE3AF807B8F380E07F
S113187090E0089580E090E008958E2F9F2F0895C2
S11318808E2F9F2F0895FC01DC01AD57BF4F1C9292
S1131890ACEBBEE014969C9114979F5F14969C93B6
S11318A0149794878D919C91968785870895AFEAC4
S11318B0B8E080E090E04FEF5FEF11965C934E93B9
S11318C0FC01EE0FFF1FEE0FFF1FEE0FFF1FE81BC3
S11318D0F90BE255F74F20812E7F208314961C923A
S11318E01497019617968436910539F708950F9346
S11318F01F93CF93DF93EFEAF8E020E030E0062F68
S113190010E04081518148175907B1F4D901AA0F59
S1131910BB1FAA0FBB1FAA0FBB1FA21BB30BA25551
S1131920B74F4C9146954170C42F40E0D42FC01757
S1131930D10711F4CD0108C02F5F3F4F37962436ED
S11319403105F9F680E090E0DF91CF911F910F917E
S11319500895A0E0B0E0EEEAF8E0808180FD0DC0DB
S11319608581882381F0109739F015969C911597FD
S1131970891718F4DF0101C0DF0137968BE0EA36DE
S1131980F80759F7FD0180818D708063808380E8BA
S11319908583CF010895FC01808180FD05C08FEF10
S11319A09FEF9283818315820895A1DF009721F030
S11319B0FC018381948108958FEF9FEF0895EF9246
S11319C0FF920F931F93CF93DF938C01C62F7A015D
S11319D0D22F8DDFFC01892B11F4BBDFFC011283B4
S11319E00183F482E3828081C0FB81F98F7080637C
S11319F0808380E88583D683DF91CF911F910F91F7
S1131A00FF90EF90089573DF009709F0C4CF089515
S1131A100895CF93DF93FC01878590898F3F2FEF43
S1131A209207D9F1EF01638563FB662760F95FDFF5
S1131A30DC01892B91F18C9180FD2FC0FE01ED57C3
S1131A40FF4F8081811119C08C918F7080638C93BA
S1131A5015968C9115978F5F15968C938F3FE9F4AB
S1131A60E3EBF8E02FE63BE0808186958F5F80838F
S1131A703796E217F307C1F710C09C91892F82951E
S1131A808F70815F8F70282F2295207F9F70922BFB
S1131A909C93811102C0CD017EDFDF91CF91089527
S1131AA0CF93DF93FC01878590898F3F2FEF9207B7
S1131AB029F48FEF9FEF9087878312C0238522FF3D
S1131AC003C0908787830CC0EF01638563FB66279F
S1131AD060F96BDF98878F83019611F4CE01D2D120
S1131AE0DF91CF910895AF92BF92CF92DF92EF92A0
S1131AF0FF921F93CF93DF93EC011B8513FB1127F8
S1131B0010F9CF84D888612FC6014FDF019659F0B0
S1131B10FE01E957FF4F11821082319782E08083E2
S1131B20CE017ED722C0AD84BE8447DE7C010097FF
S1131B30D1F0A9DEF70181818A5F8183E957FF4FE4
S1131B4011821082F701B08AA786EF57FF4F0190E8
S1131B50F081E02D81E08083B282A182D482C382AD
S1131B601583C7015DD7CE015FDEDF91CF911F9151
S1131B70FF90EF90DF90CF90BF90AF900895FC015D
S1131B802185263049F40780F085E02D6581838125
S1131B90948139DF81E0089580E008950F931F93C5
S1131BA0CF93DF93E7E7FBE020E030E08901A185F4
S1131BB0B285AB2BB1F0A081B181A817B90789F424
S1131BC0A281B381A617B70761F45481541309C0E5
S1131BD02BE0209FC001219F900D11248958944F20
S1131BE008C02F5F3F4F3B9625303105F9F680E062
S1131BF090E0DF91CF911F910F910895CF93DF93E0
S1131C008091800B9091810B892B51F0EBE8FBE0E4
S1131C1081E090E0AC0120813181232BA9F402C042
S1131C2040E050E08BE0849FE001859FD00D1124BB
S1131C30C958D44F1F82188688EE93E09A87898703
S1131C408AE69BE0D8DA07C001963B968530910579
S1131C5009F7C0E0D0E0CE01DF91CF9108953F9223
S1131C604F925F926F927F928F929F92AF92BF92A8
S1131C70CF92DF92EF92FF920F931F93CF93DF9354
S1131C805C01C7E7DBE00F2EFEEAEF2EFBE0FF2E40
S1131C90F02D412C0F2EFCEBCF2EFEE0DF2EF02D8D
S1131CA0512C612C772473948E0189859A8585360D
S1131CB0910530F0845691099A878987472C30C062
S1131CC01A86198628813981F60180819181281725
S1131CD0390731F53884852C962C1DC0F401808198
S1131CE08034C9F4F80122813381F4018785908915
S1131CF02817390781F4838583FB882780F9F80145
S1131D009481981308C0332019F0C40189D603C004
S1131D1061E1C40143D7C40191DD4C01892BF1F683
S1131D202B96CE15DF0509F0BFCF442011F0C50175
S1131D3062DADF91CF911F910F91FF90EF90DF90C6
S1131D40CF90BF90AF909F908F907F906F905F9057
S1131D504F903F900895FF920F931F93CF93DF937B
S1131D608C01F62E2ADDEC01009751F18CDD89817E
S1131D70895F8983FE01E957FF4F118210828B85A9
S1131D8084608B878FEF9FEF988B8F8736970190B6
S1131D90F081E02D82E08083D8018D919C91119790
S1131DA09283818312968D919C911397948383835C
S1131DB014968C918583F682CE0132D681E001C0DF
S1131DC080E0DF91CF911F910F91FF900895EF92E2
S1131DD0FF920F931F93CF93DF938C01E62EF42E83
S1131DE0ECDCEC01009759F14EDD8981885F898331
S1131DF0FE01E957FF4F11821082319784E08083FE
S1131E00D80115968D919C911697988B8F8735974D
S1131E100190F081E02D83E080838D919C91119756
S1131E209283818312968D919C91139794838383DB
S1131E3014968C918583E682F782CE01F1D5DF91E9
S1131E40CF911F910F91FF90EF900895E7E7FBE08A
S1131E5012861186158A148A10A2178E13A612A64A
S1131E6016AA15AAEAE6FBE084E690E0A0E0B0E05A
S1131E7086839783A087B18712868FE29EE094873A
S1131E8083870895CF93DF93EC014B8543FB44276D
S1131E9040F96F8578898091BC0E9091BD0E7EDEED
S1131EA0892B19F080E4888321C0A8DE0097D9F03B
S1131EB02091BC0E3091BD0EFC01318320832F850F
S1131EC03889338322832B8523FB222720F924831B
S1131ED02FEF3FEF368325836FEF3DDF882319F023
S1131EE080E4888303C061E1CE0158D6DF91CF91AD
S1131EF00895AF92BF92CF92DF92EF92FF920F9329
S1131F001F93CF93DF93DC0119962C9119972730F7
S1131F1009F062C01796CD91DC9118974D8141115B
S1131F2067C06B817C812091BC0E3091BD0EE9812C
S1131F30FA812E173F0709F451C06217730729F07D
S1131F4033230CF44DC0B12C02C0BB24B3948C01D8
S1131F50CE80DC011A968C91C89E600111246B819D
S1131F607C81CF011BDE7C01009729F0FC01878175
S1131F708D1528F037C042DE7C01892BA9F18981B7
S1131F809A81D70111969C938E938B819C81139691
S1131F909C938E9312978D8114968C931497F801C9
S1131FA08081918116969C938E9315971796DC9257
S1131FB0BB2069F0408151812D2D60E089819A8197
S1131FC0FEDC4FEF6D2DC70102DF81E01CC06D2DDB
S1131FD0C701C1DE81E017C080E015C081E013C0F5
S1131FE081E011C081E00FC081E00DC081E00BC031
S1131FF0E981FA812091BC0E3091BD0EE217F307FE
S113200009F09ECFF3CFDF91CF911F910F91FF90F5
S1132010EF90DF90CF90BF90AF900895CF92DF9272
S1132020EF92FF920F931F93CF93DF93FC012185CF
S1132030283009F042C08C01C781D0856B817C8136
S11320404D8189819A81AADD7C01892BC1F18E8120
S1132050F70190859817A8F5F801C2849F81F701CC
S1132060808749815A812091BC0E3091BD0E421760
S1132070530751F4F801408151812E816D818B8188
S11320809C819DDC81E01EC09C9D60011124F801AF
S1132090408151812D2D6D818B819C8190DCF701D4
S11320A045815681278160E089819A8188DC4D2DA4
S11320B06E81C7018CDE81E005C080E003C081E051
S11320C001C081E0DF91CF911F910F91FF90EF90BC
S11320D0DF90CF900895DC0119962C911997222353
S11320E0A9F01796ED91FC9118972081213041F0C9
S11320F028F0223039F0233039F00AC029C5089578
S11321003ECD0895F6CE089589CF089580E00895D0
S113211080E00895BC01E0ECFBE02AEB3CE040E009
S113212051E09081992319F091509083452F359671
S1132130E217F307B1F7442311F0CB015CC808950B
S1132140E0ECFBE08AEB9CE010823596E817F90797
S1132150D9F7EEEAFBE084E690E0A0E0B0E0868305
S11321609783A087B18712868AE890E19487838752
S11321706BE670E180E00ECA0895CF93DF93DC0133
S1132180ED91FC91119721812838F1F420812F7D64
S11321902134D1F412962C912031B0F0EC010DDBF6
S11321A0009791F020E2FC0120832A8121832B8176
S11321B0ED57FF4F20832C81319620834A8150E0D4
S11321C0688179810296E3D7DF91CF9108956623E0
S11321D021F022E2FC012083089524E2FC01208303
S11321E008952F923F924F925F926F927F928F92B7
S11321F09F92AF92BF92CF92DF92EF92FF920F9392
S11322001F93CF93DF93CDB7DEB72C970FB6F89417
S1132210DEBF0FBECDBF00E010E00F2EF4E2BF2EF4
S1132220F02D0F2EFCEBEF2EFEE0FF2EF02D4424BC
S113223043946894772474F86894662463F86894E3
S1132240552452F8212C312C0F2EF5E1AF2EF02D10
S1132250CC24C394D12CF0C1D8018C91823209F4DE
S11322601BC130F4803259F0813209F411C1E4C148
S1132270833209F4DCC1843209F4DCC1DDC1F80124
S1132280B082838583FDD8C1258136812F3F3F4F9E
S1132290C9F4D8011F962D913C915097F7014081C4
S11322A051814217530721F02F3F3F4F09F0C4C11A
S11322B081FF04C0E1E2D801EC93BEC1E2E2D8019F
S11322C0EC93BAC1D8011F962D913C9150972F3FA2
S11322D03F4F11F480FDB0C1F70120813181D80155
S11322E01D968D919C911E972817390709F4A4C156
S11322F0C8018EDBECEBFBE080E090E0822C932CB9
S11323009C014481442309F474C0D8011D966D9145
S11323107C911E97408151816417750709F06AC04A
S11323201C968C911C97F901EE0FFF1FEE0FFF1FF7
S1132330E20FF31FE454F44F9281981B983008F095
S11323403EC0F901EE0FFF1FEE0FFF1FE20FF31F58
S1132350E454F44F8381482F50E0092E02C0559570
S113236047950A94E2F740FF17C0F70120813181B5
S113237017968D919C9118972817390709F05CC11D
S11323801B966C911B9763FB662760F91F968D91D2
S11323909C91509738DB50C1F901EE0FFF1FEE0FEF
S11323A0FF1F2E0F3F1FF901E454F44F960102C0A2
S11323B0220F331F9A95E2F7822B838344C1F901DC
S11323C0EE0FFF1FEE0FFF1F2E0F3F1FF901E45406
S11323D0F44F82838381282F30E09195A90102C0B4
S11323E0440F551F9A95E2F7CA0181608383A48242
S11323F02AC14F01019635968233910509F080CFA9
S11324008114910409F418C1D8011D968D919C91F1
S11324101E97F401918380831C968C91828343825E
S1132420A4828EEA9BE00E94FB080DC1D7012D9186
S11324303C91F801878590892817390781F04385F5
S113244042FD0BC0C80140D3D7012D913C91F80146
S1132450878590892817390711F0019669F4D80106
S11324601B968C911B9781FF03C0E1E2EC93E4C0BF
S1132470E2E2D801EC93E0C0D80117968D919C91CB
S113248018978217930709F0D7C0E3E2EC93D4C0FE
S113249060E0C801FFD0D0C01092BB0BD8015196A8
S11324A08C91519782958F70E82FF0E0EE0FFF1F0B
S11324B0EE53F14F0190F081E02D309709F460C0A4
S11324C01D962D913C911E973A8329831F964D9119
S11324D05C9150975C834B8351969C9151979F706C
S11324E09D838E83AF57BF4F8D919C919987888729
S11324F0B8016E5F7F4F861B970BD80111969C9194
S11325001197981B9A87AD57BF4F8C918B87119663
S11325108C918C87D8011B969C91692F637092FDD6
S113252002C080E001C080E2862B93FD02C090E0EF
S113253001C090E4892B4F3F5F4F11F090E001C040
S1132540952D892BD80119964D915C911A972417D2
S1132550350711F090E001C0962D892B8F83D801A7
S113256015962D913C9116972F3F3F4F11F090E017
S113257001C0972D892B8F83CE010196199501C037
S113258080E0F801938590FF80E0D80117962D91A3
S11325903C9118972F3F3F4F69F4F70140815181D7
S11325A0D8011F962D913C9150974217530711F46F
S11325B093FF842DF801258136812F3F3F4FA1F1F0
S11325C0D7012D913C912F3F3F4F71F1882361F149
S11325D0F4D84C01009741F156D9F40181818D5F03
S11325E08183E957FF4F11821082D8011B968C9189
S11325F01B9786958170F401938580FB91F99387ED
S11326001D968D919C911E97908B8787EF57FF4F56
S11326100190F081E02D10828091BB0B82831C9687
S11326208C918183C401FCD1D801BC9205C0C8013E
S11326305ADA02C0C801F8D8C80100D98C01892B24
S113264009F00ACE07C0F80187819085019609F048
S1132650FBCEECCE2C960FB6F894DEBF0FBECDBFEA
S1132660DF91CF911F910F91FF90EF90DF90CF906A
S1132670BF90AF909F908F907F906F905F904F909E
S11326803F902F9008951092CB0C1092CA0C109288
S1132690C90C0895662321F020E3FC01208303C0C4
S11326A021E3FC0120838091CB0C8F5F8093CB0CC2
S11326B00895CF93DF93C091C90CD091CA0CFE0149
S11326C0EF57FF4FA081B1817091C70C872F90E025
S11326D05091C80C652F513108F060E16623D1F0A8
S11326E04091C60CE6EBFCE0A80FB91F2FEF260FB4
S11326F030E02954334F9C91808189278D93442362
S113270011F0808303C09081892780833196E2177A
S1132710F30789F7760F7093C70C561B5093C80CB8
S1132720552319F082E3888302C084E38883DF9110
S1132730CF9108950F931F93CF93DF938091CB0C88
S1132740882309F4E3C0E091C90CF091CA0C3097D6
S113275009F4D5C08081843309F055C08091C70C39
S1132760DF01AF57BF4FCD91DC91C80FD11DA6EB50
S1132770BCE00D911D912D913C91139714964D91B0
S11327805D916D917C91179704271527262737278C
S113279018964D915D916D917C911B970427152797
S11327A0262737271C964D915D916D917C911F973B
S11327B0D901C80184279527A627B7272091C60CDD
S11327C0222351F088839983AA83BB8381818C5F00
S11327D08183CF01EAD10DC061E0088119812A818A
S11327E03B81081719072A073B0709F060E0CF016E
S11327F0EEDC1092CA0C1092C90C8091CB0C815063
S11328008093CB0C83C0823309F080C083E3808340
S113281062EE7EE086EB9CE00E94F70777C0DC0165
S11328202C912053223008F06CC09093CA0C8093F2
S1132830C90CE6EBFCE01C964C911C9750E060E060
S113284070E040835183628373831F964D915C9142
S1132850509760E070E0BA015527442751962C91B7
S1132860519722952F70422B448355836683778337
S11328701D964D915C911E9760E070E0BA0155275A
S1132880442751962C9151972F70422B40875187A2
S11328906287738715964D915C91169760E070E09E
S11328A0BA01552744271B962C911B97422B44872A
S11328B05587668777876C91613331F411962C9133
S11328C01197245011962C93FC01EF57FF4F408130
S11328D051819C012E5F3F4F421B530BFC01218110
S11328E0241B2093C80C1092C70C21E0603309F01C
S11328F020E02093C60C22E3DC012C9307C080E087
S113290090E00E941E0C009709F089CFDF91CF91CF
S11329101F910F910895EF92FF920F931F93CF93FE
S11329207C0110E080E090E001E0C3E113C0FC0111
S11329302081213179F4EC57FF4F208131812150DE
S1132940310931832083232B21F4FC01C083102F10
S113295001C0102F0E941E0C009749F7112319F093
S1132960C7010E94FB08CF911F910F91FF90EF9038
S11329700895EF92FF920F931F93CF93DF937C01FF
S113298010E080E090E001E0D7E1C0E116C0FC0176
S11329902081263191F4EC57FF4F20813181215061
S11329A0310931832083232B39F4FC01D083ED5783
S11329B0FF4FC083102F01C0102F0E941E0C0097E0
S11329C031F7112319F0C7010E94FB08DF91CF9161
S11329D01F910F91FF90EF9008951092E70C1092C1
S11329E0E60CE9EDFCE082E390E0A0E0B0E0868351
S11329F09783A087B187128689EB94E194878387B4
S1132A00ECECFCE08AE090E0A0E0B0E08683978301
S1132A10A087B18712868BE894E194878387089511
S1132A20CF93DF93EC01FC01EA57FF4F808181FFD4
S1132A3003C092E1988308C09B8591FF03C090E195
S1132A40988302C092E19883FE01ED57FF4F1082F4
S1132A5080FF05C02FEF3FEF3E832D8306C02091FA
S1132A60BE0E3091BF0E3E832D83857019F4CE01C6
S1132A7017D804C08F85988998878F83ECEBFEE084
S1132A80808191819A87898785818F5F85838C83F3
S1132A908F819885019669F481E498E89B838A8301
S1132AA068D3CC57DF4F8770992701969983888321
S1132AB008C081E698E89B838A83CC57DF4F19824C
S1132AC01882DF91CF9108950F931F93CF93DF93D3
S1132AD08C010E94DD0BEC01892BA9F182E1888332
S1132AE0F80181818983FE01ED57FF4F108241D3A4
S1132AF0FE01EC57FF4F87709927019691838083DD
S1132B00339611821082F801418150E0B8016E5F62
S1132B107F4FCE0102963BD381E498E89B838A835E
S1132B208FEF9FEF98878F83F801858196819E832D
S1132B308D83ECEBFEE0808191819A878987858182
S1132B408F5F85838C83DF91CF911F910F910895BF
S1132B50CF93DF93FC0121852330E1F410C0FC0105
S1132B602081263189F43485298132130DC027E16F
S1132B7020832A81EA57FF4F208381E00CC0FC01A7
S1132B80C781D08580E090E00E941E0C009739F741
S1132B9080E001C080E0DF91CF91089527E1FC013E
S1132BA02083ED57FF4F6083089522E1FC012083C9
S1132BB00895E091E60CF091E70C813021F048F0A3
S1132BC0823019F004C080E205C081E203C081E0D4
S1132BD001C080E0DF01AD57BF4F8C9385E1808356
S1132BE01092E70C1092E60CECEBFEE086A997A994
S1132BF0019797AB86AB08959F92AF92BF92CF9205
S1132C00DF92EF92FF920F931F93CF93DF93C0E075
S1132C10D0E00F2EF4E1AF2EF02D0CEB1EE00F2EC2
S1132C20F7E1DF2EF02D0F2EF6E19F2EF02D0F2E63
S1132C30F5E1EF2EF12CF02D0F2EF3E1CF2EF02D38
S1132C400F2EF1E1BF2EF02D6AC088818331F9F097
S1132C5028F4803149F0823159F061C0853171F135
S1132C60873109F44BC05BC061E0CE0113DD57C06E
S1132C70FE01EC57FF4F80819181892B31F0B8829E
S1132C808CEC9CE00E94FB084AC0C88248C080913A
S1132C90E60C9091E70C892B09F041C0D093E70C26
S1132CA0C093E60CFE01A192CF010E94FF09F80136
S1132CB086A997A9019697AB86AB31C0FE01ED5763
S1132CC0FF4F8081811118C02D853E85F8018081D8
S1132CD091812817390771F48B8580FF0BC0988286
S1132CE0FE01EC57FF4FF182E08289ED9CE00E94E7
S1132CF0FB0815C0D88213C0D88211C0CE010E942F
S1132D00090DFE01E957FF4F0190F081E02D309746
S1132D1021F4CE010E94140C02C0CE011995CE01FB
S1132D200E941E0CEC01892B09F08FCFDF91CF910B
S1132D301F910F91FF90EF90DF90CF90BF90AF90D5
S1132D409F9008952C9A249A6C98749A08951092DE
S1132D509B0E08950F931F93CF93DC0119962C912A
S1132D60222389F08C01C0E0D8011796ED91FC91E3
S1132D701897EC0FF11D80810E946002CF5FF8016B
S1132D808185C81788F380E183B981E0CF911F91D1
S1132D900F910895CF93DF9380919B0E811126C0EC
S1132DA0C091C80DCC2311F14C2F50E069EC7DE0AB
S1132DB082E39EE0ECD1ECE9FEE081E090E09683D2
S1132DC08583D1E0D783D08782E0818782E39EE048
S1132DD093878287C48787EA96E196878587CF01A0
S1132DE00E94020B1092C80DD0939B0EDF91CF91DD
S1132DF00895D0CF0895DC018091EC0C9091EB0CF8
S1132E00891728F0282F291B2093EA0C05C02DE6EA
S1132E10280F291B2093EA0C9091EA0C992331F195
S1132E209D3640F08093EB0C8DE68093EA0C6D3672
S1132E3038F403C0961708F4692F611102C018C052
S1132E406DE69091EB0C262FE92FF0E0E351F34F60
S1132E5030813D9321509C3611F09F5F01C090E07A
S1132E602111F2CF9093EB0C862F089580E0089502
S1132E7080E008950E94BA0165DF0E94F606EAE741
S1132E80F0E087E88083808188608083ECE7F0E06D
S1132E908081806C8083808198E090937B00807E29
S1132EA08960808378940F2EFAE7AF2EB12CF02D31
S1132EB00F2EFDEACF2EFEE0DF2EF02D0F2EF4E1D3
S1132EC04F2E512C612C712CF02D0F2EF9EF8F2EDB
S1132ED0F6E19F2EF02D33243394212C8CB1932DC5
S1132EE0282F207184FD922D8091E90C981781F090
S1132EF08091E80C8F5F8093E80C843058F09093B5
S1132F00E90C211102C03092F40E2092E80C02C0A8
S1132F102092E80C8091F40E882331F02092F40E74
S1132F20D5018C9180648C930E94FA068091BA0E2C
S1132F3081111DC080E090E00E94BE0A89E392E105
S1132F400E94C40A8FE00E94D209832D0E94CE09F8
S1132F506AEA76E1832D0E94CA0AF6014682578204
S1132F60608671861286948683863092BA0E6DE6E8
S1132F708AE59DE040DF8093C70D882309F4AECF36
S1132F80CAE5DDE000E010E07E0188810E94600275
S1132F908091C80D893609F4FDDEE091C80DE9364B
S1132FA050F481E08E0F8093C80DF0E0E753F24FA8
S1132FB0D7018C9180830F5F1F4F21968091C70D9D
S1132FC090E00817190700F3C6010E94A408C6017F
S1132FD00E94FB0883CF1F920F920FB60F92112409
S1132FE00BB60F928F939F93EF93FF93F894909166
S1132FF079008091EC0CE82FF0E0E351F34F9083DB
S11330008C3619F41092EC0C03C08F5F8093EC0C97
S11330107894FF91EF919F918F910F900BBE0F9039
S11330200FBE0F901F901895DB018F939F9341D093
S1133030BF91AF91A29F800D911DA39F900DB29F50
S1133040900D11240895AA1BBB1B51E107C0AA1FB0
S1133050BB1FA617B70710F0A61BB70B881F991F35
S11330605A95A9F780959095BC01CD010895A1E2E8
S11330701A2EAA1BBB1BFD010DC0AA1FBB1FEE1FEE
S1133080FF1FA217B307E407F50720F0A21BB30B39
S1133090E40BF50B661F771F881F991F1A9469F7B5
S11330A060957095809590959B01AC01BD01CF0111
S11330B0089509D0A59F900DB49F900DA49F800DF5
S11330C0911D11240895A29FB001B39FC001A39F35
S11330D0700D811D1124911DB29F700D811D11244D
S11330E0911D08958F929F92AF92BF92CF92DF92DB
S11330F0EF92FF92CF93DF93EC01688179818A810B
S11331009B81611571058105910521F464E279EDD6
S11331108BE597E02DE133EF41E050E041D04901E8
S11331205A019B01AC01A7EAB1E4C3DF6B017C0146
S1133130ACEEB4EFA501940151D0DC01CB018C0DB0
S11331409D1DAE1DBF1DB7FF03C00197A109B04867
S113315088839983AA83BB839F77DF91CF91FF9064
S1133160EF90DF90CF90BF90AF909F908F90089595
S1133170B9CF80E092E0B6CFA0E0B0E08093000247
S113318090930102A0930202B09303020895FB01FD
S1133190DC0102C001900D9241505040D8F70895CF
S11331A0052E97FB16F400940FD057FD05D05FDF72
S11331B007FC02D046F408C05095409530952195FF
S11331C03F4F4F4F5F4F089590958095709561954F
S11331D07F4F8F4F9F4F0895B7FF6BCF6ADF821BDE
S10B31E0930B0895F894FFCF4E
S10731E801000000DE
S9030000FC
