:1000000065C0000082C0000080C000007EC000000B
:100010007CC000007AC0000078C0000076C00000FC
:1000200074C0000072C0000070C000006EC000000C
:100030006CC000006AC0000068C0000066C000001C
:1000400064C0000062C0000060C000005EC000002C
:100050005CC000005AC0000058C0000056C000003C
:10006000BDC0000052C0000050C000004EC00000E3
:100070004CC000004AC0000048C0000046C000005C
:1000800044C0000042C0000040C000003EC000006C
:1000900043C000003AC0000038C0000036C0000075
:1000A00034C0000032C0000030C000002EC000008C
:1000B0002CC000002AC0000028C0000026C000009C
:1000C00024C0000022C0000020C0000011241FBE78
:1000D000CFEFD1E2DEBFCDBF00E00CBF12E0A0E069
:1000E000B2E0EEEEF2E000E00BBF02C007900D922E
:1000F000A030B107D9F723E0A0E0B2E001C01D9223
:10010000A034B207E1F795D0F0C07ACFFC0190811E
:100110009923ECF7868108951F920F920FB60F92E4
:1001200011240BB60F922F933F934F935F936F93CE
:100130007F938F939F93AF93BF93EF93FF93CF934F
:10014000DF931F92CDB7DEB741E050E0BE016F5F95
:100150007F4F88EC90E028D0F89480910002E82F3F
:10016000F0E0EF5FFD4F998190838B3919F4109285
:10017000000203C08F5F8093000278940F90DF919C
:10018000CF91FF91EF91BF91AF919F918F917F910F
:100190006F915F914F913F912F910F900BBE0F90F8
:1001A0000FBE0F901F901895EF92FF920F931F9321
:1001B000CF93DF937C018B01EA01209739F0C701CF
:1001C000A5DFF80181938F012197C9F780E0DF91C6
:1001D000CF911F910F91FF90EF9008951F920F9272
:1001E0000FB60F9211240BB60F928F939F93EF933C
:1001F000FF939EB5F89480919D02E82FF0E0E256BF
:10020000FD4F90838B3919F410929D0203C08F5FCC
:1002100080939D02789481E080933B03FF91EF915E
:100220009F918F910F900BBE0F900FBE0F901F905C
:10023000189510923F03A8ECB0E08C9180913C039C
:10024000EEECF0E080838C9180913E0380838C9172
:1002500080913D038083F8945D9880E48EBD0DB459
:1002600007FEFDCF8EB580933A035D9A80913A03E5
:100270008331B9F580E183B95D9881E48EBD0DB419
:1002800007FEFDCF8EB580933A0380E48EBD0DB49A
:1002900007FEFDCF8EB580933C0380E48EBD0DB488
:1002A00007FEFDCF8EB580933E0380E48EBD0DB476
:1002B00007FEFDCF8EB580933D035D9AA8ECB0E0BC
:1002C0008C9180913C03EEECF0E080838C918091E6
:1002D0003E0380838C9180913D03808381E08093F5
:0E02E0003F03789480E090E00895F894FFCFFB
:00000001FF
