:1000000099C00000A1C000009FC000009DC000007A
:100010009BC0000099C0000097C0000095C0000080
:1000200093C0000091C000008FC000008DC0000090
:100030008BC0000089C0000087C0000085C00000A0
:1000400083C0000081C000007FC000007DC00000B0
:100050007BC0000079C0000077C0000075C00000C0
:1000600073C0000071C000006FC000006DC00000D0
:100070006BC0000069C0000067C0000065C00000E0
:1000800063C0000061C000005FC000005DC00000F0
:100090005BC0000059C0000057C0000055C0000000
:1000A00053C0000051C000004FC000004DC0000010
:1000B0004BC0000049C0000047C0000045C0000020
:1000C00043C0000041C000003FC000003DC0000030
:1000D0003BC0000039C0000037C0000035C0000040
:1000E00033C0000031C000002FC000002DC0000050
:1000F0002BC0000029C0000027C0000025C0000060
:1001000023C0000021C000001FC000001DC000006F
:100110001BC0000019C0000017C0000015C000007F
:1001200013C0000011C000000FC000000DC000008F
:100130000BC0000011241FBECFEFD1E8DEBFCDBF42
:1001400000E00CBF26D030C05BCFCF93DF931F926F
:10015000CDB7DEB78FEF8093640080936500809108
:100160006100833069F08FB78983F89489815F9348
:1001700050E85093610053E0509361005F918FBF4E
:100180000F90DF91CF9108952C9A249A6C98749ACD
:100190000895DBDFF9DF249A6C98749A649B02C09F
:0C01A0002C9AFCCF2C98FACFF894FFCFDB
:00000001FF
